:040000000DEF00F010
:0400080034EF20F0C1
:06001800FF00D1EF20F013
:0D3700000000010203040506070850010047
:10370E006DC5D9F46EC5DAF4DEC472F5DEC473F598
:10371E00DEC474F5DEC475F5050120EE04F06D51BE
:10372E00D9266E51DA22DFA09FEF1BF0A1EF1BF01E
:10373E00DAEF1BF020EE01F06B51D9266C51DA2234
:10374E007239E842F80BF80BDF6E050E6F6FD890EA
:10375E0075337433733372336F2FAEEF1BF020EE6D
:10376E0002F06B51D9266C51DA2272C5DFF473C5A3
:10377E0072F574C573F575C574F5756B20EE03F0AF
:10378E006B51D9266C51DA2272511F0BDF6E050E6A
:10379E006F6FD89075337433733372336F2FD0EFDE
:1037AE001BF0F1EF1BF020EE03F06B51D9266C519C
:1037BE00DA22DF6A10EE02F06B51E1266C51E22242
:1037CE00DFC4E7F420EE01F06B51D9266C51DA22FA
:1037DE00E7C4DFF46BC5D9F46CC5DAF472C5DFF457
:1037EE0073C572F574C573F575C574F5756B72C5D1
:1037FE006FF5070E6F1720EE01F06B51D9266C5145
:10380E00DA226F51DF1220EE04F06D51D9266E517F
:10381E00DA22DF30E8320F0B716F20EE04F06D51BB
:10382E00D9266E51DA22DFB01FEF1CF023EF1CF009
:10383E006F6B6F2B25EF1CF005016F6B6F39F00B63
:10384E00711320EE04F06D51D9266E51DA22DFB2DB
:10385E0033EF1CF037EF1CF0200E6F6F39EF1CF0BA
:10386E0005016F6B6F51711320EE04F06D51D92667
:10387E006E51DA22DFBE46EF1CF04AEF1CF0400E0E
:10388E006F6F4CEF1CF005016F6B6F51711320EED3
:10389E0004F06D51D9266E51DA22DFBC59EF1CF0BF
:1038AE005DEF1CF0800E6F6F5FEF1CF005016F6B0C
:1038BE006F51711320EE04F06B51D9266C51DA2240
:1038CE0071C5DFF420EE04F06D51D9266E51DA2267
:1038DE00DFB274EF1CF076EF1CF09FEF1CF0080EB9
:1038EE006B25606F000E6C21616F20EE05F06D513F
:1038FE00D9266E51DA22DEC462F5DDC463F520EE00
:10390E0004F06D51D9266E51DA22DF30E8320F0BFA
:10391E006F6F6F51010F706F70C5F6F4370EF76E43
:10392E00000EF86E0800F550646F656B0BEC20F01E
:10393E00120020EE04F00C50D9260D50DA22DF5082
:10394E00166E16C510F520EE04F00E50D9260F5047
:10395E00DA2210461046DF501018C30B1018DF6E17
:10396E0016B8BCEF1CF0C0EF1CF0106A102AC1EFA5
:10397E001CF0106A20EE04F00E50D9260F50DA22F9
:10398E00DF501018FE0B1018DF6E16BAD1EF1CF0B8
:10399E00D5EF1CF0106A102AD6EF1CF0106A20EE3C
:1039AE0004F00E50D9260F50DA221046DF501018B0
:1039BE00FD0B1018DF6E16BCE7EF1CF0EBEF1CF0E2
:1039CE00106A102AECEF1CF0106A20EE04F00E5074
:1039DE00D9260F50DA2210321032DF5010187F0B1A
:1039EE001018DF6E16BEFEEF1CF002EF1DF0106A0F
:1039FE00102A03EF1DF0106A20EE04F00E50D926A7
:103A0E000F50DA22103A10461046DF501018BF0B36
:103A1E001018DF6E20EE01F00C50D9260D50DA2270
:103A2E00DF50106E070E10161050126E136A146AC5
:103A3E00156A14C515F513C514F512C513F5126ADA
:103A4E000CC5D9F40DC5DAF4DF50106E10501212F9
:103A5E0020EE04F00E50D9260F50DA22DFA03AEFF6
:103A6E001DF03CEF1DF07DEF1DF0050ED8901236C7
:103A7E00133614361536E82E3DEF1DF020EE03F00A
:103A8E000C50D9260D50DA22DF50106E1F0E101674
:103A9E001050121214C515F513C514F512C513F5F1
:103AAE00126A20EE02F00C50D9260D50DA22DF50A9
:103ABE00106E10501212050ED890123613361436A0
:103ACE001536E82E63EF1DF020EE01F00C50D926CE
:103ADE000D50DA22DF50106ED8901032D89010327E
:103AEE00D89010321F0E1016105012120EC5D9F4A7
:103AFE000FC5DAF412C5DEF413C5DEF414C5DEF418
:103B0E0015C5DEF4370E016E050E026E080E0C247E
:103B1E00036E000E0D20046E20EE04F00E50D9261A
:103B2E000F50DA22DF30E8320F0B106E1050010FFB
:103B3E00116E11C5F6F4370EF76E000EF86E080012
:103B4E00F550056E066A86EC20F020EE05F00E505C
:103B5E00D9260F50DA22370EDE6E050EDD6E1200FC
:103B6E000501666F000E0501676F20EE04F06151CE
:103B7E00D9266251DA22DF50686F68AFC9EF1DF0A7
:103B8E00CBEF1DF0D7EF1DF0E5EC21F0060AD8A41F
:103B9E00D3EF1DF0D5EF1DF0D7EF1DF005016783B4
:103BAE0005016831E8320F0B636F080E6365E2EFB3
:103BBE001DF0E4EF1DF0F7EF1DF068ADE9EF1DF01D
:103BCE00EBEF1DF0F5EF1DF0E5EC21F0060AD8A4A1
:103BDE00F3EF1DF0F5EF1DF0F7EF1DF00501678116
:103BEE00090EF66E370EF76E000EF86E0800F5C46D
:103BFE0063F505016831E8320F0B646F6451010FF4
:103C0E00656F65C5F6F4370EF76E000EF86E080098
:103C1E00F550635DD8B016EF1EF018EF1EF019EFD9
:103C2E001EF06781665199EC21F00009D8A422EFAD
:103C3E001EF024EF1EF027EF1EF0030E0501671392
:103C4E00050167511200206E000E1C6E1750B3EC6A
:103C5E0021F01F6E1FA036EF1EF038EF1EF09BEF07
:103C6E001EF017500C0D580EF324D96E010EF420D1
:103C7E00DA6EDEC41DF5DDC41EF51D501E10D8B45F
:103C8E004BEF1EF04DEF1EF09BEF1EF01DC50CF519
:103C9E001EC50DF518C50EF519C50FF5A0EC1CF0D7
:103CAE0017500C0D510EF324D96E010EF420DA6E5E
:103CBE00000EDB802050020D860EF324D96E050E09
:103CCE00F420DA6EDF2A17508AEC21F01A6E20509B
:103CDE00020D860EF324D96E050EF420DA6E1A50FC
:103CEE00DE5CD8A07DEF1EF07FEF1EF088EF1EF099
:103CFE002050020D860EF324D96E050EF420DA6ED6
:103D0E00DF6A1FA68DEF1EF08FEF1EF099EF1EF0EB
:103D1E0017500C0D540EF324D96E010EF420DA6EEA
:103D2E00F70EDF16010E1C6E1C501200BFEC21F0B8
:103D3E00100E0501606F420E616F000E626FDEECB9
:103D4E0021F0D68E060E05017D6F130E7C6FAD0E23
:103D5E00E82EFED77C2FFCD77D2FFAD700D0E5ECCE
:103D6E0021F0040AD8A4BEEF1EF0C0EF1EF0C3EF80
:103D7E001EF0060E55EC1FF0E5EC21F0060AD8A455
:103D8E00CBEF1EF0CDEF1EF002EF1FF0010E05017E
:103D9E007E6F000E7F6F000E806F000E816F829D12
:103DAE00829F8251C30B0409826F82938281870E98
:103DBE00836F050E846F000EEFEC20F0E806D8A49A
:103DCE00EBEF1EF0EDEF1EF002EF1FF0C08C7E0E3B
:103DDE000501766F050E776F000E08EC1FF0000ED2
:103DEE00EFEC20F00009D8B4FFEF1EF001EF1FF04A
:103DFE00F6EF1EF0C09C0501872BA9EF1EF00DEF0C
:103E0E0000F005017B6F05017B51AEEC20F000093F
:103E1E00D8B414EF1FF016EF1FF054EF1FF076C555
:103E2E0061F577C562F505017B51B7EC1DF0050113
:103E3E00786F7851D8A426EF1FF028EF1FF054EFBB
:103E4E001FF07B510C0D580EF324D96E010EF42089
:103E5E00DA6EDEC479F5DDC47AF579517A11D8B40B
:103E6E003BEF1FF03DEF1FF054EF1FF079C56BF5E0
:103E7E007AC56CF576C56DF577C56EF587EC1BF0DA
:103E8E0005017B510C0D510EF324D96E010EF42059
:103E9E00DA6E030EDF1254EF1FF012000501626F8F
:103EAE00000E0501616FE5EC21F00501606F040E57
:103EBE006019D8B465EF1FF067EF1FF078EF1FF0B1
:103ECE006205D8B46DEF1FF06FEF1FF078EF1FF0A3
:103EDE00040E6219D8A476EF1FF078EF1FF09DEF55
:103EEE001FF00101035105016219F80B621901015E
:103EFE00036F8FEF1FF001011DA988EF1FF08AEFEE
:103F0E001FF08FEF1FF0020E0501616F9FEF1FF084
:103F1E000239E832070B05016219D8A499EF1FF098
:103F2E009BEF1FF082EF1FF09FEF1FF0010E616FEE
:103F3E0061511200000EC26E000EC16E000EBE6EFA
:103F4E00000EBF6E000EC06E070ECA6EC668C76842
:103F5E00BF0EC86EFB0EC96EF70E0401186F106906
:103F6E000869070E206F0069000E196F000E216F91
:103F7E00000E096F000E016F000E116F000E226F02
:103F8E00000E026F000E0A6F000E126F000E1A6FF7
:103F9E0003690B6913691B69070E236F04690C69AA
:103FAE0014691C690F0E246F460E02011B6F1B0E47
:103FBE003D6F12000101018F040E55EC1FF0000938
:103FCE00D8A4ECEF1FF0EEEF1FF00AEF20F0000E7A
:103FDE0001014C6F380E4D6F000E4E6F000E4F6F7D
:103FEE00600E006F970E016F100E026FD4EC21F071
:103FFE00CAEC21F020EC21F077EC21F037EC21F027
:10400E00060E55EC1FF0120062C568F563C569F522
:10401E0060C566F561C567F525EF20F068C5D9F472
:10402E0069C5DAF4DF506A6F684B692B66C5D9F43F
:10403E0067C5DAF46AC5DFF4664B672B05016407C2
:10404E00D8A06507642906E16529D8A431EF20F0D0
:10405E0033EF20F015EF20F01200FAC42EF5FBC45A
:10406E002FF5F6C430F5F7C431F5F8C432F5F5C4C2
:10407E0033F5A2A845EF20F047EF20F050EF20F0E7
:10408E00B2A84CEF20F04EEF20F050EF20F04DECA8
:10409E0021F033C5F5F432C5F8F431C5F7F430C567
:1040AE00F6F42FC5FBF42EC5FAF41100246E000EA3
:1040BE00256E2550020D850EF324D96E050EF420C3
:1040CE00DA6E2450DE18D8A46FEF20F071EF20F0D6
:1040DE007CEF20F024C517F521C518F522C519F57A
:1040EE0025502AEC1EF085EF20F0252A2550D8B455
:1040FE0083EF20F085EF20F060EF20F0120003C573
:10410E0009F504C50AF501C507F502C508F5A0EFC6
:10411E0020F009C5D9F40AC5DAF4DF500B6E094A4E
:10412E000A2A07C5D9F408C5DAF40BC5DFF4074A25
:10413E00082A0506D8A00606052806E10628D8A4F2
:10414E00ABEF20F0ADEF20F090EF20F01200050164
:10415E00616F000E0501606F040E6161B9EF20F012
:10416E00BBEF20F0CEEF20F061510C0D500EF3247A
:10417E00D96E010EF420DA6E0101DFAEC9EF20F028
:10418E00CBEF20F0CEEF20F0010E0501606F0501A0
:10419E0060511200D80EF66E430EF76E000EF86EDA
:1041AE000900F5C485F50900F5C486F50501876B90
:1041BE0001EE34F10B0EEE6AE806FDE10401080E85
:1041CE005D6F000E5E6F000E5F6F00019DEF1EF0C3
:1041DE000501636F000E0501626F6351AEEC20F0B6
:1041EE000009D8B4FDEF20F0FFEF20F005EF21F02D
:1041FE000501635199EC21F00501626F05016251D1
:10420E001200270E216E050E226E010E5DEC20F0BF
:10421E002CC5D9F42DC5DAF4420EDE18D8A41AEF47
:10422E0021F01CEF21F01FEF21F0000E0501876F2A
:10423E001200040E01015C6F040E5D6F600E5E6F66
:10424E00000E5F6FDA0E0501606F430E616F000E98
:10425E00626FDEEC21F001011E83B298A28812007B
:10426E00000E0501606F6051020D860EF324D96EAB
:10427E00050EF420DA6EDF6A602B6051D8B44AEF77
:10428E0021F04CEF21F03AEF21F01200010160A570
:10429E0053EF21F055EF21F062EF21F002D862EFDB
:1042AE0021F00500FA6E3450FD6E3550FE6E36501C
:1042BE00FF6EFA5012001200000E0001606F000E29
:1042CE00616F000E626F000E636F000E646F000E62
:1042DE00656F000E666F000E676F000E686F12003E
:1042EE00020E01018C6F000E8D6F000E8E6F000E90
:1042FE008F6F9069070E916F000E926F400E936F45
:10430E00810E806F1200026E02500C0D530EF324BC
:10431E00D96E010EF420DA6EDF50016E1F0E0116FB
:10432E00012812000501606F050160510C0D540E3D
:10433E00F324D96E010EF420DA6EDF50010B120059
:10434E00600E0001AD6F000EAF6F000EB36F020E68
:10435E00B16F000EB06F1200016E01500C0D540EB5
:10436E00F324D96E010EF420DA6EDF50090B120021
:10437E00EAEC21F063EC21F0A1EC1FF0A7EC21F0A8
:10438E00E1EC1FF01200000E0101506F040E516F90
:10439E00600E526F000E536F1200010E0101046F7A
:1043AE00010E056F040E066F000E076F120060C53A
:1043BE0034F561C535F562C536F5120001010239D5
:0E43CE00E832070B1200D69A1200010012000E
:020000040030CA
:10000000ECEFF7FF9FFFFFFFFFFFFFFFFFFFFFFF8B
:03001000FFFFFFF0
:08001700FFFFFFFFFFFFFFFFE9
:00000001FF
