:040000000DEF00F010
:0400080006EF1FF0F0
:06001800FF00C5EF1EF021
:0D3700000000010203040506070850010047
:10370E0010C5D9F411C5DAF4DEC415F5DEC416F50C
:10371E00DEC417F5DEC418F520EE04F01050D926DD
:10372E001150DA22DFA09EEF1BF0A0EF1BF0D9EFB5
:10373E001BF020EE01F00E50D9260F50DA2215386C
:10374E00E842F80BF80BDF6E050E126ED8901832A9
:10375E00173216321532122EADEF1BF020EE02F09C
:10376E000E50D9260F50DA2215C5DFF416C515F501
:10377E0017C516F518C517F5186A20EE03F00E508A
:10378E00D9260F50DA2215501F0BDF6E050E126E62
:10379E00D8901832173216321532122ECFEF1BF088
:1037AE00F0EF1BF020EE03F00E50D9260F50DA2268
:1037BE00DF6A10EE02F00E50E1260F50E222DFC457
:1037CE00E7F420EE01F00E50D9260F50DA22E7C4AE
:1037DE00DFF40EC5D9F40FC5DAF415C5DFF416C53E
:1037EE0015F517C516F518C517F5186A15C512F58E
:1037FE00070E121620EE01F00E50D9260F50DA22C7
:10380E001250DF1220EE04F01050D9261150DA2299
:10381E00DF30E8320F0B146E20EE04F01050D92674
:10382E001150DA22DFB01EEF1CF022EF1CF0126AEC
:10383E00122A23EF1CF0126A1238F00B141220EE2B
:10384E0004F01050D9261150DA22DFB231EF1CF0FD
:10385E0035EF1CF0200E126E36EF1CF0126A12506D
:10386E00141220EE04F01050D9261150DA22DFBEC9
:10387E0043EF1CF047EF1CF0400E126E48EF1CF0A9
:10388E00126A1250141220EE04F01050D926115064
:10389E00DA22DFBC55EF1CF059EF1CF0800E126ED1
:1038AE005AEF1CF0126A1250141220EE04F00E5051
:1038BE00D9260F50DA2214C5DFF420EE04F0105092
:1038CE00D9261150DA22DFB26FEF1CF071EF1CF027
:1038DE009AEF1CF0080E0E24036E000E0F20046EDD
:1038EE0020EE05F01050D9261150DA22DEC405F56F
:1038FE00DDC406F520EE04F01050D9261150DA2260
:10390E00DF30E8320F0B126E1250010F136E13C51B
:10391E00F6F4370EF76E000EF86E0800F550076ECF
:10392E00086A9DEC1EF01200096E000E0A6E20EE63
:10393E0004F00450D9260550DA22DF500B6E0BAE80
:10394E00ABEF1CF0ADEF1CF0B8EF1CF0F0EC1FF07D
:10395E00060AD8A4B5EF1CF0B7EF1CF0B8EF1CF0B8
:10396E000A820B30E8320F0B066E080E0664C2EFA9
:10397E001CF0C4EF1CF0D6EF1CF00BACC9EF1CF022
:10398E00CBEF1CF0D5EF1CF0F0EC1FF0060AD8A41C
:10399E00D3EF1CF0D5EF1CF0D6EF1CF00A80090E09
:1039AE00F66E370EF76E000EF86E0800F5C406F5CB
:1039BE000B30E8320F0B076E0750010F086E08C56B
:1039CE00F6F4370EF76E000EF86E0800F550065C32
:1039DE00D8B0F4EF1CF0F6EF1CF0F7EF1CF00A80F5
:1039EE000950B4EC1FF00009D8A400EF1DF002EF4F
:1039FE001DF004EF1DF0030E0A120A501200000E05
:103A0E000301F96F000EFA6F000ED86F000EFB6FF8
:103A1E00000ED96F000EDA6F000EDB6F000EDC6F3A
:103A2E00000EDF6F000EE06F000EE36F000EE46F0E
:103A3E00000EE56F000EE66F000EE76F000EEA6FE8
:103A4E00000EEB6F000EEC6F000EEE6F000EEF6FC0
:103A5E00000EF06F000EF16F000EF26F000EF36F9E
:103A6E00000EF46F100EF56F000EF66F000EF76F6E
:103A7E00000EF86F000EFC6FAF94AF96B090000E74
:103A8E00036E000E046E000E056EE9EC1FF0000EC4
:103A9E00036E000E046E000E056EDBEC1FF0000EC2
:103AAE00036E000E046E000E056EE2EC1FF0840E27
:103ABE000301F36F12001E6E1E50E7EC1EF000099C
:103ACE00D8B46CEF1DF06EEF1DF0A9EF1DF019C507
:103ADE0004F51AC505F51E509BEC1CF01B6E1B5011
:103AEE00D8A47CEF1DF07EEF1DF0A9EF1DF01E5047
:103AFE000C0D580EF324D96E010EF420DA6EDEC4CE
:103B0E001CF5DDC41DF51C501D10D8B491EF1DF031
:103B1E0093EF1DF0A9EF1DF01CC50EF51DC50FF599
:103B2E0019C510F51AC511F587EC1BF01E500C0DBA
:103B3E00510EF324D96E010EF420DA6E030EDF124D
:103B4E00A9EF1DF012009BEC1FF0D68EF0EC1FF0CB
:103B5E00040AD8A4B5EF1DF0B7EF1DF0BAEF1DF0B3
:103B6E00060EF0EC1DF0F0EC1FF0060AD8A4C2EF22
:103B7E001DF0C4EF1DF0E1EF1DF0000E74EC1FF010
:103B8E00E806D8A4CDEF1DF0CFEF1DF0E1EF1DF04C
:103B9E00210E196E050E1A6E000E62EC1DF0000E4F
:103BAE0074EC1FF00009D8B4DFEF1DF0E1EF1DF04B
:103BBE00D6EF1DF0060E206E130E1F6EAE0EE82E03
:103BCE00FED71F2EFCD7202EFAD7ADEF1DF00DEF2E
:103BDE0000F0056E000E046EF0EC1FF0036E040E86
:103BEE000318D8B4FDEF1DF0FFEF1DF010EF1EF01F
:103BFE000504D8B405EF1EF007EF1EF010EF1EF00F
:103C0E00040E0518D8A40EEF1EF010EF1EF030EFC4
:103C1E001EF0010103510518F80B0518036F23EF71
:103C2E001EF01DA91DEF1EF01FEF1EF023EF1EF05C
:103C3E00020E046E32EF1EF00239E832070B051841
:103C4E00D8A42CEF1EF02EEF1EF018EF1EF032EF60
:103C5E001EF0010E046E04501200000EC26E000E15
:103C6E00C16E000EBE6E000EBF6E000EC06E070E51
:103C7E00CA6EC668C768C868FD0EC96EC00E04015C
:103C8E00186F10690869070E206F00693C0E196FD6
:103C9E00000E216F000E096F000E016F000E116FE6
:103CAE00000E226F000E026F000E0A6F000E126FD2
:103CBE00000E1A6F03690B6913691B69070E236FD8
:103CCE0004690C6914691C690F0E246F180E020129
:103CDE003D6F460E1A6F12000101018F040EF0ECBB
:103CEE001DF00009D8A47EEF1EF080EF1EF09CEFB1
:103CFE001EF0000E01014C6F380E4D6F000E4E6F10
:103D0E00000E4F6F600E006F970E016F100E026F58
:103D1E00CAEC1FF0C0EC1FF01FEC1FF088EC1FF078
:103D2E004BEC1FF0060EF0EC1DF0120005C50BF566
:103D3E0006C50CF503C509F504C50AF5B7EF1EF067
:103D4E000BC5D9F40CC5DAF4DF500D6E0B4A0C2AF4
:103D5E0009C5D9F40AC5DAF40DC5DFF4094A0A2AF1
:103D6E000706D8A00806072806E10828D8A4C2EF3F
:103D7E001EF0C4EF1EF0A7EF1EF01200EE0EF66E50
:103D8E003F0EF76E000EF86E0900F5C44DF50900F2
:103D9E00F5C44EF501EE60F1170EEE6AE806FDE190
:103DAE0001EE28F11C0EEE6AE806FDE10401080E94
:103DBE005D6F000E5E6F000E5F6F0001AAEF1DF0CB
:103DCE00046E000E036E040E0460F0EF1EF0F2EFB0
:103DDE001EF004EF1FF004500C0D500EF324D96E9C
:103DEE00010EF420DA6E0101DFAE00EF1FF002EFDC
:103DFE001FF004EF1FF0010E036E03501200FAC401
:103E0E0001F5FBC402F5A2A80FEF1FF011EF1FF092
:103E1E001AEF1FF0B2A816EF1FF018EF1FF01AEFEF
:103E2E001FF035EC1FF002C5FBF401C5FAF41100CA
:103E3E00040E01015C6F040E5D6F600E5E6F000E6E
:103E4E005F6FF00E036E3F0E046E000E056ED4EC27
:103E5E001FF001011E83B298A2881200010160A515
:103E6E003BEF1FF03DEF1FF04AEF1FF002D84AEF75
:103E7E001FF00500FA6E3850FD6E3950FE6E3A5046
:103E8E00FF6EFA5012001200000E036E0350020D68
:103E9E004E0EF324D96E050EF420DA6EDF6A032A75
:103EAE000350D8B45DEF1FF05FEF1FF04DEF1FF022
:103EBE001200000E0001606F000E616F000E626F47
:103ECE00000E636F000E646F000E656F000E666F5E
:103EDE00000E676F000E686F1200066E000E056E04
:103EEE000650E7EC1EF00009D8B480EF1FF082EF09
:103EFE001FF086EF1FF00650B4EC1FF0056E055054
:103F0E001200020E01018C6F000E8D6F000E8E6F6F
:103F1E00000E8F6F9069070E916F000E926F400E1C
:103F2E00936F810E806F1200F5EC1FF060EC1FF0A6
:103F3E0034EC1EF006EC1DF0A8EC1FF073EC1EF036
:103F4E001200700E0001AD6F000EAF6F000EB36F5A
:103F5E00020EB16F000EB06F1200036E03500C0D07
:103F6E00540EF324D96E010EF420DA6EDF50010BDD
:103F7E001200000E0101506F040E516F600E526F51
:103F8E00000E536F12000F0E0101046F0F0E056F1E
:103F9E003E0E066F000E076F120003C538F504C5FE
:103FAE0039F505C53AF5120003C547F504C548F5C0
:103FBE0005C549F5120003C544F504C545F505C50B
:103FCE0046F5120003C54AF504C54BF505C54CF57B
:103FDE00120001010239E832070B1200D69A1200C4
:043FEE0001001200BC
:020000040030CA
:10000000FFEEF7FF9FFFFFFFFFFFFFFFFFFFFFFF79
:03001000FFFFFFF0
:08001700FFFFFFFFFFFFFFFFE9
:00000001FF
