:040000000DEF00F010
:0400080094EF21F060
:06001800FF00ADEF21F036
:0D3700000000010203040506070850010047
:10370E0010C5D9F411C5DAF4DEC415F5DEC416F50C
:10371E00DEC417F5DEC418F520EE04F01050D926DD
:10372E001150DA22DFA09EEF1BF0A0EF1BF0D9EFB5
:10373E001BF020EE01F00E50D9260F50DA2215386C
:10374E00E842F80BF80BDF6E050E126ED8901832A9
:10375E00173216321532122EADEF1BF020EE02F09C
:10376E000E50D9260F50DA2215C5DFF416C515F501
:10377E0017C516F518C517F5186A20EE03F00E508A
:10378E00D9260F50DA2215501F0BDF6E050E126E62
:10379E00D8901832173216321532122ECFEF1BF088
:1037AE00F0EF1BF020EE03F00E50D9260F50DA2268
:1037BE00DF6A10EE02F00E50E1260F50E222DFC457
:1037CE00E7F420EE01F00E50D9260F50DA22E7C4AE
:1037DE00DFF40EC5D9F40FC5DAF415C5DFF416C53E
:1037EE0015F517C516F518C517F5186A15C512F58E
:1037FE00070E121620EE01F00E50D9260F50DA22C7
:10380E001250DF1220EE04F01050D9261150DA2299
:10381E00DF30E8320F0B146E20EE04F01050D92674
:10382E001150DA22DFB01EEF1CF022EF1CF0126AEC
:10383E00122A23EF1CF0126A1238F00B141220EE2B
:10384E0004F01050D9261150DA22DFB231EF1CF0FD
:10385E0035EF1CF0200E126E36EF1CF0126A12506D
:10386E00141220EE04F01050D9261150DA22DFBEC9
:10387E0043EF1CF047EF1CF0400E126E48EF1CF0A9
:10388E00126A1250141220EE04F01050D926115064
:10389E00DA22DFBC55EF1CF059EF1CF0800E126ED1
:1038AE005AEF1CF0126A1250141220EE04F00E5051
:1038BE00D9260F50DA2214C5DFF420EE04F0105092
:1038CE00D9261150DA22DFB26FEF1CF071EF1CF027
:1038DE009AEF1CF0080E0E24036E000E0F20046EDD
:1038EE0020EE05F01050D9261150DA22DEC405F56F
:1038FE00DDC406F520EE04F01050D9261150DA2260
:10390E00DF30E8320F0B126E1250010F136E13C51B
:10391E00F6F4370EF76E000EF86E0800F550076ECF
:10392E00086A0DEC21F01200FDEC21F0000E8DEC7A
:10393E0022F0000E266E265081EC22F022EC22F0B0
:10394E000009D8B4ADEF1CF0AFEF1CF0A5EF1CF0E2
:10395E002DEC22F003C524F504C525F5600E2624B2
:10396E00D96EDA6A050EDA2224C503F525C504F5EB
:10397E0091EC22F0DF6E262A160E2664C9EF1CF09B
:10398E00CBEF1CF0A2EF1CF01DEF1DF0060E4EEC5F
:10399E0020F033EF1DF0000ED7EC21F0E806D8A48E
:1039AE00DBEF1CF0DDEF1CF033EF1DF0600E0B6E45
:1039BE00050E0C6E59EC1EF021EE27F1060EEBC42F
:1039CE00DBF4E806FCE2270E196E050E1A6E000EE9
:1039DE0006EC20F0000ED7EC21F00009D8B4FAEF77
:1039EE001CF0FCEF1CF0F1EF1CF0600E036E050EE8
:1039FE00046ED4EC1DF021EE27F1060EEBC4DBF4C1
:103A0E00E806FCE2270E196E050E1A6E000E06EC85
:103A1E0020F0000ED7EC21F00009D8B419EF1DF0FC
:103A2E001BEF1DF010EF1DF033EF1DF088EC22F0B0
:103A3E00226E236A2350000AD8B428EF1DF033EF0C
:103A4E001DF02250040AD8B4CDEF1CF0020AD8B4EF
:103A5E00D2EF1CF033EF1DF0820E226EDE0EE82E3A
:103A6E00FED7222EFCD7A0EF1CF00DEF00F00101C7
:103A7E001DAF44EF1DF046EF1DF055EF1DF002D8BF
:103A8E0053EF1DF00500FA6E3D50FD6E3E50FE6E7A
:103A9E003F50FF6EFA50120001011D9F1DAD5AEFEF
:103AAE001DF05CEF1DF06BEF1DF002D869EF1DF0FD
:103ABE000500FA6E3A50FD6E3B50FE6E3C50FF6EA6
:103ACE00FA50120001011D9D1DAB70EF1DF072EF3B
:103ADE001DF081EF1DF002D87FEF1DF00500FA6E8C
:103AEE003750FD6E3850FE6E3950FF6EFA50120090
:103AFE0001011D9B1CA786EF1DF088EF1DF097EFAF
:103B0E001DF002D895EF1DF00500FA6E3450FD6ED3
:103B1E003550FE6E3650FF6EFA50120001011C97A2
:103B2E001DA99CEF1DF09EEF1DF0ADEF1DF002D80C
:103B3E00ABEF1DF00500FA6E3150FD6E3250FE6E89
:103B4E003350FF6EFA50120001011D991DA5B2EF00
:103B5E001DF0B4EF1DF0D2EF1DF002D8C1EF1DF035
:103B6E000500FA6E2E50FD6E2F50FE6E3050FF6E19
:103B7E00FA501200010154A9C7EF1DF0C9EF1DF054
:103B8E00CAEF1DF0549960A9CFEF1DF0D1EF1DF0D3
:103B9E00D2EF1DF06099AE9C12007F0E116E000EDA
:103BAE000D6E800E126E000E0E6E000E0B6E000E5F
:103BBE00146E14500324D96E000E0420DA6EDF50FA
:103BCE00136E1350800A0A6E1150800A0A5CD8B028
:103BDE00F3EF1DF0F5EF1DF0F9EF1DF013C511F524
:103BEE0014C50DF51250800A0A6E1350800A0A5C35
:103BFE00D8B004EF1EF006EF1EF00AEF1EF013C54C
:103C0E0012F514C50EF513500B26142A170E146454
:103C1E0013EF1EF015EF1EF0E0EF1DF040C50FF58F
:103C2E00106A40500324D96E000E0420DA6EDF5065
:103C3E000C6E1050426E0FC543F50CC544F5180EB0
:103C4E00456E11C546F512C547F50EC548F50DC5AD
:103C5E0049F5800E156EF30E166E380E176E180E91
:103C6E00186E199C199E1950C30B2009196E1992C2
:103C7E001980420E1A6E050E1B6E402A170E4064F6
:103C8E004BEF1EF04DEF1EF04FEF1EF0000E406E8C
:103C9E0021EE15F101EE03F1060EDBC4EBF4E8069E
:103CAE00FCE212007F0E176E000E146E800E186E60
:103CBE00000E156E000E166E000E1A6E1A500B24A4
:103CCE00D96E000E0C20DA6EDF50196E1950800A74
:103CDE00126E1750800A125CD8B078EF1EF07AEF91
:103CEE001EF07EEF1EF019C517F51AC514F5185003
:103CFE00800A126E1950800A125CD8B089EF1EF03D
:103D0E008BEF1EF08FEF1EF019C518F51AC515F5BD
:103D1E00195016261A2A170E1A6498EF1EF09AEFEB
:103D2E001EF065EF1EF01650036E046A03BE040605
:103D3E00000E066E170E056E48EC1FF00328136E6C
:103D4E00000E426E17C543F518C544F513C545F56B
:103D5E00180E466E15C547F514C548F5420E036E8E
:103D6E00050E046E070E056E7AEC21F0410F496EBA
:103D7E00800E1B6EF30E1C6E390E1D6E180E1E6E0F
:103D8E001F9C1F9E1F50C30B20091F6E1F921F806A
:103D9E00420E206E050E216E21EE1BF101EE0BF18F
:103DAE00060EDBC4EBF4E806FCE21200096E000E10
:103DBE000A6E20EE04F00450D9260550DA22DF50A8
:103DCE000B6E0BAEEDEF1EF0EFEF1EF0FAEF1EF0E6
:103DDE0088EC22F0060AD8A4F7EF1EF0F9EF1EF0D9
:103DEE00FAEF1EF00A820B30E8320F0B066E080E49
:103DFE00066404EF1FF006EF1FF018EF1FF00BAC78
:103E0E000BEF1FF00DEF1FF017EF1FF088EC22F0F5
:103E1E00060AD8A415EF1FF017EF1FF018EF1FF0CA
:103E2E000A80090EF66E370EF76E000EF86E080059
:103E3E00F5C406F50B30E8320F0B076E0750010F75
:103E4E00086E08C5F6F4370EF76E000EF86E080011
:103E5E00F550065CD8B036EF1FF038EF1FF039EF93
:103E6E001FF00A80095016EC22F00009D8A442EF88
:103E7E001FF044EF1FF046EF1FF0030E0A120A5018
:103E8E001200000E086E06BE51EF1FF04FEF1FF02E
:103E9E0057EF1FF0056C061ED8B0062A010E086EED
:103EAE0004BE5EEF1FF05CEF1FF064EF1FF0036CBB
:103EBE00041ED8B0042A010E081A000E0A6E000E57
:103ECE00096E05500610D8B46FEF1FF071EF1FF09A
:103EDE0099EF1FF0010E076E79EF1FF0D89005369F
:103EEE000636072A06AE7EEF1FF080EF1FF075EF45
:103EFE001FF0D89009360A360550035C0650045858
:103F0E00D8A08CEF1FF08EEF1FF093EF1FF005502F
:103F1E00035E0650045A0980D89006320532072EE9
:103F2E0080EF1FF00850D8B49FEF1FF0A1EF1FF0E5
:103F3E00A5EF1FF0096C0A1ED8B00A2A09C503F5B1
:103F4E000AC504F51200000E0301F96F000EFA6F98
:103F5E00000ED86F000EFB6F000ED96F000EDA6FD9
:103F6E00000EDB6F000EDC6F000EDF6F000EE06FD9
:103F7E00000EE36F000EE46F000EE56F000EE66FAD
:103F8E00000EE76F000EEA6F000EEB6F000EEC6F87
:103F9E00000EEE6F000EEF6F000EF06F000EF16F61
:103FAE00000EF26F000EF36F000EF46F100EF56F31
:103FBE00000EF66F000EF76F000EF86F000EFC6F1E
:103FCE00AF94AF96B090000E036E000E046E000E0E
:103FDE00056E7AEC22F0000E036E000E046E000EDB
:103FEE00056E6CEC22F0000E036E000E046E000ED9
:103FFE00056E73EC22F0840E0301F36F12001E6E39
:10400E001E505BEC21F00009D8B410EF20F012EF37
:10401E0020F04DEF20F019C504F51AC505F51E5018
:10402E00DDEC1EF01B6E1B50D8A420EF20F022EF0B
:10403E0020F04DEF20F01E500C0D580EF324D96ECB
:10404E00010EF420DA6EDEC41CF5DDC41DF51C5025
:10405E001D10D8B435EF20F037EF20F04DEF20F0E3
:10406E001CC50EF51DC50FF519C510F51AC511F5B0
:10407E0087EC1BF01E500C0D510EF324D96E010E61
:10408E00F420DA6E030EDF124DEF20F01200056EF3
:10409E00000E046E88EC22F0036E040E0318D8B4E2
:1040AE005BEF20F05DEF20F06EEF20F00504D8B44A
:1040BE0063EF20F065EF20F06EEF20F0040E051890
:1040CE00D8A46CEF20F06EEF20F08EEF20F00101FF
:1040DE0003510518F80B0518036F81EF20F01DA989
:1040EE007BEF20F07DEF20F081EF20F0020E046ECA
:1040FE0090EF20F00239E832070B0518D8A48AEFAA
:10410E0020F08CEF20F076EF20F090EF20F0010EF3
:10411E00046E04501200000EC26E000EC16E000E30
:10412E00BE6E000EBF6E000EC06E070ECA6EC66863
:10413E00C768C868FD0EC96EC00E0401186F1069FD
:10414E000869070E206F00693C0E196F000E216F73
:10415E00000E096F000E016F000E116F000E226F20
:10416E00000E026F000E0A6F000E126F000E1A6F15
:10417E0003690B6913691B69070E236F04690C69C8
:10418E0014691C690F0E246F180E02013D6F460E46
:10419E001A6F1200300E036E450E046E000E056E81
:1041AE0057EC22F0320E036E450E046E000E056EB5
:1041BE005EEC22F0340E036E450E046E000E056E9C
:1041CE0065EC22F02E0E036E450E046E000E056E8B
:1041DE0050EC22F02C0E036E450E046E000E056E92
:1041EE0049EC22F02A0E036E450E046E000E056E8B
:1041FE0042EC22F0AE9C000E01011C6F000E1D6FF2
:10420E00080E1E6FFC0E1F6F9E8C120005C50BF55F
:10421E0006C50CF503C509F504C50AF527EF21F00F
:10422E000BC5D9F40CC5DAF4DF500D6E0B4A0C2A0F
:10423E0009C5D9F40AC5DAF40DC5DFF4094A0A2A0C
:10424E000706D8A00806072806E10828D8A432EFEA
:10425E0021F034EF21F017EF21F012000101018F50
:10426E00040E4EEC20F00009D8A440EF21F042EFEE
:10427E0021F05AEF21F0000E01014C6F380E4D6FF8
:10428E00000E4E6F000E4F6F600E006F970E016F97
:10429E00100E026F38EC22F0EBEC21F0D1EC20F096
:1042AE00060E4EEC20F01200046E000E036E040E8D
:1042BE00046064EF21F066EF21F078EF21F00450F6
:1042CE000C0D500EF324D96E010EF420DA6E01019E
:1042DE00DFAE74EF21F076EF21F078EF21F0010ED2
:1042EE00036E03501200000E066E000E076E89EF6D
:1042FE0021F007500324D96E000E0420DA6EDF5031
:10430E000626072A0550075CD8A090EF21F092EF01
:10431E0021F080EF21F006501200FAC401F5FBC423
:10432E0002F59EAC9DEF21F09FEF21F0A8EF21F05A
:10433E00AEACA4EF21F0A6EF21F0A8EF21F03EECF9
:10434E001DF002C5FBF401C5FAF4110001EE60F197
:10435E00180EEE6AE806FDE101EE2EF11C0EEE6A75
:10436E00E806FDE10401080E5D6F000E5E6F000EA3
:10437E005F6F00019BEF1CF0000E0001606F000EDE
:10438E00616F000E626F000E636F000E646F000EA1
:10439E00656F000E666F000E676F000E686F12007D
:1043AE00066E000E056E06505BEC21F00009D8B4C7
:1043BE00E3EF21F0E5EF21F0E9EF21F0065016ECE6
:1043CE0022F0056E05501200100E0101506F040E02
:1043DE00516F600E526F010E536F900E5C6F040E94
:1043EE005D6F600E5E6F050E5F6F120093EC22F034
:1043FE00C3EC21F092EC20F0AAEC1FF00AEC22F0B4
:10440E0035EC21F01200600E0001AD6F000EAF6FA3
:10441E00000EB36F020EB16F000EB06F1200036E7E
:10442E0003500C0D540EF324D96E010EF420DA6EE7
:10443E00DF50010B12000301F3A128EF22F02BEF46
:10444E0022F0010E2CEF22F0000E12000301EB51B0
:10445E00066E056AEA510524036E000E0620046EF0
:10446E001200010E0101046F010E056F040E066F9E
:10447E00000E076F120003C52EF504C52FF505C5F6
:10448E0030F5120003C531F504C532F505C533F517
:10449E00120003C534F504C535F505C536F5120011
:1044AE0003C53DF504C53EF505C53FF5120003C530
:1044BE003AF504C53BF505C53CF5120003C537F5C5
:1044CE0004C538F505C539F5120003C54DF504C50B
:1044DE004EF505C54FF5120003C54AF504C54BF55B
:1044EE0005C54CF5120003C550F504C551F505C5BB
:1044FE0052F51200036E03C5ECF30301F38FF38143
:10450E00120001010239E832070B1200036E03C5D7
:10451E00FBF3120004501200D69A12001200120081
:08452E0012001200120012003D
:020000040030CA
:10000000ECEEF7FF9FFFFFFFFFFFFFFFFFFFFFFF8C
:03001000FFFFFFF0
:08001700FFFFFFFFFFFFFFFFE9
:00000001FF
