:040000000DEF00F010
:040008002AEF2AF0C1
:06001800FF00A0EF28F03C
:0D3700000000010203040506070850010047
:10370E00807F7F7F7F7F7F7F7F7F7F7F7F7F7F7FBA
:10371E007F7F7F7F7F7F7F7F7F7F7F7F7F7F7F7FAB
:10372E007F7F7F7F7F7F7F7F7F7F7F7F7F7F7F7F9B
:10373E007F7F7F7F7F7F7F7F7F7F7F7F7F7F7F7F8B
:10374E007F7F7F7F7F7F7F7F7F7F7F7F7F7F7F7F7B
:10375E007F7F7F7F7F7F7F7F7F7F7F7F7F7F7F7F6B
:10376E007F7F7F7F7F7F7F7F7F7F7F7F7F7F7F7F5B
:10377E007F7F7F7F7F7F7F7F7F7F7F7F7F7F7F7F4B
:10378E007F7F7F7F7F7F7F7F7F7F7F7F7F7F7F7F3B
:10379E007F7F7F7F7F7F7F7F7F7F7F7F7F7F7F7F2B
:1037AE007F7F7F7F7F7F7F7F7F7F7F7F7F7F7F7F1B
:1037BE007F7F7F7F7F7F7F7F7F7F7F7F7F7F7F7F0B
:1037CE007F7F7F7F7F7F7F7F7F7F7F7F7F7F7F7FFB
:1037DE007F7F7F7E7E7E7E7D7D7D7D7D7C7C7C7C05
:1037EE007B7B7B7B7B7A7A7A7A7A7979797979782D
:1037FE007878787877777777777676767676757550
:10380E00757575747474747474737373737373726F
:10381E00727272727171717171717070707070708C
:10382E006F6F6F6F6F6F6F6E6E6E6E6E6E6D6D6DA6
:10383E006D6D6D6D6C6C6C6C6C6C6B6B6B6B6B6BBC
:10384E006B6A6A6A6A6A6A6A6969696969696969D1
:10385E0068686868686868676767676767676766E4
:10386E0066666666666666656565656565656564F4
:10387E006464646464646463636363636363636303
:10388E006262626262626262616161616161616112
:10389E00616060606060606060605F5F5F5F5F5F1F
:1038AE005F5F5F5F5E5E5E5E5E5E5E5E5E5D5D5D29
:1038BE005D5D5D5D5D5D5D5C5C5C5C5C5C5C5C5C33
:1038CE005C5B5B5B5B5B5B5B5B5B5B5B5A5A5A5A3D
:1038DE005A5A5A5A5A5A5A59595959595959595943
:1038EE00595958585858585858585858585757574B
:1038FE005757575757575757565656565656565652
:10390E005656565655555555555555555555555555
:10391E00545454545454545454545454545353535C
:10392E005353535353535353535252525252525260
:10393E005252525252525251515151515151515162
:10394E005151515150505050505050505050505065
:10395E0050504F4F4F4F4F4F4F4F4F4F4F4F4F4F67
:10396E004E4E4E4E4E4E4E4E4E4E4E4E4E4E4D4D6B
:10397E004D4D4D4D4D4D4D4D4D4D4D4D4D4C4C4C6C
:10398E004C4C4C4C4C4C4C4C4C4C4C4C4C4B4B4B6C
:10399E004B4B4B4B4B4B4B4B4B4B4B4B4A4A4A4A6D
:1039AE004A4A4A4A4A4A4A4A4A4A4A4A494949496D
:1039BE00494949494949494949494949494848486C
:1039CE00484848484848484848484848484747476C
:1039DE00474747474747474747474747474747466A
:1039EE004646464646464646464646464646464669
:1039FE004545454545454545454545454545454569
:103A0E004545454444444444444444444444444465
:103A1E004444444444434343434343434343434363
:103A2E004343434343434343424242424242424260
:103A3E00424242424242424242424242414141415C
:103A4E004141414141414141414141414141414059
:103A5E004040404040404040404040404040404058
:103A6E00404040403F3F3F3F3F3F3F3F3F3F3F3F54
:103A7E003F3F3F3F3F3F3F3F3F3E3E3E3E3E3E3E4F
:103A8E003E3E3E3E3E3E3E3E3E3E3E3E3E3E3D3D4A
:103A9E003D3D3D3D3D3D3D3D3D3D3D3D3D3D3D3D48
:103AAE003D3D3D3D3C3C3C3C3C3C3C3C3C3C3C3C44
:103ABE003C3C3C3C3C3C3C3C3C3C3B3B3B3B3B3B3E
:103ACE003B3B3B3B3B3B3B3B3B3B3B3B3B3B3B3B38
:103ADE003B3A3A3A3A3A3A3A3A3A3A3A3A3A3A3A37
:103AEE003A3A3A3A3A3A3A3A3A393939393939392F
:103AFE003939393939393939393939393939393928
:103B0E003938383838383838383838383838383826
:103B1E00383838383838383838373737373737371E
:103B2E003737373737373737373737373737373717
:103B3E003737363636363636363636363636363615
:103B4E00363636363636363636363636353535350B
:103B5E003535353535353535353535353535353507
:103B6E003535353535353434343434343434343401
:103B7E0034343434343434343434343434343434F7
:103B8E0033333333333333333333333333333333F7
:103B9E0033333333333333333333333332323232EB
:103BAE0032323232323232323232323232323232E7
:103BBE0032323232323232313131313131313131E0
:103BCE0031313131313131313131313131313131D7
:103BDE0031313131303030303030303030303030D3
:103BEE0030303030303030303030303030303030C7
:103BFE00302F2F2F2F2F2F2F2F2F2F2F2F2F2F2FC6
:103C0E002F2F2F2F2F2F2F2F2F2F2F2F2F2F2E2EB8
:103C1E002E2E2E2E2E2E2E2E2E2E2E2E2E2E2E2EB6
:103C2E002E2E2E2E2E2E2E2E2E2E2E2E2D2D2D2DAA
:103C3E002D2D2D2D2D2D2D2D2D2D2D2D2D2D2D2DA6
:103C4E002D2D2D2D2D2D2D2D2D2D2C2C2C2C2C2C9C
:103C5E002C2C2C2C2C2C2C2C2C2C2C2C2C2C2C2C96
:103C6E002C2C2C2C2C2C2C2C2C2B2B2B2B2B2B2B8D
:103C7E002B2B2B2B2B2B2B2B2B2B2B2B2B2B2B2B86
:103C8E002B2B2B2B2B2B2B2B2B2A2A2A2A2A2A2A7D
:103C9E002A2A2A2A2A2A2A2A2A2A2A2A2A2A2A2A76
:103CAE002A2A2A2A2A2A2A2A2A292929292929296D
:103CBE002929292929292929292929292929292966
:103CCE00292929292929292929292828282828285C
:103CDE002828282828282828282828282828282856
:103CEE00282828282828282828282827272727274B
:103CFE002727272727272727272727272727272746
:103D0E002727272727272727272727272726262638
:103D1E002626262626262626262626262626262635
:103D2E002626262626262626262626262626262526
:103D3E002525252525252525252525252525252525
:103D4E002525252525252525252525252525252515
:103D5E002525242424242424242424242424242413
:103D6E002424242424242424242424242424242405
:103D7E002424242424232323232323232323232300
:103D8E0023232323232323232323232323232323F5
:103D9E0023232323232323232322222222222222EC
:103DAE0022222222222222222222222222222222E5
:103DBE0022222222222222222222222222212121D8
:103DCE0021212121212121212121212121212121D5
:103DDE0021212121212121212121212121212121C5
:103DEE0021202020202020202020202020202020C4
:103DFE0020202020202020202020202020202020B5
:103E0E002020202020201F1F1F1F1F1F1F1F1F1FAE
:103E1E001F1F1F1F1F1F1F1F1F1F1F1F1F1F1F1FA4
:103E2E001F1F1F1F1F1F1F1F1F1F1F1F1E1E1E1E98
:103E3E001E1E1E1E1E1E1E1E1E1E1E1E1E1E1E1E94
:103E4E001E1E1E1E1E1E1E1E1E1E1E1E1E1E1E1E84
:103E5E001E1E1D1D1D1D1D1D1D1D1D1D1D1D1D1D82
:103E6E001D1D1D1D1D1D1D1D1D1D1D1D1D1D1D1D74
:103E7E001D1D1D1D1D1D1D1D1C1C1C1C1C1C1C1C6C
:103E8E001C1C1C1C1C1C1C1C1C1C1C1C1C1C1C1C64
:103E9E001C1C1C1C1C1C1C1C1C1C1C1C1C1C1C1B55
:103EAE001B1B1B1B1B1B1B1B1B1B1B1B1B1B1B1B54
:103EBE001B1B1B1B1B1B1B1B1B1B1B1B1B1B1B1B44
:103ECE001B1B1B1B1B1B1A1A1A1A1A1A1A1A1A1A3E
:103EDE001A1A1A1A1A1A1A1A1A1A1A1A1A1A1A1A34
:103EEE001A1A1A1A1A1A1A1A1A1A1A1A1A19191927
:103EFE001919191919191919191919191919191924
:103F0E001919191919191919191919191919191913
:103F1E00191919191818181818181818181818180F
:103F2E001818181818181818181818181818181803
:103F3E0018181818181818181818181817171717F7
:103F4E0017171717171717171717171717171717F3
:103F5E0017171717171717171717171717171717E3
:103F6E0017171717161616161616161616161616DF
:103F7E0016161616161616161616161616161616D3
:103F8E0016161616161616161616161615151515C7
:103F9E0015151515151515151515151515151515C3
:103FAE0015151515151515151515151515151515B3
:103FBE0015151515151414141414141414141414AE
:103FCE0014141414141414141414141414141414A3
:103FDE001414141414141414141414141413131396
:103FEE001313131313131313131313131313131393
:103FFE001313131313131313131313131313131383
:10400E00131313131313121212121212121212127C
:10401E001212121212121212121212121212121272
:10402E001212121212121212121212121212111164
:10403E001111111111111111111111111111111162
:10404E001111111111111111111111111111111152
:10405E00111111111111111010101010101010104B
:10406E001010101010101010101010101010101042
:10407E001010101010101010101010101010101032
:10408E000F0F0F0F0F0F0F0F0F0F0F0F0F0F0F0F32
:10409E000F0F0F0F0F0F0F0F0F0F0F0F0F0F0F0F22
:1040AE000F0F0F0F0F0F0F0F0E0E0E0E0E0E0E0E1A
:1040BE000E0E0E0E0E0E0E0E0E0E0E0E0E0E0E0E12
:1040CE000E0E0E0E0E0E0E0E0E0E0E0E0E0E0E0E02
:1040DE000E0D0D0D0D0D0D0D0D0D0D0D0D0D0D0D01
:1040EE000D0D0D0D0D0D0D0D0D0D0D0D0D0D0D0DF2
:1040FE000D0D0D0D0D0D0D0D0D0C0C0C0C0C0C0CE9
:10410E000C0C0C0C0C0C0C0C0C0C0C0C0C0C0C0CE1
:10411E000C0C0C0C0C0C0C0C0C0C0C0C0C0C0C0CD1
:10412E000C0C0B0B0B0B0B0B0B0B0B0B0B0B0B0BCF
:10413E000B0B0B0B0B0B0B0B0B0B0B0B0B0B0B0BC1
:10414E000B0B0B0B0B0B0B0B0B0B0A0A0A0A0A0AB7
:10415E000A0A0A0A0A0A0A0A0A0A0A0A0A0A0A0AB1
:10416E000A0A0A0A0A0A0A0A0A0A0A0A0A0A0A0AA1
:10417E000A0A09090909090909090909090909099F
:10418E000909090909090909090909090909090991
:10419E000909090909090909090908080808080887
:1041AE000808080808080808080808080808080881
:1041BE000808080808080808080808080808080871
:1041CE000807070707070707070707070707070770
:1041DE000707070707070707070707070707070761
:1041EE000707070707070707060606060606060659
:1041FE000606060606060606060606060606060651
:10420E000606060606060606060606060606060541
:10421E000505050505050505050505050505050540
:10422E000505050505050505050505050505050530
:10423E00050505050505040404040404040404042A
:10424E000404040404040404040404040404040420
:10425E000404040404040404040404040303030314
:10426E000303030303030303030303030303030310
:10427E000303030303030303030303030303030300
:10428E0003020202020202020202020202020202FF
:10429E0002020202020202020202020202020202F0
:1042AE0002020202020202010101010101010101E9
:1042BE0001010101010101010101010101010101E0
:1042CE0001010101010101010101010000000000D5
:1042DE0000000000000000000000000000000000D0
:1042EE00000000000000000000000000000000FFC1
:1042FE00FFFFFFFFFFFFFFFFFFFFFFFFFFFFFFFFC0
:10430E00FFFFFFFFFFFFFFFFFFFFFFFFFFFFFFFFAF
:10431E00FFFFFFFEFEFEFEFEFEFEFEFEFEFEFEFEAC
:10432E00FEFEFEFEFEFEFEFEFEFEFEFEFEFEFEFE9F
:10433E00FEFEFEFEFEFEFDFDFDFDFDFDFDFDFDFD99
:10434E00FDFDFDFDFDFDFDFDFDFDFDFDFDFDFDFD8F
:10435E00FDFDFDFDFDFDFDFDFCFCFCFCFCFCFCFC87
:10436E00FCFCFCFCFCFCFCFCFCFCFCFCFCFCFCFC7F
:10437E00FCFCFCFCFCFCFCFCFCFCFBFBFBFBFBFB75
:10438E00FBFBFBFBFBFBFBFBFBFBFBFBFBFBFBFB6F
:10439E00FBFBFBFBFBFBFBFBFBFBFBFAFAFAFAFA64
:1043AE00FAFAFAFAFAFAFAFAFAFAFAFAFAFAFAFA5F
:1043BE00FAFAFAFAFAFAFAFAFAFAFAFAF9F9F9F953
:1043CE00F9F9F9F9F9F9F9F9F9F9F9F9F9F9F9F94F
:1043DE00F9F9F9F9F9F9F9F9F9F9F9F9F8F8F8F843
:1043EE00F8F8F8F8F8F8F8F8F8F8F8F8F8F8F8F83F
:1043FE00F8F8F8F8F8F8F8F8F8F8F8F7F7F7F7F734
:10440E00F7F7F7F7F7F7F7F7F7F7F7F7F7F7F7F72E
:10441E00F7F7F7F7F7F7F7F7F7F6F6F6F6F6F6F625
:10442E00F6F6F6F6F6F6F6F6F6F6F6F6F6F6F6F61E
:10443E00F6F6F6F6F6F6F6F5F5F5F5F5F5F5F5F517
:10444E00F5F5F5F5F5F5F5F5F5F5F5F5F5F5F5F50E
:10445E00F5F5F5F5F4F4F4F4F4F4F4F4F4F4F4F40A
:10446E00F4F4F4F4F4F4F4F4F4F4F4F4F4F4F4F4FE
:10447E00F3F3F3F3F3F3F3F3F3F3F3F3F3F3F3F3FE
:10448E00F3F3F3F3F3F3F3F3F3F3F3F3F2F2F2F2F2
:10449E00F2F2F2F2F2F2F2F2F2F2F2F2F2F2F2F2EE
:1044AE00F2F2F2F2F2F2F1F1F1F1F1F1F1F1F1F1E8
:1044BE00F1F1F1F1F1F1F1F1F1F1F1F1F1F1F1F1DE
:1044CE00F0F0F0F0F0F0F0F0F0F0F0F0F0F0F0F0DE
:1044DE00F0F0F0F0F0F0F0F0F0F0EFEFEFEFEFEFD4
:1044EE00EFEFEFEFEFEFEFEFEFEFEFEFEFEFEFEFCE
:1044FE00EFEFEEEEEEEEEEEEEEEEEEEEEEEEEEEECC
:10450E00EEEEEEEEEEEEEEEEEEEEEDEDEDEDEDEDC3
:10451E00EDEDEDEDEDEDEDEDEDEDEDEDEDEDEDEDBD
:10452E00EDECECECECECECECECECECECECECECECBC
:10453E00ECECECECECECECEBEBEBEBEBEBEBEBEBB6
:10454E00EBEBEBEBEBEBEBEBEBEBEBEBEBEAEAEAB0
:10455E00EAEAEAEAEAEAEAEAEAEAEAEAEAEAEAEAAD
:10456E00EAEAE9E9E9E9E9E9E9E9E9E9E9E9E9E9AB
:10457E00E9E9E9E9E9E9E8E8E8E8E8E8E8E8E8E8A7
:10458E00E8E8E8E8E8E8E8E8E8E7E7E7E7E7E7E7A4
:10459E00E7E7E7E7E7E7E7E7E7E7E7E7E6E6E6E6A1
:1045AE00E6E6E6E6E6E6E6E6E6E6E6E6E6E5E5E5A0
:1045BE00E5E5E5E5E5E5E5E5E5E5E5E5E5E5E5E49E
:1045CE00E4E4E4E4E4E4E4E4E4E4E4E4E4E4E4E39E
:1045DE00E3E3E3E3E3E3E3E3E3E3E3E3E3E3E3E29E
:1045EE00E2E2E2E2E2E2E2E2E2E2E2E2E2E2E1E19F
:1045FE00E1E1E1E1E1E1E1E1E1E1E1E1E1E0E0E0A0
:10460E00E0E0E0E0E0E0E0E0E0E0E0DFDFDFDFDFA1
:10461E00DFDFDFDFDFDFDFDFDEDEDEDEDEDEDEDEA4
:10462E00DEDEDEDEDEDDDDDDDDDDDDDDDDDDDDDDA7
:10463E00DDDDDCDCDCDCDCDCDCDCDCDCDCDBDBDBAD
:10464E00DBDBDBDBDBDBDBDBDADADADADADADADAB4
:10465E00DADADAD9D9D9D9D9D9D9D9D9D9D8D8D8BC
:10466E00D8D8D8D8D8D8D8D7D7D7D7D7D7D7D7D7C5
:10467E00D6D6D6D6D6D6D6D6D6D5D5D5D5D5D5D5D3
:10468E00D5D4D4D4D4D4D4D4D4D3D3D3D3D3D3D3E2
:10469E00D2D2D2D2D2D2D2D1D1D1D1D1D1D1D0D0F7
:1046AE00D0D0D0D0CFCFCFCFCFCFCECECECECECE0E
:1046BE00CDCDCDCDCDCCCCCCCCCCCBCBCBCBCBCA2E
:1046CE00CACACACAC9C9C9C9C8C8C8C8C7C7C7C655
:1046DE00C6C6C6C5C5C5C4C4C4C3C3C3C2C2C2C18F
:1046EE00C1C0C0C0BFBFBEBEBDBDBCBCBBBABAB9E7
:1046FE00B8B8B7B6B5B4B3B2B0AFADABA9A6A29CBD
:10470E0010C5D9F411C5DAF4DEC415F5DEC416F5FC
:10471E00DEC417F5DEC418F520EE04F01050D926CD
:10472E001150DA22DFA09EEF23F0A0EF23F0D9EF95
:10473E0023F020EE01F00E50D9260F50DA22153854
:10474E00E842F80BF80BDF6E050E126ED890183299
:10475E00173216321532122EADEF23F020EE02F084
:10476E000E50D9260F50DA2215C5DFF416C515F5F1
:10477E0017C516F518C517F5186A20EE03F00E507A
:10478E00D9260F50DA2215501F0BDF6E050E126E52
:10479E00D8901832173216321532122ECFEF23F070
:1047AE00F0EF23F020EE03F00E50D9260F50DA2250
:1047BE00DF6A10EE02F00E50E1260F50E222DFC447
:1047CE00E7F420EE01F00E50D9260F50DA22E7C49E
:1047DE00DFF40EC5D9F40FC5DAF415C5DFF416C52E
:1047EE0015F517C516F518C517F5186A15C512F57E
:1047FE00070E121620EE01F00E50D9260F50DA22B7
:10480E001250DF1220EE04F01050D9261150DA2289
:10481E00DF30E8320F0B146E20EE04F01050D92664
:10482E001150DA22DFB01EEF24F022EF24F0126ACC
:10483E00122A23EF24F0126A1238F00B141220EE13
:10484E0004F01050D9261150DA22DFB231EF24F0E5
:10485E0035EF24F0200E126E36EF24F0126A12504D
:10486E00141220EE04F01050D9261150DA22DFBEB9
:10487E0043EF24F047EF24F0400E126E48EF24F081
:10488E00126A1250141220EE04F01050D926115054
:10489E00DA22DFBC55EF24F059EF24F0800E126EB1
:1048AE005AEF24F0126A1250141220EE04F00E5039
:1048BE00D9260F50DA2214C5DFF420EE04F0105082
:1048CE00D9261150DA22DFB26FEF24F071EF24F007
:1048DE009AEF24F0080E0E24036E000E0F20046EC5
:1048EE0020EE05F01050D9261150DA22DEC405F55F
:1048FE00DDC406F520EE04F01050D9261150DA2250
:10490E00DF30E8320F0B126E1250010F136E13C50B
:10491E00F6F4370EF76E000EF86E0800F550076EBF
:10492E00086AA3EC29F012007DEC2AF0000E21ECAF
:10493E002BF0000E326E780E3224D96EDA6A050E26
:10494E00DA22DF5015EC2BF0AEEC2AF00009D8B4C9
:10495E00B3EF24F0B5EF24F0ABEF24F0B9EC2AF06E
:10496E0003C530F504C531F530C503F531C504F581
:10497E00CEEC2AF02E6E600E3224D96EDA6A050E57
:10498E00DA222EC5DFF4322A170E3264D1EF24F06C
:10499E00D3EF24F0A2EF24F025EF25F0060EE4EC81
:1049AE0028F03BEF25F0000E57EC2AF0E806D8A4CD
:1049BE00E3EF24F0E5EF24F03BEF25F0600E116EEF
:1049CE00050E126E46EC25F021EE33F1060EEBC409
:1049DE00DBF4E806FCE2330E196E050E1A6E000EBD
:1049EE0058EC28F0000E57EC2AF00009D8B402EF6C
:1049FE0025F004EF25F0F9EF24F0600E036E050E9E
:104A0E00046E7CEC26F021EE33F1060EEBC4DBF4E3
:104A1E00E806FCE2330E196E050E1A6E000E58EC07
:104A2E0028F0000E57EC2AF00009D8B421EF25F03B
:104A3E0023EF25F018EF25F03BEF25F01CEC2BF0C3
:104A4E002E6E2F6A2F50000AD8B430EF25F03BEFB0
:104A5E0025F02E50040AD8B4D5EF24F0020AD8B4AB
:104A6E00DAEF24F03BEF25F0820E2E6EDE0EE82EEE
:104A7E00FED72E2EFCD7A0EF24F00DEF00F07F0E08
:104A8E00236E000E216E800E246E000E226E000E1E
:104A9E001C6E000E1D6E000E1E6E000E1F6E000EA2
:104AAE00266E26501124D96E000E1220DA6EDF50BB
:104ABE00256E2550800A186E2350800A185CD8B0D7
:104ACE006BEF25F06DEF25F071EF25F025C523F581
:104ADE0026C521F52450800A186E2550800A185CD0
:104AEE00D8B07CEF25F07EEF25F082EF25F025C5BE
:104AFE0024F526C522F52550186E000E18BEFF0EA1
:104B0E00196E1A6E1B6E18501C2619501D221A5043
:104B1E001E221B501F22262A170E266499EF25F0FF
:104B2E009BEF25F058EF25F01CC503F51DC504F5C8
:104B3E001EC505F51FC506F5180E076E000E086E8C
:104B4E00000E096E000E0A6E0BEC27F00350206E5D
:104B5E005DC54EF523C54FF524C550F520C551F55D
:104B6E00180E526E22C553F521C554F54E0E036E26
:104B7E00050E046E070E056E10EC2AF0410F556EF1
:104B8E00800E5D10276EF30E286E390E296E180EEC
:104B9E002A6E2B9C2B9E2B50C30B20092B6E2B9217
:104BAE002B804E0E2C6E050E2D6E21EE27F101EE92
:104BBE0011F1060EDBC4EBF4E806FCE21200010173
:104BCE001DAFECEF25F0EEEF25F0FDEF25F002D84E
:104BDE00FBEF25F00500FA6E4950FD6E4A50FE6E51
:104BEE004B50FF6EFA50120001011D9F1DAD02EFDA
:104BFE0026F004EF26F013EF26F002D811EF26F080
:104C0E000500FA6E4650FD6E4750FE6E4850FF6E20
:104C1E00FA50120001011D9D1DAB18EF26F01AEF80
:104C2E0026F029EF26F002D827EF26F00500FA6EBF
:104C3E004350FD6E4450FE6E4550FF6EFA5012000A
:104C4E0001011D9B1CA72EEF26F030EF26F03FEF43
:104C5E0026F002D83DEF26F00500FA6E4050FD6EAC
:104C6E004150FE6E4250FF6EFA50120001011C9729
:104C7E001DA944EF26F046EF26F055EF26F002D898
:104C8E0053EF26F00500FA6E3D50FD6E3E50FE6E5F
:104C9E003F50FF6EFA50120001011D991DA55AEFEB
:104CAE0026F05CEF26F07AEF26F002D869EF26F0B8
:104CBE000500FA6E3A50FD6E3B50FE6E3C50FF6E94
:104CCE00FA501200010154A96FEF26F071EF26F091
:104CDE0072EF26F0549960A977EF26F079EF26F05F
:104CEE007AEF26F06099AE9C12007F0E126E000EC7
:104CFE000E6E800E136E000E0F6E000E0C6E000EFA
:104D0E00156E15500324D96E000E0420DA6EDF5096
:104D1E00146E1450800A0A6E1250800A0A5CD8B0C3
:104D2E009BEF26F09DEF26F0A1EF26F014C512F5AD
:104D3E0015C50EF51350800A0A6E1450800A0A5CCF
:104D4E00D8B0ACEF26F0AEEF26F0B2EF26F014C5D9
:104D5E0013F515C50FF514500C26152A170E1564EC
:104D6E00BBEF26F0BDEF26F088EF26F05D50500D1C
:104D7E00F3C40AF5F4C40BF54C500A24106E000E61
:104D8E000B20116E4C500324D96E000E0420DA6EE7
:104D9E00DF500D6E11504E6E10C54FF50DC550F50E
:104DAE00180E516E12C552F513C553F50FC554F5B5
:104DBE000EC555F5800E5D10166EF30E176E380E7D
:104DCE00186E180E196E1A9C1A9E1A50C30B2009D3
:104DDE001A6E1A921A804E0E1B6E050E1C6E4C2AFF
:104DEE00170E4C64FDEF26F0FFEF26F001EF27F0D3
:104DFE00000E4C6E21EE16F101EE03F1060EDBC431
:104E0E00EBF4E806FCE21200000E0C6E0ABE14EF84
:104E1E0027F012EF27F01EEF27F00A1E091E081EBC
:104E2E00076C000E082209220A22010E0C6E06BE25
:104E3E0025EF27F023EF27F02FEF27F0061E051E94
:104E4E00041E036C000E042205220622010E0C1A0B
:104E5E00000E0D6E000E0E6E000E0F6E000E106E1A
:104E6E000750081009100A10D8B440EF27F042EF8F
:104E7E0027F078EF27F0010E0B6E4CEF27F0D8904D
:104E8E000736083609360A360B2A0AAE51EF27F0D6
:104E9E0053EF27F046EF27F0D8900D360E360F362B
:104EAE0010360750035C08500458095005580A5034
:104EBE000658D8A065EF27F067EF27F070EF27F0C0
:104ECE000750035E0850045A0950055A0A50065AF4
:104EDE000D80D8900A320932083207320B2E53EF6A
:104EEE0027F00C50D8B47EEF27F080EF27F088EF34
:104EFE0027F0101E0F1E0E1E0D6C000E0E220F221E
:104F0E0010220DC503F50EC504F50FC505F510C528
:104F1E0006F51200096E000E0A6E20EE04F0045023
:104F2E00D9260550DA22DF500B6E0BAEA1EF27F01B
:104F3E00A3EF27F0AEEF27F01CEC2BF0060AD8A457
:104F4E00ABEF27F0ADEF27F0AEEF27F00A820B3074
:104F5E00E8320F0B066E080E0664B8EF27F0BAEFB4
:104F6E0027F0CCEF27F00BACBFEF27F0C1EF27F007
:104F7E00CBEF27F01CEC2BF0060AD8A4C9EF27F0D4
:104F8E00CBEF27F0CCEF27F00A80090EF66E370E26
:104F9E00F76E000EF86E0800F5C406F50B30E83219
:104FAE000F0B076E0750010F086E08C5F6F4370E8B
:104FBE00F76E000EF86E0800F550065CD8B0EAEFFA
:104FCE0027F0ECEF27F0EDEF27F00A800950A2EC66
:104FDE002AF00009D8A4F6EF27F0F8EF27F0FAEF41
:104FEE0027F0030E0A120A501200000E0301F96F89
:104FFE00000EFA6F000ED86F000EFB6F000ED96F09
:10500E00000EDA6F000EDB6F000EDC6F000EDF6F2E
:10501E00000EE06F000EE36F000EE46F000EE56F02
:10502E00000EE66F000EE76F000EEA6F000EEB6FDC
:10503E00000EEC6F000EEE6F000EEF6F000EF06FB5
:10504E00000EF16F000EF26F000EF36F000EF46F94
:10505E00100EF56F000EF66F000EF76F000EF86F64
:10506E00000EFC6FAF94AF96B090000E036E000E64
:10507E00046E000E056E0EEC2BF0000E036E000E8D
:10508E00046E000E056E00EC2BF0000E036E000E8B
:10509E00046E000E056E07EC2BF0840E0301F36F09
:1050AE0012001E6E1E50F1EC29F00009D8B462EF0A
:1050BE0028F064EF28F09FEF28F019C504F51AC503
:1050CE0005F51E5091EC27F01B6E1B50D8A472EF05
:1050DE0028F074EF28F09FEF28F01E500C0D580E9C
:1050EE00F324D96E010EF420DA6EDEC41CF5DDC495
:1050FE001DF51C501D10D8B487EF28F089EF28F04D
:10510E009FEF28F01CC50EF51DC50FF519C510F53E
:10511E001AC511F587EC23F01E500C0D510EF32419
:10512E00D96E010EF420DA6E030EDF129FEF28F017
:10513E0012000E0EF66E370EF76E000EF86E01EEC2
:10514E0093F114EE00F00900F5C4EEF4E550E150D1
:10515E00FAE1E250F8E1140EF66E550EF76E000EFF
:10516E00F86E01EE78F110EE18F00900F5C4EEF4C9
:10517E00E550E150FAE14E0EF66E560EF76E000E49
:10518E00F86E0900F5C45CF50900F5C45DF501EE95
:10519E0060F1180EEE6AE806FDE101EE3AF11C0E22
:1051AE00EE6AE806FDE10401080E5D6F000E5E6F0B
:1051BE00000E5F6F00019BEF24F0056E000E046E73
:1051CE001CEC2BF0036E040E0318D8B4F1EF28F08C
:1051DE00F3EF28F004EF29F00504D8B4F9EF28F026
:1051EE00FBEF28F004EF29F0040E0518D8A402EF07
:1051FE0029F004EF29F024EF29F0010103510518DD
:10520E00F80B0518036F17EF29F01DA911EF29F000
:10521E0013EF29F017EF29F0020E046E26EF29F096
:10522E000239E832070B0518D8A420EF29F022EF37
:10523E0029F00CEF29F026EF29F0010E046E045030
:10524E001200000EC26E000EC16E000EBE6E000E7B
:10525E00BF6E000EC06E070ECA6EC668C768C868FD
:10526E00FD0EC96EC00E0401186F10690869070E95
:10527E00206F00693C0E196F000E216F000E096F32
:10528E00000E016F000E116F000E226F000E026FE6
:10529E00000E0A6F000E126F000E1A6F03690B6973
:1052AE0013691B69070E236F04690C6914691C6965
:1052BE000F0E246F180E02013D6F460E1A6F12006C
:1052CE00560E036E560E046E000E056EEBEC2AF0B3
:1052DE00580E036E560E046E000E056EF2EC2AF09A
:1052EE005A0E036E560E046E000E056EF9EC2AF081
:1052FE00540E036E560E046E000E056EE4EC2AF08C
:10530E00520E036E560E046E000E056EDDEC2AF084
:10531E00500E036E560E046E000E056ED6EC2AF07D
:10532E00AE9C000E01011C6F000E1D6F080E1E6F4D
:10533E00FC0E1F6F9E8C120005C50BF506C50CF5F5
:10534E0003C509F504C50AF5BDEF29F00BC5D9F45F
:10535E000CC5DAF4DF500D6E0B4A0C2A09C5D9F4D0
:10536E000AC5DAF40DC5DFF4094A0A2A0706D8A0E1
:10537E000806072806E10828D8A4C8EF29F0CAEFC6
:10538E0029F0ADEF29F012000101018F040EE4ECBB
:10539E0028F00009D8A4D6EF29F0D8EF29F0F0EFC5
:1053AE0029F0000E01014C6F380E4D6F000E4E6F3E
:1053BE00000E4F6F600E006F970E016F100E026F92
:1053CE00C4EC2AF06BEC2AF067EC29F0060EE4EC44
:1053DE0028F01200046E000E036E040E0460FAEF45
:1053EE0029F0FCEF29F00EEF2AF004500C0D500EB0
:1053FE00F324D96E010EF420DA6E0101DFAE0AEF4E
:10540E002AF00CEF2AF00EEF2AF0010E036E035075
:10541E001200000E066E000E076E1FEF2AF00750E8
:10542E000324D96E000E0420DA6EDF500626072AFA
:10543E000550075CD8A026EF2AF028EF2AF016EFC9
:10544E002AF006501200FAC401F5FBC402F59EAC18
:10545E0033EF2AF035EF2AF03EEF2AF0AEAC3AEFFA
:10546E002AF03CEF2AF03EEF2AF0E6EC25F002C5DA
:10547E00FBF401C5FAF41100000E0001606F000E7E
:10548E00616F000E626F000E636F000E646F000E90
:10549E00656F000E666F000E676F000E686F12006C
:1054AE00066E000E056E0650F1EC29F00009D8B418
:1054BE0063EF2AF065EF2AF069EF2AF00650A2ECAE
:1054CE002AF0056E05501200100E0101506F040EE9
:1054DE00516F600E526F010E536F900E5C6F040E83
:1054EE005D6F600E5E6F050E5F6F120025EC2BF088
:1054FE0043EC2AF028EC29F0FCEC27F096EC2AF08D
:10550E00CBEC29F01200161700011415020312132A
:10551E000405101120211E1F08090C0D0A0B600E28
:10552E000001AD6F000EAF6F000EB36F020EB16FC4
:10553E00000EB06F1200036E03500C0D540EF324C8
:10554E00D96E010EF420DA6EDF50010B120003014A
:10555E00F3A1B4EF2AF0B7EF2AF0010EB8EF2AF05C
:10556E00000E12000301EB51066E056AEA51052486
:10557E00036E000E0620046E1200010E0101046F70
:10558E00010E056F040E066F000E076F1200930ECC
:10559E000324D96E050E0420DA6EDF50120003C507
:1055AE003AF504C53BF505C53CF5120003C53DF5BE
:1055BE0004C53EF505C53FF5120003C540F504C50B
:1055CE0041F505C542F5120003C549F504C54AF576
:1055DE0005C54BF5120003C546F504C547F505C5CF
:1055EE0048F5120003C543F504C544F505C545F558
:1055FE00120003C556F504C557F505C558F512003A
:10560E0003C590F504C591F505C592F5120003C5C5
:10561E0059F504C55AF505C55BF51200036E03C5B1
:10562E00ECF30301F38FF381120001010239E8322A
:10563E00070B1200036E03C5FBF31200D69A12007D
:0E564E000101120012001200120012001200E0
:020000040030CA
:10000000ECEEF7FF9FFFFFFFFFFFFFFFFFFFFFFF8C
:03001000FFFFFFF0
:08001700FFFFFFFFFFFFFFFFE9
:00000001FF
