:040000000DEF00F010
:0400080052EF2AF099
:06001800FF0093EF29F048
:0D3700000000010203040506070850010047
:10370E00807F7F7F7F7F7F7F7F7F7F7F7F7F7F7FBA
:10371E007F7F7F7F7F7F7F7F7F7F7F7F7F7F7F7FAB
:10372E007F7F7F7F7F7F7F7F7F7F7F7F7F7F7F7F9B
:10373E007F7F7F7F7F7F7F7F7F7F7F7F7F7F7F7F8B
:10374E007F7F7F7F7F7F7F7F7F7F7F7F7F7F7F7F7B
:10375E007F7F7F7F7F7F7F7F7F7F7F7F7F7F7F7F6B
:10376E007F7F7F7F7F7F7F7F7F7F7F7F7F7F7F7F5B
:10377E007F7F7F7F7F7F7F7F7F7F7F7F7F7F7F7F4B
:10378E007F7F7F7F7F7F7F7F7F7F7F7F7F7F7F7F3B
:10379E007F7F7F7F7F7F7F7F7F7F7F7F7F7F7F7F2B
:1037AE007F7F7F7F7F7F7F7F7F7F7F7F7F7F7F7F1B
:1037BE007F7F7F7F7F7F7F7F7F7F7F7F7F7F7F7F0B
:1037CE007F7F7F7F7F7F7F7F7F7F7F7F7F7F7F7FFB
:1037DE007F7F7F7E7E7E7E7D7D7D7D7D7C7C7C7C05
:1037EE007B7B7B7B7B7A7A7A7A7A7979797979782D
:1037FE007878787877777777777676767676757550
:10380E00757575747474747474737373737373726F
:10381E00727272727171717171717070707070708C
:10382E006F6F6F6F6F6F6F6E6E6E6E6E6E6D6D6DA6
:10383E006D6D6D6D6C6C6C6C6C6C6B6B6B6B6B6BBC
:10384E006B6A6A6A6A6A6A6A6969696969696969D1
:10385E0068686868686868676767676767676766E4
:10386E0066666666666666656565656565656564F4
:10387E006464646464646463636363636363636303
:10388E006262626262626262616161616161616112
:10389E00616060606060606060605F5F5F5F5F5F1F
:1038AE005F5F5F5F5E5E5E5E5E5E5E5E5E5D5D5D29
:1038BE005D5D5D5D5D5D5D5C5C5C5C5C5C5C5C5C33
:1038CE005C5B5B5B5B5B5B5B5B5B5B5B5A5A5A5A3D
:1038DE005A5A5A5A5A5A5A59595959595959595943
:1038EE00595958585858585858585858585757574B
:1038FE005757575757575757565656565656565652
:10390E005656565655555555555555555555555555
:10391E00545454545454545454545454545353535C
:10392E005353535353535353535252525252525260
:10393E005252525252525251515151515151515162
:10394E005151515150505050505050505050505065
:10395E0050504F4F4F4F4F4F4F4F4F4F4F4F4F4F67
:10396E004E4E4E4E4E4E4E4E4E4E4E4E4E4E4D4D6B
:10397E004D4D4D4D4D4D4D4D4D4D4D4D4D4C4C4C6C
:10398E004C4C4C4C4C4C4C4C4C4C4C4C4C4B4B4B6C
:10399E004B4B4B4B4B4B4B4B4B4B4B4B4A4A4A4A6D
:1039AE004A4A4A4A4A4A4A4A4A4A4A4A494949496D
:1039BE00494949494949494949494949494848486C
:1039CE00484848484848484848484848484747476C
:1039DE00474747474747474747474747474747466A
:1039EE004646464646464646464646464646464669
:1039FE004545454545454545454545454545454569
:103A0E004545454444444444444444444444444465
:103A1E004444444444434343434343434343434363
:103A2E004343434343434343424242424242424260
:103A3E00424242424242424242424242414141415C
:103A4E004141414141414141414141414141414059
:103A5E004040404040404040404040404040404058
:103A6E00404040403F3F3F3F3F3F3F3F3F3F3F3F54
:103A7E003F3F3F3F3F3F3F3F3F3E3E3E3E3E3E3E4F
:103A8E003E3E3E3E3E3E3E3E3E3E3E3E3E3E3D3D4A
:103A9E003D3D3D3D3D3D3D3D3D3D3D3D3D3D3D3D48
:103AAE003D3D3D3D3C3C3C3C3C3C3C3C3C3C3C3C44
:103ABE003C3C3C3C3C3C3C3C3C3C3B3B3B3B3B3B3E
:103ACE003B3B3B3B3B3B3B3B3B3B3B3B3B3B3B3B38
:103ADE003B3A3A3A3A3A3A3A3A3A3A3A3A3A3A3A37
:103AEE003A3A3A3A3A3A3A3A3A393939393939392F
:103AFE003939393939393939393939393939393928
:103B0E003938383838383838383838383838383826
:103B1E00383838383838383838373737373737371E
:103B2E003737373737373737373737373737373717
:103B3E003737363636363636363636363636363615
:103B4E00363636363636363636363636353535350B
:103B5E003535353535353535353535353535353507
:103B6E003535353535353434343434343434343401
:103B7E0034343434343434343434343434343434F7
:103B8E0033333333333333333333333333333333F7
:103B9E0033333333333333333333333332323232EB
:103BAE0032323232323232323232323232323232E7
:103BBE0032323232323232313131313131313131E0
:103BCE0031313131313131313131313131313131D7
:103BDE0031313131303030303030303030303030D3
:103BEE0030303030303030303030303030303030C7
:103BFE00302F2F2F2F2F2F2F2F2F2F2F2F2F2F2FC6
:103C0E002F2F2F2F2F2F2F2F2F2F2F2F2F2F2E2EB8
:103C1E002E2E2E2E2E2E2E2E2E2E2E2E2E2E2E2EB6
:103C2E002E2E2E2E2E2E2E2E2E2E2E2E2D2D2D2DAA
:103C3E002D2D2D2D2D2D2D2D2D2D2D2D2D2D2D2DA6
:103C4E002D2D2D2D2D2D2D2D2D2D2C2C2C2C2C2C9C
:103C5E002C2C2C2C2C2C2C2C2C2C2C2C2C2C2C2C96
:103C6E002C2C2C2C2C2C2C2C2C2B2B2B2B2B2B2B8D
:103C7E002B2B2B2B2B2B2B2B2B2B2B2B2B2B2B2B86
:103C8E002B2B2B2B2B2B2B2B2B2A2A2A2A2A2A2A7D
:103C9E002A2A2A2A2A2A2A2A2A2A2A2A2A2A2A2A76
:103CAE002A2A2A2A2A2A2A2A2A292929292929296D
:103CBE002929292929292929292929292929292966
:103CCE00292929292929292929292828282828285C
:103CDE002828282828282828282828282828282856
:103CEE00282828282828282828282827272727274B
:103CFE002727272727272727272727272727272746
:103D0E002727272727272727272727272726262638
:103D1E002626262626262626262626262626262635
:103D2E002626262626262626262626262626262526
:103D3E002525252525252525252525252525252525
:103D4E002525252525252525252525252525252515
:103D5E002525242424242424242424242424242413
:103D6E002424242424242424242424242424242405
:103D7E002424242424232323232323232323232300
:103D8E0023232323232323232323232323232323F5
:103D9E0023232323232323232322222222222222EC
:103DAE0022222222222222222222222222222222E5
:103DBE0022222222222222222222222222212121D8
:103DCE0021212121212121212121212121212121D5
:103DDE0021212121212121212121212121212121C5
:103DEE0021202020202020202020202020202020C4
:103DFE0020202020202020202020202020202020B5
:103E0E002020202020201F1F1F1F1F1F1F1F1F1FAE
:103E1E001F1F1F1F1F1F1F1F1F1F1F1F1F1F1F1FA4
:103E2E001F1F1F1F1F1F1F1F1F1F1F1F1E1E1E1E98
:103E3E001E1E1E1E1E1E1E1E1E1E1E1E1E1E1E1E94
:103E4E001E1E1E1E1E1E1E1E1E1E1E1E1E1E1E1E84
:103E5E001E1E1D1D1D1D1D1D1D1D1D1D1D1D1D1D82
:103E6E001D1D1D1D1D1D1D1D1D1D1D1D1D1D1D1D74
:103E7E001D1D1D1D1D1D1D1D1C1C1C1C1C1C1C1C6C
:103E8E001C1C1C1C1C1C1C1C1C1C1C1C1C1C1C1C64
:103E9E001C1C1C1C1C1C1C1C1C1C1C1C1C1C1C1B55
:103EAE001B1B1B1B1B1B1B1B1B1B1B1B1B1B1B1B54
:103EBE001B1B1B1B1B1B1B1B1B1B1B1B1B1B1B1B44
:103ECE001B1B1B1B1B1B1A1A1A1A1A1A1A1A1A1A3E
:103EDE001A1A1A1A1A1A1A1A1A1A1A1A1A1A1A1A34
:103EEE001A1A1A1A1A1A1A1A1A1A1A1A1A19191927
:103EFE001919191919191919191919191919191924
:103F0E001919191919191919191919191919191913
:103F1E00191919191818181818181818181818180F
:103F2E001818181818181818181818181818181803
:103F3E0018181818181818181818181817171717F7
:103F4E0017171717171717171717171717171717F3
:103F5E0017171717171717171717171717171717E3
:103F6E0017171717161616161616161616161616DF
:103F7E0016161616161616161616161616161616D3
:103F8E0016161616161616161616161615151515C7
:103F9E0015151515151515151515151515151515C3
:103FAE0015151515151515151515151515151515B3
:103FBE0015151515151414141414141414141414AE
:103FCE0014141414141414141414141414141414A3
:103FDE001414141414141414141414141413131396
:103FEE001313131313131313131313131313131393
:103FFE001313131313131313131313131313131383
:10400E00131313131313121212121212121212127C
:10401E001212121212121212121212121212121272
:10402E001212121212121212121212121212111164
:10403E001111111111111111111111111111111162
:10404E001111111111111111111111111111111152
:10405E00111111111111111010101010101010104B
:10406E001010101010101010101010101010101042
:10407E001010101010101010101010101010101032
:10408E000F0F0F0F0F0F0F0F0F0F0F0F0F0F0F0F32
:10409E000F0F0F0F0F0F0F0F0F0F0F0F0F0F0F0F22
:1040AE000F0F0F0F0F0F0F0F0E0E0E0E0E0E0E0E1A
:1040BE000E0E0E0E0E0E0E0E0E0E0E0E0E0E0E0E12
:1040CE000E0E0E0E0E0E0E0E0E0E0E0E0E0E0E0E02
:1040DE000E0D0D0D0D0D0D0D0D0D0D0D0D0D0D0D01
:1040EE000D0D0D0D0D0D0D0D0D0D0D0D0D0D0D0DF2
:1040FE000D0D0D0D0D0D0D0D0D0C0C0C0C0C0C0CE9
:10410E000C0C0C0C0C0C0C0C0C0C0C0C0C0C0C0CE1
:10411E000C0C0C0C0C0C0C0C0C0C0C0C0C0C0C0CD1
:10412E000C0C0B0B0B0B0B0B0B0B0B0B0B0B0B0BCF
:10413E000B0B0B0B0B0B0B0B0B0B0B0B0B0B0B0BC1
:10414E000B0B0B0B0B0B0B0B0B0B0A0A0A0A0A0AB7
:10415E000A0A0A0A0A0A0A0A0A0A0A0A0A0A0A0AB1
:10416E000A0A0A0A0A0A0A0A0A0A0A0A0A0A0A0AA1
:10417E000A0A09090909090909090909090909099F
:10418E000909090909090909090909090909090991
:10419E000909090909090909090908080808080887
:1041AE000808080808080808080808080808080881
:1041BE000808080808080808080808080808080871
:1041CE000807070707070707070707070707070770
:1041DE000707070707070707070707070707070761
:1041EE000707070707070707060606060606060659
:1041FE000606060606060606060606060606060651
:10420E000606060606060606060606060606060541
:10421E000505050505050505050505050505050540
:10422E000505050505050505050505050505050530
:10423E00050505050505040404040404040404042A
:10424E000404040404040404040404040404040420
:10425E000404040404040404040404040303030314
:10426E000303030303030303030303030303030310
:10427E000303030303030303030303030303030300
:10428E0003020202020202020202020202020202FF
:10429E0002020202020202020202020202020202F0
:1042AE0002020202020202010101010101010101E9
:1042BE0001010101010101010101010101010101E0
:1042CE0001010101010101010101010000000000D5
:1042DE0000000000000000000000000000000000D0
:1042EE00000000000000000000000000000000FFC1
:1042FE00FFFFFFFFFFFFFFFFFFFFFFFFFFFFFFFFC0
:10430E00FFFFFFFFFFFFFFFFFFFFFFFFFFFFFFFFAF
:10431E00FFFFFFFEFEFEFEFEFEFEFEFEFEFEFEFEAC
:10432E00FEFEFEFEFEFEFEFEFEFEFEFEFEFEFEFE9F
:10433E00FEFEFEFEFEFEFDFDFDFDFDFDFDFDFDFD99
:10434E00FDFDFDFDFDFDFDFDFDFDFDFDFDFDFDFD8F
:10435E00FDFDFDFDFDFDFDFDFCFCFCFCFCFCFCFC87
:10436E00FCFCFCFCFCFCFCFCFCFCFCFCFCFCFCFC7F
:10437E00FCFCFCFCFCFCFCFCFCFCFBFBFBFBFBFB75
:10438E00FBFBFBFBFBFBFBFBFBFBFBFBFBFBFBFB6F
:10439E00FBFBFBFBFBFBFBFBFBFBFBFAFAFAFAFA64
:1043AE00FAFAFAFAFAFAFAFAFAFAFAFAFAFAFAFA5F
:1043BE00FAFAFAFAFAFAFAFAFAFAFAFAF9F9F9F953
:1043CE00F9F9F9F9F9F9F9F9F9F9F9F9F9F9F9F94F
:1043DE00F9F9F9F9F9F9F9F9F9F9F9F9F8F8F8F843
:1043EE00F8F8F8F8F8F8F8F8F8F8F8F8F8F8F8F83F
:1043FE00F8F8F8F8F8F8F8F8F8F8F8F7F7F7F7F734
:10440E00F7F7F7F7F7F7F7F7F7F7F7F7F7F7F7F72E
:10441E00F7F7F7F7F7F7F7F7F7F6F6F6F6F6F6F625
:10442E00F6F6F6F6F6F6F6F6F6F6F6F6F6F6F6F61E
:10443E00F6F6F6F6F6F6F6F5F5F5F5F5F5F5F5F517
:10444E00F5F5F5F5F5F5F5F5F5F5F5F5F5F5F5F50E
:10445E00F5F5F5F5F4F4F4F4F4F4F4F4F4F4F4F40A
:10446E00F4F4F4F4F4F4F4F4F4F4F4F4F4F4F4F4FE
:10447E00F3F3F3F3F3F3F3F3F3F3F3F3F3F3F3F3FE
:10448E00F3F3F3F3F3F3F3F3F3F3F3F3F2F2F2F2F2
:10449E00F2F2F2F2F2F2F2F2F2F2F2F2F2F2F2F2EE
:1044AE00F2F2F2F2F2F2F1F1F1F1F1F1F1F1F1F1E8
:1044BE00F1F1F1F1F1F1F1F1F1F1F1F1F1F1F1F1DE
:1044CE00F0F0F0F0F0F0F0F0F0F0F0F0F0F0F0F0DE
:1044DE00F0F0F0F0F0F0F0F0F0F0EFEFEFEFEFEFD4
:1044EE00EFEFEFEFEFEFEFEFEFEFEFEFEFEFEFEFCE
:1044FE00EFEFEEEEEEEEEEEEEEEEEEEEEEEEEEEECC
:10450E00EEEEEEEEEEEEEEEEEEEEEDEDEDEDEDEDC3
:10451E00EDEDEDEDEDEDEDEDEDEDEDEDEDEDEDEDBD
:10452E00EDECECECECECECECECECECECECECECECBC
:10453E00ECECECECECECECEBEBEBEBEBEBEBEBEBB6
:10454E00EBEBEBEBEBEBEBEBEBEBEBEBEBEAEAEAB0
:10455E00EAEAEAEAEAEAEAEAEAEAEAEAEAEAEAEAAD
:10456E00EAEAE9E9E9E9E9E9E9E9E9E9E9E9E9E9AB
:10457E00E9E9E9E9E9E9E8E8E8E8E8E8E8E8E8E8A7
:10458E00E8E8E8E8E8E8E8E8E8E7E7E7E7E7E7E7A4
:10459E00E7E7E7E7E7E7E7E7E7E7E7E7E6E6E6E6A1
:1045AE00E6E6E6E6E6E6E6E6E6E6E6E6E6E5E5E5A0
:1045BE00E5E5E5E5E5E5E5E5E5E5E5E5E5E5E5E49E
:1045CE00E4E4E4E4E4E4E4E4E4E4E4E4E4E4E4E39E
:1045DE00E3E3E3E3E3E3E3E3E3E3E3E3E3E3E3E29E
:1045EE00E2E2E2E2E2E2E2E2E2E2E2E2E2E2E1E19F
:1045FE00E1E1E1E1E1E1E1E1E1E1E1E1E1E0E0E0A0
:10460E00E0E0E0E0E0E0E0E0E0E0E0DFDFDFDFDFA1
:10461E00DFDFDFDFDFDFDFDFDEDEDEDEDEDEDEDEA4
:10462E00DEDEDEDEDEDDDDDDDDDDDDDDDDDDDDDDA7
:10463E00DDDDDCDCDCDCDCDCDCDCDCDCDCDBDBDBAD
:10464E00DBDBDBDBDBDBDBDBDADADADADADADADAB4
:10465E00DADADAD9D9D9D9D9D9D9D9D9D9D8D8D8BC
:10466E00D8D8D8D8D8D8D8D7D7D7D7D7D7D7D7D7C5
:10467E00D6D6D6D6D6D6D6D6D6D5D5D5D5D5D5D5D3
:10468E00D5D4D4D4D4D4D4D4D4D3D3D3D3D3D3D3E2
:10469E00D2D2D2D2D2D2D2D1D1D1D1D1D1D1D0D0F7
:1046AE00D0D0D0D0CFCFCFCFCFCFCECECECECECE0E
:1046BE00CDCDCDCDCDCCCCCCCCCCCBCBCBCBCBCA2E
:1046CE00CACACACAC9C9C9C9C8C8C8C8C7C7C7C655
:1046DE00C6C6C6C5C5C5C4C4C4C3C3C3C2C2C2C18F
:1046EE00C1C0C0C0BFBFBEBEBDBDBCBCBBBABAB9E7
:1046FE00B8B8B7B6B5B4B3B2B0AFADABA9A6A29CBD
:10470E0010C5D9F411C5DAF4DEC415F5DEC416F5FC
:10471E00DEC417F5DEC418F520EE04F01050D926CD
:10472E001150DA22DFA09EEF23F0A0EF23F0D9EF95
:10473E0023F020EE01F00E50D9260F50DA22153854
:10474E00E842F80BF80BDF6E050E126ED890183299
:10475E00173216321532122EADEF23F020EE02F084
:10476E000E50D9260F50DA2215C5DFF416C515F5F1
:10477E0017C516F518C517F5186A20EE03F00E507A
:10478E00D9260F50DA2215501F0BDF6E050E126E52
:10479E00D8901832173216321532122ECFEF23F070
:1047AE00F0EF23F020EE03F00E50D9260F50DA2250
:1047BE00DF6A10EE02F00E50E1260F50E222DFC447
:1047CE00E7F420EE01F00E50D9260F50DA22E7C49E
:1047DE00DFF40EC5D9F40FC5DAF415C5DFF416C52E
:1047EE0015F517C516F518C517F5186A15C512F57E
:1047FE00070E121620EE01F00E50D9260F50DA22B7
:10480E001250DF1220EE04F01050D9261150DA2289
:10481E00DF30E8320F0B146E20EE04F01050D92664
:10482E001150DA22DFB01EEF24F022EF24F0126ACC
:10483E00122A23EF24F0126A1238F00B141220EE13
:10484E0004F01050D9261150DA22DFB231EF24F0E5
:10485E0035EF24F0200E126E36EF24F0126A12504D
:10486E00141220EE04F01050D9261150DA22DFBEB9
:10487E0043EF24F047EF24F0400E126E48EF24F081
:10488E00126A1250141220EE04F01050D926115054
:10489E00DA22DFBC55EF24F059EF24F0800E126EB1
:1048AE005AEF24F0126A1250141220EE04F00E5039
:1048BE00D9260F50DA2214C5DFF420EE04F0105082
:1048CE00D9261150DA22DFB26FEF24F071EF24F007
:1048DE009AEF24F0080E0E24036E000E0F20046EC5
:1048EE0020EE05F01050D9261150DA22DEC405F55F
:1048FE00DDC406F520EE04F01050D9261150DA2250
:10490E00DF30E8320F0B126E1250010F136E13C50B
:10491E00F6F4370EF76E000EF86E0800F550076EBF
:10492E00086ACBEC29F01200A5EC2AF0000E49EC37
:10493E002BF0D1B4A5EF24F0A9EF24F02E6A2E2A85
:10494E00AAEF24F02E6AD1BAAFEF24F0B2EF24F022
:10495E00010EB3EF24F0000EF80DF3C42FF5D1B80D
:10496E00BBEF24F0BEEF24F0010EBFEF24F0000EDB
:10497E00FC0DF3C430F5D1B6C7EF24F0CAEF24F026
:10498E00010ECBEF24F0000EFE0DF35030242F2439
:10499E002E240E0F456E000E0501926F780E922595
:1049AE00D96EDA6A050EDA22DF503DEC2BF0D6EC2A
:1049BE002AF00009D8B4E6EF24F0E8EF24F0DEEF99
:1049CE0024F0E1EC2AF003C590F504C591F590C5ED
:1049DE0003F591C504F5F6EC2AF02E6E600E050176
:1049EE009225D96EDA6A050EDA222EC5DFF4922BE5
:1049FE00170E926505EF25F007EF25F0D5EF24F0A1
:104A0E0059EF25F0060ED4EC28F06FEF25F0000ECE
:104A1E007FEC2AF0E806D8A417EF25F019EF25F061
:104A2E006FEF25F0600E116E050E126E7AEC25F00A
:104A3E0021EE93F1060EEBC4DBF4E806FCE2930ED6
:104A4E00196E050E1A6E000E8CEC28F0000E7FEC1F
:104A5E002AF00009D8B436EF25F038EF25F02DEF07
:104A6E0025F0600E036E050E046EB0EC26F021EEFE
:104A7E0093F1060EEBC4DBF4E806FCE2930E196E1E
:104A8E00050E1A6E000E8CEC28F0000E7FEC2AF04C
:104A9E000009D8B455EF25F057EF25F04CEF25F06F
:104AAE006FEF25F044EC2BF02E6E2F6A2F50000A7C
:104ABE00D8B464EF25F06FEF25F02E50040AD8B469
:104ACE0009EF25F0020AD8B40EEF25F06FEF25F0AE
:104ADE00820E2E6EDE0EE82EFED72E2EFCD7D2EFD5
:104AEE0024F00DEF00F07F0E236E000E216E800E6F
:104AFE00246E000E226E000E1C6E000E1D6E000E39
:104B0E001E6E000E1F6E000E266E26501124D96EDC
:104B1E00000E1220DA6EDF50256E2550800A186EB8
:104B2E002350800A185CD8B09FEF25F0A1EF25F036
:104B3E00A5EF25F025C523F526C521F52450800ABD
:104B4E00186E2550800A185CD8B0B0EF25F0B2EF81
:104B5E0025F0B6EF25F025C524F526C522F52550FE
:104B6E00186E000E18BEFF0E196E1A6E1B6E1850C0
:104B7E001C2619501D221A501E221B501F22262A97
:104B8E00170E2664CDEF25F0CFEF25F08CEF25F034
:104B9E001CC503F51DC504F51EC505F51FC506F597
:104BAE00180E076E000E086E000E096E000E0A6ECD
:104BBE003FEC27F00350206E4EC546F523C547F552
:104BCE0024C548F520C549F5180E4A6E22C54BF589
:104BDE0021C54CF5460E036E050E046E070E056ECE
:104BEE0038EC2AF0410F4D6E800E4E10276EF30EEC
:104BFE00286E390E296E180E2A6E2B9C2B9E2B506A
:104C0E00C30B20092B6E2B922B80460E2C6E050E9D
:104C1E002D6E21EE27F101EE11F1060EDBC4EBF441
:104C2E00E806FCE2120001011DAF20EF26F022EF94
:104C3E0026F031EF26F002D82FEF26F00500FA6E9F
:104C4E004050FD6E4150FE6E4250FF6EFA50120003
:104C5E0001011D9F1DAD36EF26F038EF26F047EF10
:104C6E0026F002D845EF26F00500FA6E3D50FD6E97
:104C7E003E50FE6E3F50FF6EFA50120001011D9D18
:104C8E001DAB4CEF26F04EEF26F05DEF26F002D86E
:104C9E005BEF26F00500FA6E3A50FD6E3B50FE6E4D
:104CAE003C50FF6EFA50120001011D9B1CA762EFD3
:104CBE0026F064EF26F073EF26F002D871EF26F09F
:104CCE000500FA6E3750FD6E3850FE6E3950FF6E8D
:104CDE00FA50120001011C971DA978EF26F07AEF09
:104CEE0026F089EF26F002D887EF26F00500FA6E3F
:104CFE003450FD6E3550FE6E3650FF6EFA50120077
:104D0E0001011D991DA58EEF26F090EF26F0AEEF56
:104D1E0026F002D89DEF26F00500FA6E3150FD6E9A
:104D2E003250FE6E3350FF6EFA501200010154A93C
:104D3E00A3EF26F0A5EF26F0A6EF26F0549960A972
:104D4E00ABEF26F0ADEF26F0AEEF26F06099AE9CFD
:104D5E0012007F0E126E000E0E6E800E136E000E7F
:104D6E000F6E000E0C6E000E156E15500324D96ECC
:104D7E00000E0420DA6EDF50146E1450800A0A6E94
:104D8E001250800A0A5CD8B0CFEF26F0D1EF26F091
:104D9E00D5EF26F014C512F515C50EF51350800A81
:104DAE000A6E1450800A0A5CD8B0E0EF26F0E2EFEB
:104DBE0026F0E6EF26F014C513F515C50FF51450C1
:104DCE000C26152A170E1564EFEF26F0F1EF26F0DC
:104DDE00BCEF26F04E50500DF3C40AF5F4C40BF59B
:104DEE0043500A24106E000E0B20116E4350032404
:104DFE00D96E000E0420DA6EDF500D6E1150466E25
:104E0E0010C547F50DC548F5180E496E12C54AF581
:104E1E0013C54BF50FC54CF50EC54DF5800E4E1056
:104E2E00166EF30E176E380E186E180E196E1A9C3B
:104E3E001A9E1A50C30B20091A6E1A921A80460E29
:104E4E001B6E050E1C6E432A170E436431EF27F0BE
:104E5E0033EF27F035EF27F0000E436E21EE16F1FB
:104E6E0001EE03F1060EDBC4EBF4E806FCE21200E1
:104E7E00000E0C6E0ABE48EF27F046EF27F052EFF9
:104E8E0027F00A1E091E081E076C000E08220922B2
:104E9E000A22010E0C6E06BE59EF27F057EF27F0CF
:104EAE0063EF27F0061E051E041E036C000E04227F
:104EBE0005220622010E0C1A000E0D6E000E0E6E4D
:104ECE00000E0F6E000E106E0750081009100A101B
:104EDE00D8B474EF27F076EF27F0ACEF27F0010E81
:104EEE000B6E80EF27F0D8900736083609360A3653
:104EFE000B2A0AAE85EF27F087EF27F07AEF27F01F
:104F0E00D8900D360E360F3610360750035C08500B
:104F1E000458095005580A500658D8A099EF27F0A2
:104F2E009BEF27F0A4EF27F00750035E0850045ABA
:104F3E000950055A0A50065A0D80D8900A32093285
:104F4E00083207320B2E87EF27F00C50D8B4B2EF91
:104F5E0027F0B4EF27F0BCEF27F0101E0F1E0E1E29
:104F6E000D6C000E0E220F2210220DC503F50EC57C
:104F7E0004F50FC505F510C506F51200096E000EF5
:104F8E000A6E20EE04F00450D9260550DA22DF50C6
:104F9E000B6E0BAED5EF27F0D7EF27F0E2EF27F031
:104FAE0044EC2BF0060AD8A4DFEF27F0E1EF27F050
:104FBE00E2EF27F00A820B30E8320F0B066E080E76
:104FCE000664ECEF27F0EEEF27F000EF28F00BACC5
:104FDE00F3EF27F0F5EF27F0FFEF27F044EC2BF07F
:104FEE00060AD8A4FDEF27F0FFEF27F000EF28F018
:104FFE000A80090EF66E370EF76E000EF86E080078
:10500E00F5C406F50B30E8320F0B076E0750010F93
:10501E00086E08C5F6F4370EF76E000EF86E08002F
:10502E00F550065CD8B01EEF28F020EF28F021EFE7
:10503E0028F00A800950CAEC2AF00009D8A42AEFF9
:10504E0028F02CEF28F02EEF28F0030E0A120A504B
:10505E001200000E0301F96F000EFA6F000ED86FEA
:10506E00000EFB6F000ED96F000EDA6F000EDB6FB5
:10507E00000EDC6F000EDF6F000EE06F000EE36FB0
:10508E00000EE46F000EE56F000EE66F000EE76F88
:10509E00000EEA6F000EEB6F000EEC6F000EEE6F5F
:1050AE00000EEF6F000EF06F000EF16F000EF26F3C
:1050BE00000EF36F000EF46F100EF56F000EF66F0C
:1050CE00000EF76F000EF86F000EFC6FAF94AF96E8
:1050DE00B090000E036E000E046E000E056E36ECE0
:1050EE002BF0000E036E000E046E000E056E28EC03
:1050FE002BF0000E036E000E046E000E056E2FECEC
:10510E002BF0840E0301F36F12001E6E1E5019EC6D
:10511E002AF00009D8B496EF28F098EF28F0D3EFD4
:10512E0028F019C504F51AC505F51E50C5EC27F073
:10513E001B6E1B50D8A4A6EF28F0A8EF28F0D3EFD3
:10514E0028F01E500C0D580EF324D96E010EF420CB
:10515E00DA6EDEC41CF5DDC41DF51C501D10D8B46E
:10516E00BBEF28F0BDEF28F0D3EF28F01CC50EF5ED
:10517E001DC50FF519C510F51AC511F587EC23F0ED
:10518E001E500C0D510EF324D96E010EF420DA6E62
:10519E00030EDF12D3EF28F01200056E000E046E20
:1051AE0044EC2BF0036E040E0318D8B4E1EF28F094
:1051BE00E3EF28F0F4EF28F00504D8B4E9EF28F077
:1051CE00EBEF28F0F4EF28F0040E0518D8A4F2EF58
:1051DE0028F0F4EF28F014EF29F00101035105181F
:1051EE00F80B0518036F07EF29F01DA901EF29F041
:1051FE0003EF29F007EF29F0020E046E16EF29F0E7
:10520E000239E832070B0518D8A410EF29F012EF77
:10521E0029F0FCEF28F016EF29F0010E046E045071
:10522E001200000EC26E000EC16E000EBE6E000E9B
:10523E00BF6E000EC06E070ECA6EC668C768C8681D
:10524E00FD0EC96EC00E0401186F10690869070EB5
:10525E00206F00693C0E196F000E216F000E096F52
:10526E00000E016F000E116F000E226F000E026F06
:10527E00000E0A6F000E126F000E1A6F03690B6993
:10528E0013691B69070E236F04690C6914691C6985
:10529E000F0E246F180E02013D6F460E1A6F12008C
:1052AE00A40E036E560E046E000E056E13EC2BF05C
:1052BE00A60E036E560E046E000E056E1AEC2BF043
:1052CE00A80E036E560E046E000E056E21EC2BF02A
:1052DE00A20E036E560E046E000E056E0CEC2BF035
:1052EE00A00E036E560E046E000E056E05EC2BF02E
:1052FE009E0E036E560E046E000E056EFEEC2AF028
:10530E00AE9C000E01011C6F000E1D6F080E1E6F6D
:10531E00FC0E1F6F9E8C12000E0EF66E370EF76E81
:10532E00000EF86E01EE9DF114EE00F00900F5C4CA
:10533E00EEF4E550E150FAE1E250F8E1640EF66E5B
:10534E00550EF76E000EF86E01EE78F110EE18F0B5
:10535E000900F5C4EEF4E550E150FAE101EE60F11A
:10536E00180EEE6AE806FDE101EE31F11E0EEE6A50
:10537E00E806FDE10401080E5D6F000E5E6F000E83
:10538E005F6F00019BEF24F005C50CF506C50DF50A
:10539E0003C50AF504C50BF5E5EF29F00CC5D9F4E4
:1053AE000DC5DAF4DF50096E0C4A0D2A0AC5D9F480
:1053BE000BC5DAF409C5DFF40A4A0B2A0706D8A092
:1053CE000806072806E10828D8A4F0EF29F0F2EF26
:1053DE0029F0D5EF29F012000101018F040ED4EC53
:1053EE0028F00009D8A4FEEF29F000EF2AF018EFFC
:1053FE002AF0000E01014C6F380E4D6F000E4E6FED
:10540E00000E4F6F600E006F970E016F100E026F41
:10541E00ECEC2AF093EC2AF057EC29F0060ED4ECC3
:10542E0028F01200046E000E036E040E046022EFCC
:10543E002AF024EF2AF036EF2AF004500C0D500E0D
:10544E00F324D96E010EF420DA6E0101DFAE32EFD5
:10545E002AF034EF2AF036EF2AF0010E036E0350D5
:10546E001200000E066E000E076E47EF2AF0075070
:10547E000324D96E000E0420DA6EDF500626072AAA
:10548E000550075CD8A04EEF2AF050EF2AF03EEF01
:10549E002AF006501200FAC401F5FBC402F59EACC8
:1054AE005BEF2AF05DEF2AF066EF2AF0AEAC62EF0A
:1054BE002AF064EF2AF066EF2AF01AEC26F002C505
:1054CE00FBF401C5FAF41100000E0001606F000E2E
:1054DE00616F000E626F000E636F000E646F000E40
:1054EE00656F000E666F000E676F000E686F12001C
:1054FE00066E000E056E065019EC2AF00009D8B49F
:10550E008BEF2AF08DEF2AF091EF2AF00650CAECBD
:10551E002AF0056E05501200100E0101506F040E98
:10552E00516F600E526F010E536F900E5C6F040E32
:10553E005D6F600E5E6F050E5F6F12004DEC2BF00F
:10554E006BEC2AF018EC29F030EC28F0BEEC2AF0C7
:10555E00F3EC29F0120016170001141502031213B2
:10556E000405101120211E1F08090C0D0A0B600ED8
:10557E000001AD6F000EAF6F000EB36F020EB16F74
:10558E00000EB06F1200036E03500C0D540EF32478
:10559E00D96E010EF420DA6EDF50010B12000301FA
:1055AE00F3A1DCEF2AF0DFEF2AF0010EE0EF2AF094
:1055BE00000E12000301EB51066E056AEA51052436
:1055CE00036E000E0620046E1200010E0101046F20
:1055DE00010E056F040E066F000E076F12009D0E72
:1055EE000324D96E050E0420DA6EDF50120003C5B7
:1055FE0031F504C532F505C533F5120003C534F592
:10560E0004C535F505C536F5120003C537F504C5D5
:10561E0038F505C539F5120003C540F504C541F549
:10562E0005C542F5120003C53DF504C53EF505C599
:10563E003FF5120003C53AF504C53BF505C53CF52B
:10564E00120003C54FF504C550F505C551F51200FE
:10565E0003C59AF504C59BF505C59CF5120003C557
:10566E0052F504C553F505C554F51200036E03C576
:10567E00ECF30301F38FF381120001010239E832DA
:10568E00070B1200036E03C5FBF31200D69A12002D
:0C569E0012001200120012001200120094
:020000040030CA
:10000000ECEEF7FF9FFFFFFFFFFFFFFFFFFFFFFF8C
:03001000FFFFFFF0
:08001700FFFFFFFFFFFFFFFFE9
:00000001FF
