:040000000DEF00F010
:040008003DEF2AF0AE
:06001800FF00B3EF28F029
:0D3700000000010203040506070850010047
:10370E00807F7F7F7F7F7F7F7F7F7F7F7F7F7F7FBA
:10371E007F7F7F7F7F7F7F7F7F7F7F7F7F7F7F7FAB
:10372E007F7F7F7F7F7F7F7F7F7F7F7F7F7F7F7F9B
:10373E007F7F7F7F7F7F7F7F7F7F7F7F7F7F7F7F8B
:10374E007F7F7F7F7F7F7F7F7F7F7F7F7F7F7F7F7B
:10375E007F7F7F7F7F7F7F7F7F7F7F7F7F7F7F7F6B
:10376E007F7F7F7F7F7F7F7F7F7F7F7F7F7F7F7F5B
:10377E007F7F7F7F7F7F7F7F7F7F7F7F7F7F7F7F4B
:10378E007F7F7F7F7F7F7F7F7F7F7F7F7F7F7F7F3B
:10379E007F7F7F7F7F7F7F7F7F7F7F7F7F7F7F7F2B
:1037AE007F7F7F7F7F7F7F7F7F7F7F7F7F7F7F7F1B
:1037BE007F7F7F7F7F7F7F7F7F7F7F7F7F7F7F7F0B
:1037CE007F7F7F7F7F7F7F7F7F7F7F7F7F7F7F7FFB
:1037DE007F7F7F7E7E7E7E7D7D7D7D7D7C7C7C7C05
:1037EE007B7B7B7B7B7A7A7A7A7A7979797979782D
:1037FE007878787877777777777676767676757550
:10380E00757575747474747474737373737373726F
:10381E00727272727171717171717070707070708C
:10382E006F6F6F6F6F6F6F6E6E6E6E6E6E6D6D6DA6
:10383E006D6D6D6D6C6C6C6C6C6C6B6B6B6B6B6BBC
:10384E006B6A6A6A6A6A6A6A6969696969696969D1
:10385E0068686868686868676767676767676766E4
:10386E0066666666666666656565656565656564F4
:10387E006464646464646463636363636363636303
:10388E006262626262626262616161616161616112
:10389E00616060606060606060605F5F5F5F5F5F1F
:1038AE005F5F5F5F5E5E5E5E5E5E5E5E5E5D5D5D29
:1038BE005D5D5D5D5D5D5D5C5C5C5C5C5C5C5C5C33
:1038CE005C5B5B5B5B5B5B5B5B5B5B5B5A5A5A5A3D
:1038DE005A5A5A5A5A5A5A59595959595959595943
:1038EE00595958585858585858585858585757574B
:1038FE005757575757575757565656565656565652
:10390E005656565655555555555555555555555555
:10391E00545454545454545454545454545353535C
:10392E005353535353535353535252525252525260
:10393E005252525252525251515151515151515162
:10394E005151515150505050505050505050505065
:10395E0050504F4F4F4F4F4F4F4F4F4F4F4F4F4F67
:10396E004E4E4E4E4E4E4E4E4E4E4E4E4E4E4D4D6B
:10397E004D4D4D4D4D4D4D4D4D4D4D4D4D4C4C4C6C
:10398E004C4C4C4C4C4C4C4C4C4C4C4C4C4B4B4B6C
:10399E004B4B4B4B4B4B4B4B4B4B4B4B4A4A4A4A6D
:1039AE004A4A4A4A4A4A4A4A4A4A4A4A494949496D
:1039BE00494949494949494949494949494848486C
:1039CE00484848484848484848484848484747476C
:1039DE00474747474747474747474747474747466A
:1039EE004646464646464646464646464646464669
:1039FE004545454545454545454545454545454569
:103A0E004545454444444444444444444444444465
:103A1E004444444444434343434343434343434363
:103A2E004343434343434343424242424242424260
:103A3E00424242424242424242424242414141415C
:103A4E004141414141414141414141414141414059
:103A5E004040404040404040404040404040404058
:103A6E00404040403F3F3F3F3F3F3F3F3F3F3F3F54
:103A7E003F3F3F3F3F3F3F3F3F3E3E3E3E3E3E3E4F
:103A8E003E3E3E3E3E3E3E3E3E3E3E3E3E3E3D3D4A
:103A9E003D3D3D3D3D3D3D3D3D3D3D3D3D3D3D3D48
:103AAE003D3D3D3D3C3C3C3C3C3C3C3C3C3C3C3C44
:103ABE003C3C3C3C3C3C3C3C3C3C3B3B3B3B3B3B3E
:103ACE003B3B3B3B3B3B3B3B3B3B3B3B3B3B3B3B38
:103ADE003B3A3A3A3A3A3A3A3A3A3A3A3A3A3A3A37
:103AEE003A3A3A3A3A3A3A3A3A393939393939392F
:103AFE003939393939393939393939393939393928
:103B0E003938383838383838383838383838383826
:103B1E00383838383838383838373737373737371E
:103B2E003737373737373737373737373737373717
:103B3E003737363636363636363636363636363615
:103B4E00363636363636363636363636353535350B
:103B5E003535353535353535353535353535353507
:103B6E003535353535353434343434343434343401
:103B7E0034343434343434343434343434343434F7
:103B8E0033333333333333333333333333333333F7
:103B9E0033333333333333333333333332323232EB
:103BAE0032323232323232323232323232323232E7
:103BBE0032323232323232313131313131313131E0
:103BCE0031313131313131313131313131313131D7
:103BDE0031313131303030303030303030303030D3
:103BEE0030303030303030303030303030303030C7
:103BFE00302F2F2F2F2F2F2F2F2F2F2F2F2F2F2FC6
:103C0E002F2F2F2F2F2F2F2F2F2F2F2F2F2F2E2EB8
:103C1E002E2E2E2E2E2E2E2E2E2E2E2E2E2E2E2EB6
:103C2E002E2E2E2E2E2E2E2E2E2E2E2E2D2D2D2DAA
:103C3E002D2D2D2D2D2D2D2D2D2D2D2D2D2D2D2DA6
:103C4E002D2D2D2D2D2D2D2D2D2D2C2C2C2C2C2C9C
:103C5E002C2C2C2C2C2C2C2C2C2C2C2C2C2C2C2C96
:103C6E002C2C2C2C2C2C2C2C2C2B2B2B2B2B2B2B8D
:103C7E002B2B2B2B2B2B2B2B2B2B2B2B2B2B2B2B86
:103C8E002B2B2B2B2B2B2B2B2B2A2A2A2A2A2A2A7D
:103C9E002A2A2A2A2A2A2A2A2A2A2A2A2A2A2A2A76
:103CAE002A2A2A2A2A2A2A2A2A292929292929296D
:103CBE002929292929292929292929292929292966
:103CCE00292929292929292929292828282828285C
:103CDE002828282828282828282828282828282856
:103CEE00282828282828282828282827272727274B
:103CFE002727272727272727272727272727272746
:103D0E002727272727272727272727272726262638
:103D1E002626262626262626262626262626262635
:103D2E002626262626262626262626262626262526
:103D3E002525252525252525252525252525252525
:103D4E002525252525252525252525252525252515
:103D5E002525242424242424242424242424242413
:103D6E002424242424242424242424242424242405
:103D7E002424242424232323232323232323232300
:103D8E0023232323232323232323232323232323F5
:103D9E0023232323232323232322222222222222EC
:103DAE0022222222222222222222222222222222E5
:103DBE0022222222222222222222222222212121D8
:103DCE0021212121212121212121212121212121D5
:103DDE0021212121212121212121212121212121C5
:103DEE0021202020202020202020202020202020C4
:103DFE0020202020202020202020202020202020B5
:103E0E002020202020201F1F1F1F1F1F1F1F1F1FAE
:103E1E001F1F1F1F1F1F1F1F1F1F1F1F1F1F1F1FA4
:103E2E001F1F1F1F1F1F1F1F1F1F1F1F1E1E1E1E98
:103E3E001E1E1E1E1E1E1E1E1E1E1E1E1E1E1E1E94
:103E4E001E1E1E1E1E1E1E1E1E1E1E1E1E1E1E1E84
:103E5E001E1E1D1D1D1D1D1D1D1D1D1D1D1D1D1D82
:103E6E001D1D1D1D1D1D1D1D1D1D1D1D1D1D1D1D74
:103E7E001D1D1D1D1D1D1D1D1C1C1C1C1C1C1C1C6C
:103E8E001C1C1C1C1C1C1C1C1C1C1C1C1C1C1C1C64
:103E9E001C1C1C1C1C1C1C1C1C1C1C1C1C1C1C1B55
:103EAE001B1B1B1B1B1B1B1B1B1B1B1B1B1B1B1B54
:103EBE001B1B1B1B1B1B1B1B1B1B1B1B1B1B1B1B44
:103ECE001B1B1B1B1B1B1A1A1A1A1A1A1A1A1A1A3E
:103EDE001A1A1A1A1A1A1A1A1A1A1A1A1A1A1A1A34
:103EEE001A1A1A1A1A1A1A1A1A1A1A1A1A19191927
:103EFE001919191919191919191919191919191924
:103F0E001919191919191919191919191919191913
:103F1E00191919191818181818181818181818180F
:103F2E001818181818181818181818181818181803
:103F3E0018181818181818181818181817171717F7
:103F4E0017171717171717171717171717171717F3
:103F5E0017171717171717171717171717171717E3
:103F6E0017171717161616161616161616161616DF
:103F7E0016161616161616161616161616161616D3
:103F8E0016161616161616161616161615151515C7
:103F9E0015151515151515151515151515151515C3
:103FAE0015151515151515151515151515151515B3
:103FBE0015151515151414141414141414141414AE
:103FCE0014141414141414141414141414141414A3
:103FDE001414141414141414141414141413131396
:103FEE001313131313131313131313131313131393
:103FFE001313131313131313131313131313131383
:10400E00131313131313121212121212121212127C
:10401E001212121212121212121212121212121272
:10402E001212121212121212121212121212111164
:10403E001111111111111111111111111111111162
:10404E001111111111111111111111111111111152
:10405E00111111111111111010101010101010104B
:10406E001010101010101010101010101010101042
:10407E001010101010101010101010101010101032
:10408E000F0F0F0F0F0F0F0F0F0F0F0F0F0F0F0F32
:10409E000F0F0F0F0F0F0F0F0F0F0F0F0F0F0F0F22
:1040AE000F0F0F0F0F0F0F0F0E0E0E0E0E0E0E0E1A
:1040BE000E0E0E0E0E0E0E0E0E0E0E0E0E0E0E0E12
:1040CE000E0E0E0E0E0E0E0E0E0E0E0E0E0E0E0E02
:1040DE000E0D0D0D0D0D0D0D0D0D0D0D0D0D0D0D01
:1040EE000D0D0D0D0D0D0D0D0D0D0D0D0D0D0D0DF2
:1040FE000D0D0D0D0D0D0D0D0D0C0C0C0C0C0C0CE9
:10410E000C0C0C0C0C0C0C0C0C0C0C0C0C0C0C0CE1
:10411E000C0C0C0C0C0C0C0C0C0C0C0C0C0C0C0CD1
:10412E000C0C0B0B0B0B0B0B0B0B0B0B0B0B0B0BCF
:10413E000B0B0B0B0B0B0B0B0B0B0B0B0B0B0B0BC1
:10414E000B0B0B0B0B0B0B0B0B0B0A0A0A0A0A0AB7
:10415E000A0A0A0A0A0A0A0A0A0A0A0A0A0A0A0AB1
:10416E000A0A0A0A0A0A0A0A0A0A0A0A0A0A0A0AA1
:10417E000A0A09090909090909090909090909099F
:10418E000909090909090909090909090909090991
:10419E000909090909090909090908080808080887
:1041AE000808080808080808080808080808080881
:1041BE000808080808080808080808080808080871
:1041CE000807070707070707070707070707070770
:1041DE000707070707070707070707070707070761
:1041EE000707070707070707060606060606060659
:1041FE000606060606060606060606060606060651
:10420E000606060606060606060606060606060541
:10421E000505050505050505050505050505050540
:10422E000505050505050505050505050505050530
:10423E00050505050505040404040404040404042A
:10424E000404040404040404040404040404040420
:10425E000404040404040404040404040303030314
:10426E000303030303030303030303030303030310
:10427E000303030303030303030303030303030300
:10428E0003020202020202020202020202020202FF
:10429E0002020202020202020202020202020202F0
:1042AE0002020202020202010101010101010101E9
:1042BE0001010101010101010101010101010101E0
:1042CE0001010101010101010101010000000000D5
:1042DE0000000000000000000000000000000000D0
:1042EE00000000000000000000000000000000FFC1
:1042FE00FFFFFFFFFFFFFFFFFFFFFFFFFFFFFFFFC0
:10430E00FFFFFFFFFFFFFFFFFFFFFFFFFFFFFFFFAF
:10431E00FFFFFFFEFEFEFEFEFEFEFEFEFEFEFEFEAC
:10432E00FEFEFEFEFEFEFEFEFEFEFEFEFEFEFEFE9F
:10433E00FEFEFEFEFEFEFDFDFDFDFDFDFDFDFDFD99
:10434E00FDFDFDFDFDFDFDFDFDFDFDFDFDFDFDFD8F
:10435E00FDFDFDFDFDFDFDFDFCFCFCFCFCFCFCFC87
:10436E00FCFCFCFCFCFCFCFCFCFCFCFCFCFCFCFC7F
:10437E00FCFCFCFCFCFCFCFCFCFCFBFBFBFBFBFB75
:10438E00FBFBFBFBFBFBFBFBFBFBFBFBFBFBFBFB6F
:10439E00FBFBFBFBFBFBFBFBFBFBFBFAFAFAFAFA64
:1043AE00FAFAFAFAFAFAFAFAFAFAFAFAFAFAFAFA5F
:1043BE00FAFAFAFAFAFAFAFAFAFAFAFAF9F9F9F953
:1043CE00F9F9F9F9F9F9F9F9F9F9F9F9F9F9F9F94F
:1043DE00F9F9F9F9F9F9F9F9F9F9F9F9F8F8F8F843
:1043EE00F8F8F8F8F8F8F8F8F8F8F8F8F8F8F8F83F
:1043FE00F8F8F8F8F8F8F8F8F8F8F8F7F7F7F7F734
:10440E00F7F7F7F7F7F7F7F7F7F7F7F7F7F7F7F72E
:10441E00F7F7F7F7F7F7F7F7F7F6F6F6F6F6F6F625
:10442E00F6F6F6F6F6F6F6F6F6F6F6F6F6F6F6F61E
:10443E00F6F6F6F6F6F6F6F5F5F5F5F5F5F5F5F517
:10444E00F5F5F5F5F5F5F5F5F5F5F5F5F5F5F5F50E
:10445E00F5F5F5F5F4F4F4F4F4F4F4F4F4F4F4F40A
:10446E00F4F4F4F4F4F4F4F4F4F4F4F4F4F4F4F4FE
:10447E00F3F3F3F3F3F3F3F3F3F3F3F3F3F3F3F3FE
:10448E00F3F3F3F3F3F3F3F3F3F3F3F3F2F2F2F2F2
:10449E00F2F2F2F2F2F2F2F2F2F2F2F2F2F2F2F2EE
:1044AE00F2F2F2F2F2F2F1F1F1F1F1F1F1F1F1F1E8
:1044BE00F1F1F1F1F1F1F1F1F1F1F1F1F1F1F1F1DE
:1044CE00F0F0F0F0F0F0F0F0F0F0F0F0F0F0F0F0DE
:1044DE00F0F0F0F0F0F0F0F0F0F0EFEFEFEFEFEFD4
:1044EE00EFEFEFEFEFEFEFEFEFEFEFEFEFEFEFEFCE
:1044FE00EFEFEEEEEEEEEEEEEEEEEEEEEEEEEEEECC
:10450E00EEEEEEEEEEEEEEEEEEEEEDEDEDEDEDEDC3
:10451E00EDEDEDEDEDEDEDEDEDEDEDEDEDEDEDEDBD
:10452E00EDECECECECECECECECECECECECECECECBC
:10453E00ECECECECECECECEBEBEBEBEBEBEBEBEBB6
:10454E00EBEBEBEBEBEBEBEBEBEBEBEBEBEAEAEAB0
:10455E00EAEAEAEAEAEAEAEAEAEAEAEAEAEAEAEAAD
:10456E00EAEAE9E9E9E9E9E9E9E9E9E9E9E9E9E9AB
:10457E00E9E9E9E9E9E9E8E8E8E8E8E8E8E8E8E8A7
:10458E00E8E8E8E8E8E8E8E8E8E7E7E7E7E7E7E7A4
:10459E00E7E7E7E7E7E7E7E7E7E7E7E7E6E6E6E6A1
:1045AE00E6E6E6E6E6E6E6E6E6E6E6E6E6E5E5E5A0
:1045BE00E5E5E5E5E5E5E5E5E5E5E5E5E5E5E5E49E
:1045CE00E4E4E4E4E4E4E4E4E4E4E4E4E4E4E4E39E
:1045DE00E3E3E3E3E3E3E3E3E3E3E3E3E3E3E3E29E
:1045EE00E2E2E2E2E2E2E2E2E2E2E2E2E2E2E1E19F
:1045FE00E1E1E1E1E1E1E1E1E1E1E1E1E1E0E0E0A0
:10460E00E0E0E0E0E0E0E0E0E0E0E0DFDFDFDFDFA1
:10461E00DFDFDFDFDFDFDFDFDEDEDEDEDEDEDEDEA4
:10462E00DEDEDEDEDEDDDDDDDDDDDDDDDDDDDDDDA7
:10463E00DDDDDCDCDCDCDCDCDCDCDCDCDCDBDBDBAD
:10464E00DBDBDBDBDBDBDBDBDADADADADADADADAB4
:10465E00DADADAD9D9D9D9D9D9D9D9D9D9D8D8D8BC
:10466E00D8D8D8D8D8D8D8D7D7D7D7D7D7D7D7D7C5
:10467E00D6D6D6D6D6D6D6D6D6D5D5D5D5D5D5D5D3
:10468E00D5D4D4D4D4D4D4D4D4D3D3D3D3D3D3D3E2
:10469E00D2D2D2D2D2D2D2D1D1D1D1D1D1D1D0D0F7
:1046AE00D0D0D0D0CFCFCFCFCFCFCECECECECECE0E
:1046BE00CDCDCDCDCDCCCCCCCCCCCBCBCBCBCBCA2E
:1046CE00CACACACAC9C9C9C9C8C8C8C8C7C7C7C655
:1046DE00C6C6C6C5C5C5C4C4C4C3C3C3C2C2C2C18F
:1046EE00C1C0C0C0BFBFBEBEBDBDBCBCBBBABAB9E7
:1046FE00B8B8B7B6B5B4B3B2B0AFADABA9A6A29CBD
:10470E0010C5D9F411C5DAF4DEC415F5DEC416F5FC
:10471E00DEC417F5DEC418F520EE04F01050D926CD
:10472E001150DA22DFA09EEF23F0A0EF23F0D9EF95
:10473E0023F020EE01F00E50D9260F50DA22153854
:10474E00E842F80BF80BDF6E050E126ED890183299
:10475E00173216321532122EADEF23F020EE02F084
:10476E000E50D9260F50DA2215C5DFF416C515F5F1
:10477E0017C516F518C517F5186A20EE03F00E507A
:10478E00D9260F50DA2215501F0BDF6E050E126E52
:10479E00D8901832173216321532122ECFEF23F070
:1047AE00F0EF23F020EE03F00E50D9260F50DA2250
:1047BE00DF6A10EE02F00E50E1260F50E222DFC447
:1047CE00E7F420EE01F00E50D9260F50DA22E7C49E
:1047DE00DFF40EC5D9F40FC5DAF415C5DFF416C52E
:1047EE0015F517C516F518C517F5186A15C512F57E
:1047FE00070E121620EE01F00E50D9260F50DA22B7
:10480E001250DF1220EE04F01050D9261150DA2289
:10481E00DF30E8320F0B146E20EE04F01050D92664
:10482E001150DA22DFB01EEF24F022EF24F0126ACC
:10483E00122A23EF24F0126A1238F00B141220EE13
:10484E0004F01050D9261150DA22DFB231EF24F0E5
:10485E0035EF24F0200E126E36EF24F0126A12504D
:10486E00141220EE04F01050D9261150DA22DFBEB9
:10487E0043EF24F047EF24F0400E126E48EF24F081
:10488E00126A1250141220EE04F01050D926115054
:10489E00DA22DFBC55EF24F059EF24F0800E126EB1
:1048AE005AEF24F0126A1250141220EE04F00E5039
:1048BE00D9260F50DA2214C5DFF420EE04F0105082
:1048CE00D9261150DA22DFB26FEF24F071EF24F007
:1048DE009AEF24F0080E0E24036E000E0F20046EC5
:1048EE0020EE05F01050D9261150DA22DEC405F55F
:1048FE00DDC406F520EE04F01050D9261150DA2250
:10490E00DF30E8320F0B126E1250010F136E13C50B
:10491E00F6F4370EF76E000EF86E0800F550076EBF
:10492E00086AB6EC29F0120090EC2AF0000E34EC76
:10493E002BF0000E396E140E3918D8A4A9EF24F0FE
:10494E00ABEF24F0D5EF24F0780E3924D96EDA6A65
:10495E00050EDA22DF5028EC2BF0C1EC2AF000090C
:10496E00D8B4BCEF24F0BEEF24F0B4EF24F0CCECBE
:10497E002AF003C530F504C531F530C503F531C550
:10498E0004F5E1EC2AF02E6E600E3924D96EDA6A47
:10499E00050EDA222EC5DFF4DDEF24F0600E392489
:1049AE00D96EDA6A050EDA220F0EDF6E392A170E6D
:1049BE003964E4EF24F0E6EF24F0A2EF24F038EFB0
:1049CE0025F0060EF7EC28F04EEF25F0000E6AECFF
:1049DE002AF0E806D8A4F6EF24F0F8EF24F04EEF14
:1049EE0025F0600E116E050E126E59EC25F021EEBB
:1049FE0032F1060EEBC4DBF4E806FCE2320E196E61
:104A0E00050E1A6E000E6BEC28F0000E6AEC2AF002
:104A1E000009D8B415EF25F017EF25F00CEF25F0AF
:104A2E00600E036E050E046E8FEC26F021EE32F151
:104A3E00060EEBC4DBF4E806FCE2320E196E050E30
:104A4E001A6E000E6BEC28F0000E6AEC2AF00009CC
:104A5E00D8B434EF25F036EF25F02BEF25F04EEFDE
:104A6E0025F02FEC2BF02E6E2F6A2F50000AD8B4A3
:104A7E0043EF25F04EEF25F02E50040AD8B4E8EFA0
:104A8E0024F0020AD8B4EDEF24F04EEF25F0820E9A
:104A9E002E6EDE0EE82EFED72E2EFCD7A0EF24F0C3
:104AAE000DEF00F07F0E236E000E216E800E246E31
:104ABE00000E226E000E1C6E000E1D6E000E1E6E7F
:104ACE00000E1F6E000E266E26501124D96E000E9B
:104ADE001220DA6EDF50256E2550800A186E235094
:104AEE00800A185CD8B07EEF25F080EF25F084EFB9
:104AFE0025F025C523F526C521F52450800A186E0C
:104B0E002550800A185CD8B08FEF25F091EF25F074
:104B1E0095EF25F025C524F526C522F52550186EEE
:104B2E00000E18BEFF0E196E1A6E1B6E18501C2644
:104B3E0019501D221A501E221B501F22262A170EF4
:104B4E002664ACEF25F0AEEF25F06BEF25F01CC51B
:104B5E0003F51DC504F51EC505F51FC506F5180E92
:104B6E00076E000E086E000E096E000E0A6E1EEC29
:104B7E0027F00350206E5D044E6E23C54FF524C5FD
:104B8E0050F520C551F5180E526E22C553F521C5AC
:104B9E0054F54E0E036E050E046E070E056E23ECD5
:104BAE002AF0410F556E800E5D10276EF30E286EA3
:104BBE00390E296E180E2A6E2B9C2B9E2B50C30B72
:104BCE0020092B6E2B922B804E0E2C6E050E2D6E09
:104BDE0021EE27F101EE11F1060EDBC4EBF4E8062F
:104BEE00FCE2120001011DAFFFEF25F001EF26F0F0
:104BFE0010EF26F002D80EEF26F00500FA6E49509F
:104C0E00FD6E4A50FE6E4B50FF6EFA5012000101BF
:104C1E001D9F1DAD15EF26F017EF26F026EF26F09F
:104C2E0002D824EF26F00500FA6E4650FD6E47506E
:104C3E00FE6E4850FF6EFA50120001011D9D1DAB15
:104C4E002BEF26F02DEF26F03CEF26F002D83AEFB0
:104C5E0026F00500FA6E4350FD6E4450FE6E455030
:104C6E00FF6EFA50120001011D9B1CA741EF26F0AA
:104C7E0043EF26F052EF26F002D850EF26F0050053
:104C8E00FA6E4050FD6E4150FE6E4250FF6EFA506D
:104C9E00120001011C971DA957EF26F059EF26F0BF
:104CAE0068EF26F002D866EF26F00500FA6E3D504A
:104CBE00FD6E3E50FE6E3F50FF6EFA501200010127
:104CCE001D991DA56DEF26F06FEF26F08DEF26F0E6
:104CDE0002D87CEF26F00500FA6E3A50FD6E3B507E
:104CEE00FE6E3C50FF6EFA501200010154A982EF85
:104CFE0026F084EF26F085EF26F0549960A98AEF0E
:104D0E0026F08CEF26F08DEF26F06099AE9C120007
:104D1E007F0E126E000E0E6E800E136E000E0F6E54
:104D2E00000E0C6E000E156E15500324D96E000E7B
:104D3E000420DA6EDF50146E1450800A0A6E125080
:104D4E00800A0A5CD8B0AEEF26F0B0EF26F0B4EFD2
:104D5E0026F014C512F515C50EF51350800A0A6E0D
:104D6E001450800A0A5CD8B0BFEF26F0C1EF26F0CF
:104D7E00C5EF26F014C513F515C50FF514500C2606
:104D8E00152A170E1564CEEF26F0D0EF26F09BEF06
:104D9E0026F05D50500DF3C40AF5F4C40BF54C50DB
:104DAE000A24106E000E0B20116E4C500324D96E87
:104DBE00000E0420DA6EDF500D6E11504E6E10C5CF
:104DCE004FF50DC550F5180E516E12C552F513C59F
:104DDE0053F50FC554F50EC555F5800E5D10166EC4
:104DEE00F30E176E380E186E180E196E1A9C1A9E48
:104DFE001A50C30B20091A6E1A921A804E0E1B6E91
:104E0E00050E1C6E4C2A170E4C6410EF27F012EF95
:104E1E0027F014EF27F0000E4C6E21EE16F101EE86
:104E2E0003F1060EDBC4EBF4E806FCE21200000E02
:104E3E000C6E0ABE27EF27F025EF27F031EF27F093
:104E4E000A1E091E081E076C000E082209220A22DD
:104E5E00010E0C6E06BE38EF27F036EF27F042EF4C
:104E6E0027F0061E051E041E036C000E04220522EA
:104E7E000622010E0C1A000E0D6E000E0E6E000EA6
:104E8E000F6E000E106E0750081009100A10D8B4DD
:104E9E0053EF27F055EF27F08BEF27F0010E0B6E37
:104EAE005FEF27F0D8900736083609360A360B2AF8
:104EBE000AAE64EF27F066EF27F059EF27F0D8908F
:104ECE000D360E360F3610360750035C0850045858
:104EDE00095005580A500658D8A078EF27F07AEFF7
:104EEE0027F083EF27F00750035E0850045A09504D
:104EFE00055A0A50065A0D80D8900A3209320832E5
:104F0E0007320B2E66EF27F00C50D8B491EF27F036
:104F1E0093EF27F09BEF27F0101E0F1E0E1E0D6C49
:104F2E00000E0E220F2210220DC503F50EC504F53C
:104F3E000FC505F510C506F51200096E000E0A6EB6
:104F4E0020EE04F00450D9260550DA22DF500B6E05
:104F5E000BAEB4EF27F0B6EF27F0C1EF27F02FEC32
:104F6E002BF0060AD8A4BEEF27F0C0EF27F0C1EF52
:104F7E0027F00A820B30E8320F0B066E080E06641D
:104F8E00CBEF27F0CDEF27F0DFEF27F00BACD2EF12
:104F9E0027F0D4EF27F0DEEF27F02FEC2BF0060AE8
:104FAE00D8A4DCEF27F0DEEF27F0DFEF27F00A8042
:104FBE00090EF66E370EF76E000EF86E0800F5C489
:104FCE0006F50B30E8320F0B076E0750010F086E17
:104FDE0008C5F6F4370EF76E000EF86E0800F550A1
:104FEE00065CD8B0FDEF27F0FFEF27F000EF28F0BA
:104FFE000A800950B5EC2AF00009D8A409EF28F070
:10500E000BEF28F00DEF28F0030E0A120A501200D3
:10501E00000E0301F96F000EFA6F000ED86F000E2E
:10502E00FB6F000ED96F000EDA6F000EDB6F000EF5
:10503E00DC6F000EDF6F000EE06F000EE36F000EF0
:10504E00E46F000EE56F000EE66F000EE76F000EC8
:10505E00EA6F000EEB6F000EEC6F000EEE6F000E9F
:10506E00EF6F000EF06F000EF16F000EF26F000E7C
:10507E00F36F000EF46F100EF56F000EF66F000E4C
:10508E00F76F000EF86F000EFC6FAF94AF96B090F6
:10509E00000E036E000E046E000E056E21EC2BF05A
:1050AE00000E036E000E046E000E056E13EC2BF058
:1050BE00000E036E000E046E000E056E1AEC2BF041
:1050CE00840E0301F36F12001E6E1E5004EC2AF0C4
:1050DE000009D8B475EF28F077EF28F0B2EF28F07A
:1050EE0019C504F51AC505F51E50A4EC27F01B6E64
:1050FE001B50D8A485EF28F087EF28F0B2EF28F0E8
:10510E001E500C0D580EF324D96E010EF420DA6EDB
:10511E00DEC41CF5DDC41DF51C501D10D8B49AEF6D
:10512E0028F09CEF28F0B2EF28F01CC50EF51DC537
:10513E000FF519C510F51AC511F587EC23F01E50A1
:10514E000C0D510EF324D96E010EF420DA6E030EFF
:10515E00DF12B2EF28F012000E0EF66E370EF76E5B
:10516E00000EF86E01EE93F114EE00F00900F5C496
:10517E00EEF4E550E150FAE1E250F8E13A0EF66E47
:10518E00550EF76E000EF86E01EE78F110EE18F077
:10519E000900F5C4EEF4E550E150FAE1740EF66E36
:1051AE00560EF76E000EF86E0900F5C45CF5090098
:1051BE00F5C45DF501EE60F1180EEE6AE806FDE14C
:1051CE0001EE3AF11C0EEE6AE806FDE10401080E4E
:1051DE005D6F000E5E6F000E5F6F00019BEF24F09F
:1051EE00056E000E046E2FEC2BF0036E040E0318EA
:1051FE00D8B404EF29F006EF29F017EF29F00504D3
:10520E00D8B40CEF29F00EEF29F017EF29F0040EA9
:10521E000518D8A415EF29F017EF29F037EF29F06C
:10522E00010103510518F80B0518036F2AEF29F039
:10523E001DA924EF29F026EF29F02AEF29F0020EFE
:10524E00046E39EF29F00239E832070B0518D8A49D
:10525E0033EF29F035EF29F01FEF29F039EF29F060
:10526E00010E046E04501200000EC26E000EC16ECE
:10527E00000EBE6E000EBF6E000EC06E070ECA6E22
:10528E00C668C768C868FD0EC96EC00E0401186FE7
:10529E0010690869070E206F00693C0E196F000E29
:1052AE00216F000E096F000E016F000E116F000EC0
:1052BE00226F000E026F000E0A6F000E126F000EAC
:1052CE001A6F03690B6913691B69070E236F046953
:1052DE000C6914691C690F0E246F180E02013D6FC4
:1052EE00460E1A6F12007C0E036E560E046E000EE2
:1052FE00056EFEEC2AF07E0E036E560E046E000E48
:10530E00056E05EC2BF0800E036E560E046E000E2D
:10531E00056E0CEC2BF07A0E036E560E046E000E1C
:10532E00056EF7EC2AF0780E036E560E046E000E24
:10533E00056EF0EC2AF0760E036E560E046E000E1D
:10534E00056EE9EC2AF0AE9C000E01011C6F000EFA
:10535E001D6F080E1E6FFC0E1F6F9E8C120005C572
:10536E000BF506C50CF503C509F504C50AF5D0EF16
:10537E0029F00BC5D9F40CC5DAF4DF500D6E0B4ACB
:10538E000C2A09C5D9F40AC5DAF40DC5DFF4094AA9
:10539E000A2A0706D8A00806072806E10828D8A476
:1053AE00DBEF29F0DDEF29F0C0EF29F0120001014B
:1053BE00018F040EF7EC28F00009D8A4E9EF29F0CC
:1053CE00EBEF29F003EF2AF0000E01014C6F380EBF
:1053DE004D6F000E4E6F000E4F6F600E006F970EEA
:1053EE00016F100E026FD7EC2AF07EEC2AF07AECE9
:1053FE0029F0060EF7EC28F01200046E000E036E74
:10540E00040E04600DEF2AF00FEF2AF021EF2AF0C0
:10541E0004500C0D500EF324D96E010EF420DA6EEA
:10542E000101DFAE1DEF2AF01FEF2AF021EF2AF067
:10543E00010E036E03501200000E066E000E076E74
:10544E0032EF2AF007500324D96E000E0420DA6ED4
:10545E00DF500626072A0550075CD8A039EF2AF040
:10546E003BEF2AF029EF2AF006501200FAC401F59C
:10547E00FBC402F59EAC46EF2AF048EF2AF051EF3E
:10548E002AF0AEAC4DEF2AF04FEF2AF051EF2AF092
:10549E00F9EC25F002C5FBF401C5FAF41100000E7B
:1054AE000001606F000E616F000E626F000E636F81
:1054BE00000E646F000E656F000E666F000E676F54
:1054CE00000E686F1200066E000E056E065004EC9C
:1054DE002AF00009D8B476EF2AF078EF2AF07CEFA4
:1054EE002AF00650B5EC2AF0056E05501200100E8B
:1054FE000101506F040E516F600E526F010E536F0B
:10550E00900E5C6F040E5D6F600E5E6F050E5F6F2A
:10551E00120038EC2BF056EC2AF03BEC29F00FEC95
:10552E0028F0A9EC2AF0DEEC29F012001617000183
:10553E001415020312130405101120211E1F080951
:10554E000C0D0A0B600E0001AD6F000EAF6F000E5A
:10555E00B36F020EB16F000EB06F1200036E0350E8
:10556E000C0D540EF324D96E010EF420DA6EDF50BA
:10557E00010B12000301F3A1C7EF2AF0CAEF2AF0C4
:10558E00010ECBEF2AF0000E12000301EB51066E56
:10559E00056AEA510524036E000E0620046E120001
:1055AE00010E0101046F010E056F040E066F000E51
:1055BE00076F1200930E0324D96E050E0420DA6EC7
:1055CE00DF50120003C53AF504C53BF505C53CF5A1
:1055DE00120003C53DF504C53EF505C53FF51200A5
:1055EE0003C540F504C541F505C542F5120003C5D6
:1055FE0049F504C54AF505C54BF5120003C546F538
:10560E0004C547F505C548F5120003C543F504C5A5
:10561E0044F505C545F5120003C556F504C557F505
:10562E0005C558F5120003C590F504C591F505C5DD
:10563E0092F5120003C559F504C55AF505C55BF57B
:10564E001200036E03C5ECF30301F38FF381120016
:10565E0001010239E832070B1200036E03C5FBF39A
:10566E001200D69A1200010112001200120012004E
:04567E001200120004
:020000040030CA
:10000000ECEEF7FF9FFFFFFFFFFFFFFFFFFFFFFF8C
:03001000FFFFFFF0
:08001700FFFFFFFFFFFFFFFFE9
:00000001FF
