:040000000DEF00F010
:040008003EEF22F0B5
:06001800FF008FEF21F054
:0D3700000000010203040506070850010047
:10370E0010C5D9F411C5DAF4DEC415F5DEC416F50C
:10371E00DEC417F5DEC418F520EE04F01050D926DD
:10372E001150DA22DFA09EEF1BF0A0EF1BF0D9EFB5
:10373E001BF020EE01F00E50D9260F50DA2215386C
:10374E00E842F80BF80BDF6E050E126ED8901832A9
:10375E00173216321532122EADEF1BF020EE02F09C
:10376E000E50D9260F50DA2215C5DFF416C515F501
:10377E0017C516F518C517F5186A20EE03F00E508A
:10378E00D9260F50DA2215501F0BDF6E050E126E62
:10379E00D8901832173216321532122ECFEF1BF088
:1037AE00F0EF1BF020EE03F00E50D9260F50DA2268
:1037BE00DF6A10EE02F00E50E1260F50E222DFC457
:1037CE00E7F420EE01F00E50D9260F50DA22E7C4AE
:1037DE00DFF40EC5D9F40FC5DAF415C5DFF416C53E
:1037EE0015F517C516F518C517F5186A15C512F58E
:1037FE00070E121620EE01F00E50D9260F50DA22C7
:10380E001250DF1220EE04F01050D9261150DA2299
:10381E00DF30E8320F0B146E20EE04F01050D92674
:10382E001150DA22DFB01EEF1CF022EF1CF0126AEC
:10383E00122A23EF1CF0126A1238F00B141220EE2B
:10384E0004F01050D9261150DA22DFB231EF1CF0FD
:10385E0035EF1CF0200E126E36EF1CF0126A12506D
:10386E00141220EE04F01050D9261150DA22DFBEC9
:10387E0043EF1CF047EF1CF0400E126E48EF1CF0A9
:10388E00126A1250141220EE04F01050D926115064
:10389E00DA22DFBC55EF1CF059EF1CF0800E126ED1
:1038AE005AEF1CF0126A1250141220EE04F00E5051
:1038BE00D9260F50DA2214C5DFF420EE04F0105092
:1038CE00D9261150DA22DFB26FEF1CF071EF1CF027
:1038DE009AEF1CF0080E0E24036E000E0F20046EDD
:1038EE0020EE05F01050D9261150DA22DEC405F56F
:1038FE00DDC406F520EE04F01050D9261150DA2260
:10390E00DF30E8320F0B126E1250010F136E13C51B
:10391E00F6F4370EF76E000EF86E0800F550076ECF
:10392E00086AB7EC21F0120091EC22F0000E29EC9F
:10393E0023F0000E266E26501DEC23F0B6EC22F07E
:10394E000009D8B4ADEF1CF0AFEF1CF0A5EF1CF0E2
:10395E00C1EC22F003C524F504C525F524C503F5F5
:10396E0025C504F5D6EC22F0226E600E2624D96E03
:10397E00DA6A050EDA2222C5DFF4262A160E26642E
:10398E00CBEF1CF0CDEF1CF0A2EF1CF01FEF1DF0E3
:10399E00060ED0EC20F035EF1DF0000E6BEC22F091
:1039AE00E806D8A4DDEF1CF0DFEF1CF035EF1DF0BC
:1039BE00600E0B6E050E0C6E5BEC1EF021EE27F109
:1039CE00060EEBC4DBF4E806FCE2270E196E050EBC
:1039DE001A6E000E88EC20F0000E6BEC22F000093F
:1039EE00D8B4FCEF1CF0FEEF1CF0F3EF1CF0600EF1
:1039FE00036E050E046ED6EC1DF021EE27F1060EB9
:103A0E00EBC4DBF4E806FCE2270E196E050E1A6E07
:103A1E00000E88EC20F0000E6BEC22F00009D8B4FA
:103A2E001BEF1DF01DEF1DF012EF1DF035EF1DF019
:103A3E0024EC23F0226E236A2350000AD8B42AEF16
:103A4E001DF035EF1DF02250040AD8B4CFEF1CF054
:103A5E00020AD8B4D4EF1CF035EF1DF0820E226EA0
:103A6E00DE0EE82EFED7222EFCD7A0EF1CF00DEFB7
:103A7E0000F001011DAF46EF1DF048EF1DF057EFAE
:103A8E001DF002D855EF1DF00500FA6E3D50FD6E8B
:103A9E003E50FE6E3F50FF6EFA50120001011D9F08
:103AAE001DAD5CEF1DF05EEF1DF06DEF1DF002D849
:103ABE006BEF1DF00500FA6E3A50FD6E3B50FE6E38
:103ACE003C50FF6EFA50120001011D9D1DAB72EFAE
:103ADE001DF074EF1DF083EF1DF002D881EF1DF085
:103AEE000500FA6E3750FD6E3850FE6E3950FF6E7F
:103AFE00FA50120001011D9B1CA788EF1DF08AEFE2
:103B0E001DF099EF1DF002D897EF1DF00500FA6E2B
:103B1E003450FD6E3550FE6E3650FF6EFA50120068
:103B2E0001011C971DA99EEF1DF0A0EF1DF0AFEF38
:103B3E001DF002D8ADEF1DF00500FA6E3150FD6E8E
:103B4E003250FE6E3350FF6EFA50120001011D9975
:103B5E001DA5B4EF1DF0B6EF1DF0D4EF1DF002D889
:103B6E00C3EF1DF00500FA6E2E50FD6E2F50FE6E47
:103B7E003050FF6EFA501200010154A9C9EF1DF02A
:103B8E00CBEF1DF0CCEF1DF0549960A9D1EF1DF0D5
:103B9E00D3EF1DF0D4EF1DF06099AE9C12007F0E96
:103BAE00116E000E0D6E800E126E000E0E6E000E59
:103BBE000B6E000E146E14500324D96E000E0420EA
:103BCE00DA6EDF50136E1350800A0A6E1150800A9F
:103BDE000A5CD8B0F5EF1DF0F7EF1DF0FBEF1DF00E
:103BEE0013C511F514C50DF51250800A0A6E135047
:103BFE00800A0A5CD8B006EF1EF008EF1EF00CEF3C
:103C0E001EF013C512F514C50EF513500B26142A0B
:103C1E00170E146415EF1EF017EF1EF0E2EF1DF0F5
:103C2E0040C50FF5106A40500324D96E000E0420D3
:103C3E00DA6EDF500C6E1050426E0FC543F50CC598
:103C4E0044F5180E456E11C546F512C547F50EC55D
:103C5E0048F50DC549F5800E156EF30E166E380E2D
:103C6E00176E180E186E199C199E1950C30B200949
:103C7E00196E19921980420E1A6E050E1B6E402A8D
:103C8E00170E40644DEF1EF04FEF1EF051EF1EF079
:103C9E00000E406E21EE15F101EE03F1060EDBC4AF
:103CAE00EBF4E806FCE212007F0E176E000E146EA7
:103CBE00800E186E000E156E000E166E000E1A6E29
:103CCE001A500B24D96E000E0C20DA6EDF50196ECE
:103CDE001950800A126E1750800A125CD8B07AEF13
:103CEE001EF07CEF1EF080EF1EF019C517F51AC5F9
:103CFE0014F51850800A126E1950800A125CD8B052
:103D0E008BEF1EF08DEF1EF091EF1EF019C518F51A
:103D1E001AC515F5195016261A2A170E1A649AEF97
:103D2E001EF09CEF1EF067EF1EF01650036E046A35
:103D3E0003BE0406000E066E170E056ECAEC1FF0CB
:103D4E000328136E000E426E17C543F518C544F5D1
:103D5E0013C545F5180E466E15C547F514C548F53D
:103D6E00420E036E050E046E070E056E24EC22F055
:103D7E00410F496E800E1B6EF30E1C6E390E1D6EBA
:103D8E00180E1E6E1F9C1F9E1F50C30B20091F6E08
:103D9E001F921F80420E206E050E216E21EE1BF12A
:103DAE0001EE0BF1060EDBC4EBF4E806FCE21200AA
:103DBE00807F7F7F7F7F7F7F7F7F7F7F7F7F7B780F
:103DCE0075726F6D6B68666462615F5D5C5A5957A0
:103DDE005654535251504E4D4C4B4A494847464506
:103DEE00454443424140403F3E3D3D3C3B3B3A39DA
:103DFE003938373736353534333332323131303076
:103E0E002F2E2E2D2D2C2C2B2B2A2A2929282827F4
:103E1E00272626252525242423232222212121205D
:103E2E00201F1F1E1E1E1D1D1C1C1B1B1B1A1A19BC
:103E3E001919181817171716161515151414131314
:103E4E0013121211111110100F0F0F0E0E0E0D0D69
:103E5E000C0C0C0B0B0A0A0A0909080808070706BE
:103E6E00060505050404030303020201010000FF19
:103E7E00FFFFFEFEFDFDFCFCFBFBFAFAF9F9F8F87C
:103E8E00F7F7F6F6F5F5F4F3F3F2F2F1F0F0EFEFF3
:103E9E00EEEDEDECEBEAEAE9E8E7E6E5E4E3E2E194
:103EAE00E0DFDEDDDBDAD8D6D5D2D0CDCAC6C1B8DA
:103EBE00096E000E0A6E20EE04F00450D92605504D
:103ECE00DA22DF500B6E0BAE6FEF1FF071EF1FF0AB
:103EDE007CEF1FF024EC23F0060AD8A479EF1FF034
:103EEE007BEF1FF07CEF1FF00A820B30E8320F0BD6
:103EFE00066E080E066486EF1FF088EF1FF09AEF2D
:103F0E001FF00BAC8DEF1FF08FEF1FF099EF1FF02E
:103F1E0024EC23F0060AD8A497EF1FF099EF1FF0B8
:103F2E009AEF1FF00A80090EF66E370EF76E000E2E
:103F3E00F86E0800F5C406F50B30E8320F0B076E6D
:103F4E000750010F086E08C5F6F4370EF76E000E17
:103F5E00F86E0800F550065CD8B0B8EF1FF0BAEF57
:103F6E001FF0BBEF1FF00A800950AAEC22F00009E7
:103F7E00D8A4C4EF1FF0C6EF1FF0C8EF1FF0030E5A
:103F8E000A120A501200000E086E06BED3EF1FF082
:103F9E00D1EF1FF0D9EF1FF0056C061ED8B0062A20
:103FAE00010E086E04BEE0EF1FF0DEEF1FF0E6EF2D
:103FBE001FF0036C041ED8B0042A010E081A000E5E
:103FCE000A6E000E096E05500610D8B4F1EF1FF000
:103FDE00F3EF1FF01BEF20F0010E076EFBEF1FF04B
:103FEE00D89005360636072A06AE00EF20F002EF0F
:103FFE0020F0F7EF1FF0D89009360A360550035C13
:10400E0006500458D8A00EEF20F010EF20F015EF58
:10401E0020F00550035E0650045A0980D8900632EF
:10402E000532072E02EF20F00850D8B421EF20F011
:10403E0023EF20F027EF20F0096C0A1ED8B00A2AD1
:10404E0009C503F50AC504F51200000E0301F96F48
:10405E00000EFA6F000ED86F000EFB6F000ED96FB8
:10406E00000EDA6F000EDB6F000EDC6F000EDF6FDE
:10407E00000EE06F000EE36F000EE46F000EE56FB2
:10408E00000EE66F000EE76F000EEA6F000EEB6F8C
:10409E00000EEC6F000EEE6F000EEF6F000EF06F65
:1040AE00000EF16F000EF26F000EF36F000EF46F44
:1040BE00100EF56F000EF66F000EF76F000EF86F14
:1040CE00000EFC6FAF94AF96B090000E036E000E14
:1040DE00046E000E056E16EC23F0000E036E000E3D
:1040EE00046E000E056E08EC23F0000E036E000E3B
:1040FE00046E000E056E0FEC23F0840E0301F36FB9
:10410E0012001E6E1E5005EC22F00009D8B492EF7C
:10411E0020F094EF20F0CFEF20F019C504F51AC56A
:10412E0005F51E505FEC1FF01B6E1B50D8A4A2EFBE
:10413E0020F0A4EF20F0CFEF20F01E500C0D580E03
:10414E00F324D96E010EF420DA6EDEC41CF5DDC444
:10415E001DF51C501D10D8B4B7EF20F0B9EF20F0AC
:10416E00CFEF20F01CC50EF51DC50FF519C510F5C6
:10417E001AC511F587EC1BF01E500C0D510EF324D1
:10418E00D96E010EF420DA6E030EDF12CFEF20F09F
:10419E001200056E000E046E24EC23F0036E040E66
:1041AE000318D8B4DDEF20F0DFEF20F0F0EF20F0B1
:1041BE000504D8B4E5EF20F0E7EF20F0F0EF20F0A3
:1041CE00040E0518D8A4EEEF20F0F0EF20F010EF5B
:1041DE0021F0010103510518F80B0518036F03EFC9
:1041EE0021F01DA9FDEF20F0FFEF20F003EF21F0ED
:1041FE00020E046E12EF21F00239E832070B051899
:10420E00D8A40CEF21F00EEF21F0F8EF20F012EF12
:10421E0021F0010E046E04501200000EC26E000E4C
:10422E00C16E000EBE6E000EBF6E000EC06E070E8B
:10423E00CA6EC668C768C868FD0EC96EC00E040196
:10424E00186F10690869070E206F00693C0E196F10
:10425E00000E216F000E096F000E016F000E116F20
:10426E00000E226F000E026F000E0A6F000E126F0C
:10427E00000E1A6F03690B6913691B69070E236F12
:10428E0004690C6914691C690F0E246F180E020163
:10429E003D6F460E1A6F1200640E036E460E046ECC
:1042AE00000E056EF3EC22F0660E036E460E046EE3
:1042BE00000E056EFAEC22F0680E036E460E046ECA
:1042CE00000E056E01EC23F0620E036E460E046EB8
:1042DE00000E056EECEC22F0600E036E460E046EC0
:1042EE00000E056EE5EC22F05E0E036E460E046EB9
:1042FE00000E056EDEEC22F0AE9C000E01011C6F6E
:10430E00000E1D6F080E1E6FFC0E1F6F9E8C12008E
:10431E00BE0EF66E3D0EF76E000EF86E01EE00F25A
:10432E0010EE00F10900F5C4EEF4E550E150FAE1AB
:10433E00E250F8E101EE60F1180EEE6AE806FDE1DA
:10434E0001EE2EF11C0EEE6AE806FDE10401080EE8
:10435E005D6F000E5E6F000E5F6F00019BEF1CF035
:10436E0005C50BF506C50CF503C509F504C50AF51B
:10437E00D1EF21F00BC5D9F40CC5DAF4DF500D6E78
:10438E000B4A0C2A09C5D9F40AC5DAF40DC5DFF4B7
:10439E00094A0A2A0706D8A00806072806E10828AF
:1043AE00D8A4DCEF21F0DEEF21F0C1EF21F01200F6
:1043BE000101018F040ED0EC20F00009D8A4EAEF21
:1043CE0021F0ECEF21F004EF22F0000E01014C6F12
:1043DE00380E4D6F000E4E6F000E4F6F600E006F59
:1043EE00970E016F100E026FCCEC22F07FEC22F0D4
:1043FE0053EC21F0060ED0EC20F01200046E000EED
:10440E00036E040E04600EEF22F010EF22F022EF86
:10441E0022F004500C0D500EF324D96E010EF42030
:10442E00DA6E0101DFAE1EEF22F020EF22F022EF56
:10443E0022F0010E036E03501200000E066E000EE7
:10444E00076E33EF22F007500324D96E000E0420BE
:10445E00DA6EDF500626072A0550075CD8A03AEF21
:10446E0022F03CEF22F02AEF22F006501200FAC49E
:10447E0001F5FBC402F59EAC47EF22F049EF22F0A6
:10448E0052EF22F0AEAC4EEF22F050EF22F052EF90
:10449E0022F040EC1DF002C5FBF401C5FAF4110048
:1044AE00000E0001606F000E616F000E626F000E55
:1044BE00636F000E646F000E656F000E666F000E68
:1044CE00676F000E686F1200066E000E056E0650C6
:1044DE0005EC22F00009D8B477EF22F079EF22F044
:1044EE007DEF22F00650AAEC22F0056E0550120068
:1044FE00100E0101506F040E516F600E526F010EBF
:10450E00536F900E5C6F040E5D6F600E5E6F050E46
:10451E005F6F12002DEC23F057EC22F014EC21F01B
:10452E002CEC20F09EEC22F0DFEC21F01200600E5D
:10453E000001AD6F000EAF6F000EB36F020EB16FC4
:10454E00000EB06F1200036E03500C0D540EF324C8
:10455E00D96E010EF420DA6EDF50010B120003014A
:10456E00F3A1BCEF22F0BFEF22F0010EC0EF22F05C
:10457E00000E12000301EB51066E056AEA51052486
:10458E00036E000E0620046E1200010E0101046F70
:10459E00010E056F040E066F000E076F1200000E5F
:1045AE000324D96E060E0420DA6EDF50120003C506
:1045BE002EF504C52FF505C530F5120003C531F5EE
:1045CE0004C532F505C533F5120003C534F504C52F
:1045DE0035F505C536F5120003C53DF504C53EF5A6
:1045EE0005C53FF5120003C53AF504C53BF505C5F3
:1045FE003CF5120003C537F504C538F505C539F588
:10460E00120003C54DF504C54EF505C54FF5120054
:10461E0003C54AF504C54BF505C54CF5120003C597
:10462E0050F504C551F505C552F51200036E03C5CC
:10463E00ECF30301F38FF381120001010239E8322A
:10464E00070B1200036E03C5FBF31200D69A12007D
:0C465E00120012001200120012001200E4
:020000040030CA
:10000000ECEEF7FF9FFFFFFFFFFFFFFFFFFFFFFF8C
:03001000FFFFFFF0
:08001700FFFFFFFFFFFFFFFFE9
:00000001FF
