:040000000DEF00F010
:04000800CBEF21F029
:06001800FF0070EF21F073
:0D3700000000010203040506070850010047
:10370E0010C5D9F411C5DAF4DEC415F5DEC416F50C
:10371E00DEC417F5DEC418F520EE04F01050D926DD
:10372E001150DA22DFA09EEF1BF0A0EF1BF0D9EFB5
:10373E001BF020EE01F00E50D9260F50DA2215386C
:10374E00E842F80BF80BDF6E050E126ED8901832A9
:10375E00173216321532122EADEF1BF020EE02F09C
:10376E000E50D9260F50DA2215C5DFF416C515F501
:10377E0017C516F518C517F5186A20EE03F00E508A
:10378E00D9260F50DA2215501F0BDF6E050E126E62
:10379E00D8901832173216321532122ECFEF1BF088
:1037AE00F0EF1BF020EE03F00E50D9260F50DA2268
:1037BE00DF6A10EE02F00E50E1260F50E222DFC457
:1037CE00E7F420EE01F00E50D9260F50DA22E7C4AE
:1037DE00DFF40EC5D9F40FC5DAF415C5DFF416C53E
:1037EE0015F517C516F518C517F5186A15C512F58E
:1037FE00070E121620EE01F00E50D9260F50DA22C7
:10380E001250DF1220EE04F01050D9261150DA2299
:10381E00DF30E8320F0B146E20EE04F01050D92674
:10382E001150DA22DFB01EEF1CF022EF1CF0126AEC
:10383E00122A23EF1CF0126A1238F00B141220EE2B
:10384E0004F01050D9261150DA22DFB231EF1CF0FD
:10385E0035EF1CF0200E126E36EF1CF0126A12506D
:10386E00141220EE04F01050D9261150DA22DFBEC9
:10387E0043EF1CF047EF1CF0400E126E48EF1CF0A9
:10388E00126A1250141220EE04F01050D926115064
:10389E00DA22DFBC55EF1CF059EF1CF0800E126ED1
:1038AE005AEF1CF0126A1250141220EE04F00E5051
:1038BE00D9260F50DA2214C5DFF420EE04F0105092
:1038CE00D9261150DA22DFB26FEF1CF071EF1CF027
:1038DE009AEF1CF0080E0E24036E000E0F20046EDD
:1038EE0020EE05F01050D9261150DA22DEC405F56F
:1038FE00DDC406F520EE04F01050D9261150DA2260
:10390E00DF30E8320F0B126E1250010F136E13C51B
:10391E00F6F4370EF76E000EF86E0800F550076ECF
:10392E00086A22EC21F012001EEC22F0000EB6EC1A
:10393E0022F0000E236E2350AAEC22F043EC22F06C
:10394E000009D8B4ADEF1CF0AFEF1CF0A5EF1CF0E2
:10395E004EEC22F003C521F504C522F521C503F571
:10396E0022C504F563EC22F01F6E470E2324D96E98
:10397E00DA6A050EDA221FC5DFF4232A2350D8B4E3
:10398E00CBEF1CF0CDEF1CF0A2EF1CF01FEF1DF0E3
:10399E00060E63EC20F035EF1DF0000EF8EC21F072
:1039AE00E806D8A4DDEF1CF0DFEF1CF035EF1DF0BC
:1039BE00470E086E050E096EDBEC1EF021EE24F1AB
:1039CE00060EEBC4DBF4E806FCE2240E196E050EBF
:1039DE001A6E000E1BEC20F0000EF8EC21F0000920
:1039EE00D8B4FCEF1CF0FEEF1CF0F3EF1CF0470E0A
:1039FE00036E050E046ED6EC1DF021EE24F1060EBC
:103A0E00EBC4DBF4E806FCE2240E196E050E1A6E0A
:103A1E00000E1BEC20F0000EF8EC21F00009D8B4DB
:103A2E001BEF1DF01DEF1DF012EF1DF035EF1DF019
:103A3E00B1EC22F01F6E206A2050000AD8B42AEF93
:103A4E001DF035EF1DF01F50040AD8B4CFEF1CF057
:103A5E00020AD8B4D4EF1CF035EF1DF0820E1F6EA3
:103A6E00DE0EE82EFED71F2EFCD7A0EF1CF00DEFBA
:103A7E0000F001011DAF46EF1DF048EF1DF057EFAE
:103A8E001DF002D855EF1DF00500FA6E3A50FD6E8E
:103A9E003B50FE6E3C50FF6EFA50120001011D9F0E
:103AAE001DAD5CEF1DF05EEF1DF06DEF1DF002D849
:103ABE006BEF1DF00500FA6E3750FD6E3850FE6E3E
:103ACE003950FF6EFA50120001011D9D1DAB72EFB1
:103ADE001DF074EF1DF083EF1DF002D881EF1DF085
:103AEE000500FA6E3450FD6E3550FE6E3650FF6E88
:103AFE00FA50120001011D9B1CA788EF1DF08AEFE2
:103B0E001DF099EF1DF002D897EF1DF00500FA6E2B
:103B1E003150FD6E3250FE6E3350FF6EFA50120071
:103B2E0001011C971DA99EEF1DF0A0EF1DF0AFEF38
:103B3E001DF002D8ADEF1DF00500FA6E2E50FD6E91
:103B4E002F50FE6E3050FF6EFA50120001011D997B
:103B5E001DA5B4EF1DF0B6EF1DF0D4EF1DF002D889
:103B6E00C3EF1DF00500FA6E2B50FD6E2C50FE6E4D
:103B7E002D50FF6EFA501200010154A9C9EF1DF02D
:103B8E00CBEF1DF0CCEF1DF0549960A9D1EF1DF0D5
:103B9E00D3EF1DF0D4EF1DF06099AE9C12007F0E96
:103BAE00116E000E0D6E800E126E000E0E6E000E59
:103BBE000B6E000E146E14500324D96E000E0420EA
:103BCE00DA6EDF50136E1350800A0A6E1150800A9F
:103BDE000A5CD8B0F5EF1DF0F7EF1DF0FBEF1DF00E
:103BEE0013C511F514C50DF51250800A0A6E135047
:103BFE00800A0A5CD8B006EF1EF008EF1EF00CEF3C
:103C0E001EF013C512F514C50EF513500B26142A0B
:103C1E00010E146415EF1EF017EF1EF0E2EF1DF00B
:103C2E003DC50FF5106A3D500324D96E000E0420D9
:103C3E00DA6EDF500C6E10503F6E0FC540F50CC59E
:103C4E0041F5020E426E11C543F512C544F50EC57F
:103C5E0045F50DC546F5800E156EF30E166E380E33
:103C6E00176E180E186E199C199E1950C30B200949
:103C7E00196E199219803F0E1A6E050E1B6E3D2A93
:103C8E00010E3D644DEF1EF04FEF1EF051EF1EF092
:103C9E00000E3D6E21EE15F101EE03F1060EDBC4B2
:103CAE00EBF4E806FCE21200807F7F7F7F7F7F7F50
:103CBE007F7F7F7F7F7F7B7875726F6D6B686664A9
:103CCE0062615F5D5C5A59575654535251504E4D76
:103CDE004C4B4A4948474645454443424140403F84
:103CEE003E3D3D3C3B3B3A39393837373635353436
:103CFE0033333232313130302F2E2E2D2D2C2C2BC2
:103D0E002B2A2A2929282827272626252525242433
:103D1E002323222221212120201F1F1E1E1E1D1D96
:103D2E001C1C1B1B1B1A1A191919181817171716F2
:103D3E001615151514141313131212111111101048
:103D4E000F0F0F0E0E0E0D0D0C0C0C0B0B0A0A0A9C
:103D5E0009090808080707060605050504040303F4
:103D6E0003020201010000FFFFFFFEFEFDFDFCFC51
:103D7E00FBFBFAFAF9F9F8F8F7F7F6F6F5F5F4F3BE
:103D8E00F3F2F2F1F0F0EFEFEEEDEDECEBEAEAE943
:103D9E00E8E7E6E5E4E3E2E1E0DFDEDDDBDAD8D614
:103DAE00D5D2D0CDCAC6C1B87F0E146E000E116E1C
:103DBE00800E156E000E126E000E136E000E176E34
:103DCE0017500824D96E000E0920DA6EDF50166ED9
:103DDE001650800A0F6E1450800A0F5CD8B0FAEF9E
:103DEE001EF0FCEF1EF000EF1FF016C514F517C500
:103DFE0011F51550800A0F6E1650800A0F5CD8B060
:103E0E000BEF1FF00DEF1FF011EF1FF016C515F59C
:103E1E0017C512F516501326172A010E17641AEF3E
:103E2E001FF01CEF1FF0E7EF1EF01328106E000EB0
:103E3E003F6E14C540F515C541F510C542F5020E8D
:103E4E00436E12C544F511C545F53F0E036E050EC2
:103E5E00046E070E056EB1EC21F0410F466E800E1A
:103E6E00186EF30E196E390E1A6E180E1B6E1C9C00
:103E7E001C9E1C50C30B20091C6E1C921C803F0EF6
:103E8E001D6E050E1E6E21EE18F101EE08F1060EE6
:103E9E00DBC4EBF4E806FCE21200096E000E0A6EBB
:103EAE0020EE04F00450D9260550DA22DF500B6EB6
:103EBE000BAE64EF1FF066EF1FF071EF1FF0B1EC69
:103ECE0022F0060AD8A46EEF1FF070EF1FF071EF0C
:103EDE001FF00A820B30E8320F0B066E080E0664D6
:103EEE007BEF1FF07DEF1FF08FEF1FF00BAC82EF1B
:103EFE001FF084EF1FF08EEF1FF0B1EC22F0060AD8
:103F0E00D8A48CEF1FF08EEF1FF08FEF1FF00A80FA
:103F1E00090EF66E370EF76E000EF86E0800F5C439
:103F2E0006F50B30E8320F0B076E0750010F086EC7
:103F3E0008C5F6F4370EF76E000EF86E0800F55051
:103F4E00065CD8B0ADEF1FF0AFEF1FF0B0EF1FF073
:103F5E000A80095037EC22F00009D8A4B9EF1FF0FF
:103F6E00BBEF1FF0BDEF1FF0030E0A120A50120036
:103F7E00000E0301F96F000EFA6F000ED86F000EDF
:103F8E00FB6F000ED96F000EDA6F000EDB6F000EA6
:103F9E00DC6F000EDF6F000EE06F000EE36F000EA1
:103FAE00E46F000EE56F000EE66F000EE76F000E79
:103FBE00EA6F000EEB6F000EEC6F000EEE6F000E50
:103FCE00EF6F000EF06F000EF16F000EF26F000E2D
:103FDE00F36F000EF46F100EF56F000EF66F000EFD
:103FEE00F76F000EF86F000EFC6FAF94AF96B090A7
:103FFE00000E036E000E046E000E056EA3EC22F092
:10400E00000E036E000E046E000E056E95EC22F08F
:10401E00000E036E000E046E000E056E9CEC22F078
:10402E00840E0301F36F12001E6E1E5092EC21F0EF
:10403E000009D8B425EF20F027EF20F062EF20F032
:10404E0019C504F51AC505F51E5054EC1FF01B6E6C
:10405E001B50D8A435EF20F037EF20F062EF20F0A0
:10406E001E500C0D580EF324D96E010EF420DA6E8C
:10407E00DEC41CF5DDC41DF51C501D10D8B44AEF6E
:10408E0020F04CEF20F062EF20F01CC50EF51DC5A0
:10409E000FF519C510F51AC511F587EC1BF01E505A
:1040AE000C0D510EF324D96E010EF420DA6E030EB0
:1040BE00DF1262EF20F01200056E000E046EB1ECFE
:1040CE0022F0036E040E0318D8B470EF20F072EFD6
:1040DE0020F083EF20F00504D8B478EF20F07AEFCB
:1040EE0020F083EF20F0040E0518D8A481EF20F005
:1040FE0083EF20F0A3EF20F0010103510518F80B18
:10410E000518036F96EF20F01DA990EF20F092EFA7
:10411E0020F096EF20F0020E046EA5EF20F002398B
:10412E00E832070B0518D8A49FEF20F0A1EF20F07E
:10413E008BEF20F0A5EF20F0010E046E045012005C
:10414E00000EC26E000EC16E000EBE6E000EBF6E71
:10415E00000EC06E070ECA6EC668C768C868FD0E30
:10416E00C96EC00E0401186F10690869070E206F22
:10417E0000693C0E196F000E216F000E096F000EC4
:10418E00016F000E116F000E226F000E026F000EF7
:10419E000A6F000E126F000E1A6F03690B69136916
:1041AE001B69070E236F04690C6914691C690F0ED5
:1041BE00246F180E02013D6F460E1A6F12007E0E0E
:1041CE00036E450E046E000E056E80EC22F0800E1E
:1041DE00036E450E046E000E056E87EC22F0820E05
:1041EE00036E450E046E000E056E8EEC22F07C0EF4
:1041FE00036E450E046E000E056E79EC22F07A0EFB
:10420E00036E450E046E000E056E72EC22F0780EF3
:10421E00036E450E046E000E056E6BEC22F0AE9C26
:10422E00000E01011C6F000E1D6F080E1E6FFC0E9E
:10423E001F6F9E8C120005C50BF506C50CF503C548
:10424E0009F504C50AF53CEF21F00BC5D9F40CC5F0
:10425E00DAF4DF500D6E0B4A0C2A09C5D9F40AC5E3
:10426E00DAF40DC5DFF4094A0A2A0706D8A00806B3
:10427E00072806E10828D8A447EF21F049EF21F0DE
:10428E002CEF21F012000101018F040E63EC20F0DF
:10429E000009D8A455EF21F057EF21F06FEF21F070
:1042AE00000E01014C6F380E4D6F000E4E6F000E5A
:1042BE004F6F600E006F970E016F100E026F59EC6C
:1042CE0022F00CEC22F0E6EC20F0060E63EC20F06F
:1042DE001200B60EF66E3C0EF76E000EF86E01EE84
:1042EE0000F210EE00F10900F5C4EEF4E550E150D5
:1042FE00FAE1E250F8E101EE2BF11E0EEE6AE8064D
:10430E00FDE10401080E5D6F000E5E6F000E5F6F23
:10431E0000019BEF1CF0046E000E036E040E046091
:10432E009BEF21F09DEF21F0AFEF21F004500C0D2B
:10433E00500EF324D96E010EF420DA6E0101DFAEB9
:10434E00ABEF21F0ADEF21F0AFEF21F0010E036ED8
:10435E0003501200000E066E000E076EC0EF21F025
:10436E0007500324D96E000E0420DA6EDF500626A5
:10437E00072A0550075CD8A0C7EF21F0C9EF21F03E
:10438E00B7EF21F006501200FAC401F5FBC402F596
:10439E009EACD4EF21F0D6EF21F0DFEF21F0AEACE2
:1043AE00DBEF21F0DDEF21F0DFEF21F040EC1DF02F
:1043BE0002C5FBF401C5FAF41100000E0001606F96
:1043CE00000E616F000E626F000E636F000E646F61
:1043DE00000E656F000E666F000E676F000E686F41
:1043EE001200066E000E056E065092EC21F00009CA
:1043FE00D8B404EF22F006EF22F00AEF22F00650B6
:10440E0037EC22F0056E05501200100E0101506FB0
:10441E00040E516F600E526F010E536F900E5C6F53
:10442E00040E5D6F600E5E6F050E5F6F1200BAECCC
:10443E0022F0E4EC21F0A7EC20F0BFEC1FF02BEC07
:10444E0022F04AEC21F01200600E0001AD6F000E5A
:10445E00AF6F000EB36F020EB16F000EB06F120091
:10446E00036E03500C0D540EF324D96E010EF4207E
:10447E00DA6EDF50010B12000301F3A149EF22F0B7
:10448E004CEF22F0010E4DEF22F0000E1200030150
:10449E00EB51066E056AEA510524036E000E0620E6
:1044AE00046E1200010E0101046F010E056F040E61
:1044BE00066F000E076F1200000E0324D96E060E53
:1044CE000420DA6EDF50120003C52BF504C52CF55F
:1044DE0005C52DF5120003C52EF504C52FF505C52E
:1044EE0030F5120003C531F504C532F505C533F5B7
:1044FE00120003C53AF504C53BF505C53CF512009F
:10450E0003C537F504C538F505C539F5120003C5E1
:10451E0034F504C535F505C536F5120003C54CF561
:10452E0004C54DF505C54EF5120003C549F504C584
:10453E004AF505C54BF5120003C54FF504C550F5F8
:10454E0005C551F51200036E03C5ECF30301F38F9D
:10455E00F381120001010239E832070B1200036EDB
:10456E0003C5FBF31200D69A1200120012001200BD
:06457E0012001200120001
:020000040030CA
:10000000ECEEF7FF9FFFFFFFFFFFFFFFFFFFFFFF8C
:03001000FFFFFFF0
:08001700FFFFFFFFFFFFFFFFE9
:00000001FF
