:040000000DEF00F010
:0400080071EF2AF07A
:06001800FF00B2EF29F029
:0D3700000000010203040506070850010047
:10370E00807F7F7F7F7F7F7F7F7F7F7F7F7F7F7FBA
:10371E007F7F7F7F7F7F7F7F7F7F7F7F7F7F7F7FAB
:10372E007F7F7F7F7F7F7F7F7F7F7F7F7F7F7F7F9B
:10373E007F7F7F7F7F7F7F7F7F7F7F7F7F7F7F7F8B
:10374E007F7F7F7F7F7F7F7F7F7F7F7F7F7F7F7F7B
:10375E007F7F7F7F7F7F7F7F7F7F7F7F7F7F7F7F6B
:10376E007F7F7F7F7F7F7F7F7F7F7F7F7F7F7F7F5B
:10377E007F7F7F7F7F7F7F7F7F7F7F7F7F7F7F7F4B
:10378E007F7F7F7F7F7F7F7F7F7F7F7F7F7F7F7F3B
:10379E007F7F7F7F7F7F7F7F7F7F7F7F7F7F7F7F2B
:1037AE007F7F7F7F7F7F7F7F7F7F7F7F7F7F7F7F1B
:1037BE007F7F7F7F7F7F7F7F7F7F7F7F7F7F7F7F0B
:1037CE007F7F7F7F7F7F7F7F7F7F7F7F7F7F7F7FFB
:1037DE007F7F7F7E7E7E7E7D7D7D7D7D7C7C7C7C05
:1037EE007B7B7B7B7B7A7A7A7A7A7979797979782D
:1037FE007878787877777777777676767676757550
:10380E00757575747474747474737373737373726F
:10381E00727272727171717171717070707070708C
:10382E006F6F6F6F6F6F6F6E6E6E6E6E6E6D6D6DA6
:10383E006D6D6D6D6C6C6C6C6C6C6B6B6B6B6B6BBC
:10384E006B6A6A6A6A6A6A6A6969696969696969D1
:10385E0068686868686868676767676767676766E4
:10386E0066666666666666656565656565656564F4
:10387E006464646464646463636363636363636303
:10388E006262626262626262616161616161616112
:10389E00616060606060606060605F5F5F5F5F5F1F
:1038AE005F5F5F5F5E5E5E5E5E5E5E5E5E5D5D5D29
:1038BE005D5D5D5D5D5D5D5C5C5C5C5C5C5C5C5C33
:1038CE005C5B5B5B5B5B5B5B5B5B5B5B5A5A5A5A3D
:1038DE005A5A5A5A5A5A5A59595959595959595943
:1038EE00595958585858585858585858585757574B
:1038FE005757575757575757565656565656565652
:10390E005656565655555555555555555555555555
:10391E00545454545454545454545454545353535C
:10392E005353535353535353535252525252525260
:10393E005252525252525251515151515151515162
:10394E005151515150505050505050505050505065
:10395E0050504F4F4F4F4F4F4F4F4F4F4F4F4F4F67
:10396E004E4E4E4E4E4E4E4E4E4E4E4E4E4E4D4D6B
:10397E004D4D4D4D4D4D4D4D4D4D4D4D4D4C4C4C6C
:10398E004C4C4C4C4C4C4C4C4C4C4C4C4C4B4B4B6C
:10399E004B4B4B4B4B4B4B4B4B4B4B4B4A4A4A4A6D
:1039AE004A4A4A4A4A4A4A4A4A4A4A4A494949496D
:1039BE00494949494949494949494949494848486C
:1039CE00484848484848484848484848484747476C
:1039DE00474747474747474747474747474747466A
:1039EE004646464646464646464646464646464669
:1039FE004545454545454545454545454545454569
:103A0E004545454444444444444444444444444465
:103A1E004444444444434343434343434343434363
:103A2E004343434343434343424242424242424260
:103A3E00424242424242424242424242414141415C
:103A4E004141414141414141414141414141414059
:103A5E004040404040404040404040404040404058
:103A6E00404040403F3F3F3F3F3F3F3F3F3F3F3F54
:103A7E003F3F3F3F3F3F3F3F3F3E3E3E3E3E3E3E4F
:103A8E003E3E3E3E3E3E3E3E3E3E3E3E3E3E3D3D4A
:103A9E003D3D3D3D3D3D3D3D3D3D3D3D3D3D3D3D48
:103AAE003D3D3D3D3C3C3C3C3C3C3C3C3C3C3C3C44
:103ABE003C3C3C3C3C3C3C3C3C3C3B3B3B3B3B3B3E
:103ACE003B3B3B3B3B3B3B3B3B3B3B3B3B3B3B3B38
:103ADE003B3A3A3A3A3A3A3A3A3A3A3A3A3A3A3A37
:103AEE003A3A3A3A3A3A3A3A3A393939393939392F
:103AFE003939393939393939393939393939393928
:103B0E003938383838383838383838383838383826
:103B1E00383838383838383838373737373737371E
:103B2E003737373737373737373737373737373717
:103B3E003737363636363636363636363636363615
:103B4E00363636363636363636363636353535350B
:103B5E003535353535353535353535353535353507
:103B6E003535353535353434343434343434343401
:103B7E0034343434343434343434343434343434F7
:103B8E0033333333333333333333333333333333F7
:103B9E0033333333333333333333333332323232EB
:103BAE0032323232323232323232323232323232E7
:103BBE0032323232323232313131313131313131E0
:103BCE0031313131313131313131313131313131D7
:103BDE0031313131303030303030303030303030D3
:103BEE0030303030303030303030303030303030C7
:103BFE00302F2F2F2F2F2F2F2F2F2F2F2F2F2F2FC6
:103C0E002F2F2F2F2F2F2F2F2F2F2F2F2F2F2E2EB8
:103C1E002E2E2E2E2E2E2E2E2E2E2E2E2E2E2E2EB6
:103C2E002E2E2E2E2E2E2E2E2E2E2E2E2D2D2D2DAA
:103C3E002D2D2D2D2D2D2D2D2D2D2D2D2D2D2D2DA6
:103C4E002D2D2D2D2D2D2D2D2D2D2C2C2C2C2C2C9C
:103C5E002C2C2C2C2C2C2C2C2C2C2C2C2C2C2C2C96
:103C6E002C2C2C2C2C2C2C2C2C2B2B2B2B2B2B2B8D
:103C7E002B2B2B2B2B2B2B2B2B2B2B2B2B2B2B2B86
:103C8E002B2B2B2B2B2B2B2B2B2A2A2A2A2A2A2A7D
:103C9E002A2A2A2A2A2A2A2A2A2A2A2A2A2A2A2A76
:103CAE002A2A2A2A2A2A2A2A2A292929292929296D
:103CBE002929292929292929292929292929292966
:103CCE00292929292929292929292828282828285C
:103CDE002828282828282828282828282828282856
:103CEE00282828282828282828282827272727274B
:103CFE002727272727272727272727272727272746
:103D0E002727272727272727272727272726262638
:103D1E002626262626262626262626262626262635
:103D2E002626262626262626262626262626262526
:103D3E002525252525252525252525252525252525
:103D4E002525252525252525252525252525252515
:103D5E002525242424242424242424242424242413
:103D6E002424242424242424242424242424242405
:103D7E002424242424232323232323232323232300
:103D8E0023232323232323232323232323232323F5
:103D9E0023232323232323232322222222222222EC
:103DAE0022222222222222222222222222222222E5
:103DBE0022222222222222222222222222212121D8
:103DCE0021212121212121212121212121212121D5
:103DDE0021212121212121212121212121212121C5
:103DEE0021202020202020202020202020202020C4
:103DFE0020202020202020202020202020202020B5
:103E0E002020202020201F1F1F1F1F1F1F1F1F1FAE
:103E1E001F1F1F1F1F1F1F1F1F1F1F1F1F1F1F1FA4
:103E2E001F1F1F1F1F1F1F1F1F1F1F1F1E1E1E1E98
:103E3E001E1E1E1E1E1E1E1E1E1E1E1E1E1E1E1E94
:103E4E001E1E1E1E1E1E1E1E1E1E1E1E1E1E1E1E84
:103E5E001E1E1D1D1D1D1D1D1D1D1D1D1D1D1D1D82
:103E6E001D1D1D1D1D1D1D1D1D1D1D1D1D1D1D1D74
:103E7E001D1D1D1D1D1D1D1D1C1C1C1C1C1C1C1C6C
:103E8E001C1C1C1C1C1C1C1C1C1C1C1C1C1C1C1C64
:103E9E001C1C1C1C1C1C1C1C1C1C1C1C1C1C1C1B55
:103EAE001B1B1B1B1B1B1B1B1B1B1B1B1B1B1B1B54
:103EBE001B1B1B1B1B1B1B1B1B1B1B1B1B1B1B1B44
:103ECE001B1B1B1B1B1B1A1A1A1A1A1A1A1A1A1A3E
:103EDE001A1A1A1A1A1A1A1A1A1A1A1A1A1A1A1A34
:103EEE001A1A1A1A1A1A1A1A1A1A1A1A1A19191927
:103EFE001919191919191919191919191919191924
:103F0E001919191919191919191919191919191913
:103F1E00191919191818181818181818181818180F
:103F2E001818181818181818181818181818181803
:103F3E0018181818181818181818181817171717F7
:103F4E0017171717171717171717171717171717F3
:103F5E0017171717171717171717171717171717E3
:103F6E0017171717161616161616161616161616DF
:103F7E0016161616161616161616161616161616D3
:103F8E0016161616161616161616161615151515C7
:103F9E0015151515151515151515151515151515C3
:103FAE0015151515151515151515151515151515B3
:103FBE0015151515151414141414141414141414AE
:103FCE0014141414141414141414141414141414A3
:103FDE001414141414141414141414141413131396
:103FEE001313131313131313131313131313131393
:103FFE001313131313131313131313131313131383
:10400E00131313131313121212121212121212127C
:10401E001212121212121212121212121212121272
:10402E001212121212121212121212121212111164
:10403E001111111111111111111111111111111162
:10404E001111111111111111111111111111111152
:10405E00111111111111111010101010101010104B
:10406E001010101010101010101010101010101042
:10407E001010101010101010101010101010101032
:10408E000F0F0F0F0F0F0F0F0F0F0F0F0F0F0F0F32
:10409E000F0F0F0F0F0F0F0F0F0F0F0F0F0F0F0F22
:1040AE000F0F0F0F0F0F0F0F0E0E0E0E0E0E0E0E1A
:1040BE000E0E0E0E0E0E0E0E0E0E0E0E0E0E0E0E12
:1040CE000E0E0E0E0E0E0E0E0E0E0E0E0E0E0E0E02
:1040DE000E0D0D0D0D0D0D0D0D0D0D0D0D0D0D0D01
:1040EE000D0D0D0D0D0D0D0D0D0D0D0D0D0D0D0DF2
:1040FE000D0D0D0D0D0D0D0D0D0C0C0C0C0C0C0CE9
:10410E000C0C0C0C0C0C0C0C0C0C0C0C0C0C0C0CE1
:10411E000C0C0C0C0C0C0C0C0C0C0C0C0C0C0C0CD1
:10412E000C0C0B0B0B0B0B0B0B0B0B0B0B0B0B0BCF
:10413E000B0B0B0B0B0B0B0B0B0B0B0B0B0B0B0BC1
:10414E000B0B0B0B0B0B0B0B0B0B0A0A0A0A0A0AB7
:10415E000A0A0A0A0A0A0A0A0A0A0A0A0A0A0A0AB1
:10416E000A0A0A0A0A0A0A0A0A0A0A0A0A0A0A0AA1
:10417E000A0A09090909090909090909090909099F
:10418E000909090909090909090909090909090991
:10419E000909090909090909090908080808080887
:1041AE000808080808080808080808080808080881
:1041BE000808080808080808080808080808080871
:1041CE000807070707070707070707070707070770
:1041DE000707070707070707070707070707070761
:1041EE000707070707070707060606060606060659
:1041FE000606060606060606060606060606060651
:10420E000606060606060606060606060606060541
:10421E000505050505050505050505050505050540
:10422E000505050505050505050505050505050530
:10423E00050505050505040404040404040404042A
:10424E000404040404040404040404040404040420
:10425E000404040404040404040404040303030314
:10426E000303030303030303030303030303030310
:10427E000303030303030303030303030303030300
:10428E0003020202020202020202020202020202FF
:10429E0002020202020202020202020202020202F0
:1042AE0002020202020202010101010101010101E9
:1042BE0001010101010101010101010101010101E0
:1042CE0001010101010101010101010000000000D5
:1042DE0000000000000000000000000000000000D0
:1042EE00000000000000000000000000000000FFC1
:1042FE00FFFFFFFFFFFFFFFFFFFFFFFFFFFFFFFFC0
:10430E00FFFFFFFFFFFFFFFFFFFFFFFFFFFFFFFFAF
:10431E00FFFFFFFEFEFEFEFEFEFEFEFEFEFEFEFEAC
:10432E00FEFEFEFEFEFEFEFEFEFEFEFEFEFEFEFE9F
:10433E00FEFEFEFEFEFEFDFDFDFDFDFDFDFDFDFD99
:10434E00FDFDFDFDFDFDFDFDFDFDFDFDFDFDFDFD8F
:10435E00FDFDFDFDFDFDFDFDFCFCFCFCFCFCFCFC87
:10436E00FCFCFCFCFCFCFCFCFCFCFCFCFCFCFCFC7F
:10437E00FCFCFCFCFCFCFCFCFCFCFBFBFBFBFBFB75
:10438E00FBFBFBFBFBFBFBFBFBFBFBFBFBFBFBFB6F
:10439E00FBFBFBFBFBFBFBFBFBFBFBFAFAFAFAFA64
:1043AE00FAFAFAFAFAFAFAFAFAFAFAFAFAFAFAFA5F
:1043BE00FAFAFAFAFAFAFAFAFAFAFAFAF9F9F9F953
:1043CE00F9F9F9F9F9F9F9F9F9F9F9F9F9F9F9F94F
:1043DE00F9F9F9F9F9F9F9F9F9F9F9F9F8F8F8F843
:1043EE00F8F8F8F8F8F8F8F8F8F8F8F8F8F8F8F83F
:1043FE00F8F8F8F8F8F8F8F8F8F8F8F7F7F7F7F734
:10440E00F7F7F7F7F7F7F7F7F7F7F7F7F7F7F7F72E
:10441E00F7F7F7F7F7F7F7F7F7F6F6F6F6F6F6F625
:10442E00F6F6F6F6F6F6F6F6F6F6F6F6F6F6F6F61E
:10443E00F6F6F6F6F6F6F6F5F5F5F5F5F5F5F5F517
:10444E00F5F5F5F5F5F5F5F5F5F5F5F5F5F5F5F50E
:10445E00F5F5F5F5F4F4F4F4F4F4F4F4F4F4F4F40A
:10446E00F4F4F4F4F4F4F4F4F4F4F4F4F4F4F4F4FE
:10447E00F3F3F3F3F3F3F3F3F3F3F3F3F3F3F3F3FE
:10448E00F3F3F3F3F3F3F3F3F3F3F3F3F2F2F2F2F2
:10449E00F2F2F2F2F2F2F2F2F2F2F2F2F2F2F2F2EE
:1044AE00F2F2F2F2F2F2F1F1F1F1F1F1F1F1F1F1E8
:1044BE00F1F1F1F1F1F1F1F1F1F1F1F1F1F1F1F1DE
:1044CE00F0F0F0F0F0F0F0F0F0F0F0F0F0F0F0F0DE
:1044DE00F0F0F0F0F0F0F0F0F0F0EFEFEFEFEFEFD4
:1044EE00EFEFEFEFEFEFEFEFEFEFEFEFEFEFEFEFCE
:1044FE00EFEFEEEEEEEEEEEEEEEEEEEEEEEEEEEECC
:10450E00EEEEEEEEEEEEEEEEEEEEEDEDEDEDEDEDC3
:10451E00EDEDEDEDEDEDEDEDEDEDEDEDEDEDEDEDBD
:10452E00EDECECECECECECECECECECECECECECECBC
:10453E00ECECECECECECECEBEBEBEBEBEBEBEBEBB6
:10454E00EBEBEBEBEBEBEBEBEBEBEBEBEBEAEAEAB0
:10455E00EAEAEAEAEAEAEAEAEAEAEAEAEAEAEAEAAD
:10456E00EAEAE9E9E9E9E9E9E9E9E9E9E9E9E9E9AB
:10457E00E9E9E9E9E9E9E8E8E8E8E8E8E8E8E8E8A7
:10458E00E8E8E8E8E8E8E8E8E8E7E7E7E7E7E7E7A4
:10459E00E7E7E7E7E7E7E7E7E7E7E7E7E6E6E6E6A1
:1045AE00E6E6E6E6E6E6E6E6E6E6E6E6E6E5E5E5A0
:1045BE00E5E5E5E5E5E5E5E5E5E5E5E5E5E5E5E49E
:1045CE00E4E4E4E4E4E4E4E4E4E4E4E4E4E4E4E39E
:1045DE00E3E3E3E3E3E3E3E3E3E3E3E3E3E3E3E29E
:1045EE00E2E2E2E2E2E2E2E2E2E2E2E2E2E2E1E19F
:1045FE00E1E1E1E1E1E1E1E1E1E1E1E1E1E0E0E0A0
:10460E00E0E0E0E0E0E0E0E0E0E0E0DFDFDFDFDFA1
:10461E00DFDFDFDFDFDFDFDFDEDEDEDEDEDEDEDEA4
:10462E00DEDEDEDEDEDDDDDDDDDDDDDDDDDDDDDDA7
:10463E00DDDDDCDCDCDCDCDCDCDCDCDCDCDBDBDBAD
:10464E00DBDBDBDBDBDBDBDBDADADADADADADADAB4
:10465E00DADADAD9D9D9D9D9D9D9D9D9D9D8D8D8BC
:10466E00D8D8D8D8D8D8D8D7D7D7D7D7D7D7D7D7C5
:10467E00D6D6D6D6D6D6D6D6D6D5D5D5D5D5D5D5D3
:10468E00D5D4D4D4D4D4D4D4D4D3D3D3D3D3D3D3E2
:10469E00D2D2D2D2D2D2D2D1D1D1D1D1D1D1D0D0F7
:1046AE00D0D0D0D0CFCFCFCFCFCFCECECECECECE0E
:1046BE00CDCDCDCDCDCCCCCCCCCCCBCBCBCBCBCA2E
:1046CE00CACACACAC9C9C9C9C8C8C8C8C7C7C7C655
:1046DE00C6C6C6C5C5C5C4C4C4C3C3C3C2C2C2C18F
:1046EE00C1C0C0C0BFBFBEBEBDBDBCBCBBBABAB9E7
:1046FE00B8B8B7B6B5B4B3B2B0AFADABA9A6A29CBD
:10470E0010C5D9F411C5DAF4DEC415F5DEC416F5FC
:10471E00DEC417F5DEC418F520EE04F01050D926CD
:10472E001150DA22DFA09EEF23F0A0EF23F0D9EF95
:10473E0023F020EE01F00E50D9260F50DA22153854
:10474E00E842F80BF80BDF6E050E126ED890183299
:10475E00173216321532122EADEF23F020EE02F084
:10476E000E50D9260F50DA2215C5DFF416C515F5F1
:10477E0017C516F518C517F5186A20EE03F00E507A
:10478E00D9260F50DA2215501F0BDF6E050E126E52
:10479E00D8901832173216321532122ECFEF23F070
:1047AE00F0EF23F020EE03F00E50D9260F50DA2250
:1047BE00DF6A10EE02F00E50E1260F50E222DFC447
:1047CE00E7F420EE01F00E50D9260F50DA22E7C49E
:1047DE00DFF40EC5D9F40FC5DAF415C5DFF416C52E
:1047EE0015F517C516F518C517F5186A15C512F57E
:1047FE00070E121620EE01F00E50D9260F50DA22B7
:10480E001250DF1220EE04F01050D9261150DA2289
:10481E00DF30E8320F0B146E20EE04F01050D92664
:10482E001150DA22DFB01EEF24F022EF24F0126ACC
:10483E00122A23EF24F0126A1238F00B141220EE13
:10484E0004F01050D9261150DA22DFB231EF24F0E5
:10485E0035EF24F0200E126E36EF24F0126A12504D
:10486E00141220EE04F01050D9261150DA22DFBEB9
:10487E0043EF24F047EF24F0400E126E48EF24F081
:10488E00126A1250141220EE04F01050D926115054
:10489E00DA22DFBC55EF24F059EF24F0800E126EB1
:1048AE005AEF24F0126A1250141220EE04F00E5039
:1048BE00D9260F50DA2214C5DFF420EE04F0105082
:1048CE00D9261150DA22DFB26FEF24F071EF24F007
:1048DE009AEF24F0080E0E24036E000E0F20046EC5
:1048EE0020EE05F01050D9261150DA22DEC405F55F
:1048FE00DDC406F520EE04F01050D9261150DA2250
:10490E00DF30E8320F0B126E1250010F136E13C50B
:10491E00F6F4370EF76E000EF86E0800F550076EBF
:10492E00086AEAEC29F01200C4EC2AF0000E68ECDA
:10493E002BF0D1B4A5EF24F0A9EF24F02E6A2E2A85
:10494E00AAEF24F02E6AD1BAAFEF24F0B2EF24F022
:10495E00010EB3EF24F0000EF80DF3C42FF5D1B80D
:10496E00BBEF24F0BEEF24F0010EBFEF24F0000EDB
:10497E00FC0DF3C430F5D1B6C7EF24F0CAEF24F026
:10498E00010ECBEF24F0000EFE0DF35030242F2439
:10499E00316E2E50315C100F456E000E0501996F71
:1049AE00140E9919D8A4DEEF24F0E0EF24F00BEFEB
:1049BE0025F0780E9925D96EDA6A050EDA22DF50C7
:1049CE005CEC2BF0F5EC2AF00009D8B4F1EF24F0F2
:1049DE00F3EF24F0E9EF24F000EC2BF003C590F593
:1049EE0004C591F590C503F591C504F515EC2BF0B2
:1049FE002E6E600E05019925D96EDA6A050EDA2241
:104A0E002EC5DFF413EF25F0600E9925D96EDA6A04
:104A1E00050EDA220F0EDF6E992B170E99651AEF1F
:104A2E0025F01CEF25F0D7EF24F072EF25F0060EDF
:104A3E00F3EC28F088EF25F0000E9EEC2AF0E80645
:104A4E00D8A42CEF25F02EEF25F088EF25F0600E80
:104A5E00116E050E126E45C513F593EC25F021EE81
:104A6E0092F1060EEBC4DBF4E806FCE2920E196E30
:104A7E00050E1A6E000EABEC28F0000E9EEC2AF01E
:104A8E000009D8B44DEF25F04FEF25F044EF25F097
:104A9E00600E036E050E046E45C505F5CCEC26F0D2
:104AAE0021EE92F1060EEBC4DBF4E806FCE2920E68
:104ABE00196E050E1A6E000EABEC28F0000E9EEC71
:104ACE002AF00009D8B46EEF25F070EF25F065EFEF
:104ADE0025F088EF25F063EC2BF02E6E2F6A2F5009
:104AEE00000AD8B47DEF25F088EF25F02E50040A89
:104AFE00D8B41EEF25F0020AD8B423EF25F088EFC4
:104B0E0025F0820E2E6EDE0EE82EFED72E2EFCD750
:104B1E00D4EF24F00DEF00F07F0E236E000E216E09
:104B2E00800E246E000E226E000E1C6E000E1D6E88
:104B3E00000E1E6E000E1F6E000E266E26501124E5
:104B4E00D96E000E1220DA6EDF50256E2550800AC7
:104B5E00186E2350800A185CD8B0B8EF25F0BAEF63
:104B6E0025F0BEEF25F025C523F526C521F52450E9
:104B7E00800A186E2550800A185CD8B0C9EF25F04F
:104B8E00CBEF25F0CFEF25F025C524F526C522F570
:104B9E002550186E000E18BEFF0E196E1A6E1B6E83
:104BAE0018501C2619501D221A501E221B501F224F
:104BBE00262A170E2664E6EF25F0E8EF25F0A5EF7E
:104BCE0025F01CC503F51DC504F51EC505F51FC54D
:104BDE0006F5180E076E000E086E000E096E000E1A
:104BEE000A6E5EEC27F00350206E1304476E23C549
:104BFE0048F524C549F520C54AF5180E4B6E22C559
:104C0E004CF521C54DF5470E036E050E046E070ECD
:104C1E00056E57EC2AF0410F4E6E800E1324276E50
:104C2E00286AF30E2822296A390E29222A6A180EBA
:104C3E002A222B9C2B9E2B50C30B20092B6E2B92C2
:104C4E002B80470E2C6E050E2D6E21EE27F101EEF8
:104C5E0011F1060EDBC4EBF4E806FCE212000101D2
:104C6E001DAF3CEF26F03EEF26F04DEF26F002D8BA
:104C7E004BEF26F00500FA6E4150FD6E4250FE6E6F
:104C8E004350FF6EFA50120001011D9F1DAD52EFF1
:104C9E0026F054EF26F063EF26F002D861EF26F0EF
:104CAE000500FA6E3E50FD6E3F50FE6E4050FF6E98
:104CBE00FA50120001011D9D1DAB68EF26F06AEF40
:104CCE0026F079EF26F002D877EF26F00500FA6E7F
:104CDE003B50FD6E3C50FE6E3D50FF6EFA50120082
:104CEE0001011D9B1CA77EEF26F080EF26F08FEFB3
:104CFE0026F002D88DEF26F00500FA6E3850FD6EC4
:104D0E003950FE6E3A50FF6EFA50120001011C9798
:104D1E001DA994EF26F096EF26F0A5EF26F002D807
:104D2E00A3EF26F00500FA6E3550FD6E3650FE6E7E
:104D3E003750FF6EFA50120001011D991DA5AAEF02
:104D4E0026F0ACEF26F0CAEF26F002D8B9EF26F027
:104D5E000500FA6E3250FD6E3350FE6E3450FF6E0B
:104D6E00FA501200010154A9BFEF26F0C1EF26F050
:104D7E00C2EF26F0549960A9C7EF26F0C9EF26F0CE
:104D8E00CAEF26F06099AE9C12007F0E126E000ED6
:104D9E000E6E800E136E000E0F6E000E0C6E000E59
:104DAE00156E15500324D96E000E0420DA6EDF50F6
:104DBE00146E1450800A0A6E1250800A0A5CD8B023
:104DCE00EBEF26F0EDEF26F0F1EF26F014C512F51D
:104DDE0015C50EF51350800A0A6E1450800A0A5C2F
:104DEE00D8B0FCEF26F0FEEF26F002EF27F014C548
:104DFE0013F515C50FF514500C26152A170E15644C
:104E0E000BEF27F00DEF27F0D8EF26F00550500DE1
:104E1E00F3C40AF5F4C40BF544500A24106E000EC8
:104E2E000B20116E44500324D96E000E0420DA6E4E
:104E3E00DF500D6E1150476E10C548F50DC549F582
:104E4E00180E4A6E12C54BF513C54CF50FC54DF530
:104E5E000EC54EF5800E0524166E176AF30E172238
:104E6E00186A380E1822196A180E19221A9C1A9EE0
:104E7E001A50C30B20091A6E1A921A80470E1B6E17
:104E8E00050E1C6E442A170E446450EF27F052EFA5
:104E9E0027F054EF27F0000E446E21EE16F101EECE
:104EAE0003F1060EDBC4EBF4E806FCE21200000E82
:104EBE000C6E0ABE67EF27F065EF27F071EF27F053
:104ECE000A1E091E081E076C000E082209220A225D
:104EDE00010E0C6E06BE78EF27F076EF27F082EF0C
:104EEE0027F0061E051E041E036C000E042205226A
:104EFE000622010E0C1A000E0D6E000E0E6E000E26
:104F0E000F6E000E106E0750081009100A10D8B45C
:104F1E0093EF27F095EF27F0CBEF27F0010E0B6EF6
:104F2E009FEF27F0D8900736083609360A360B2A37
:104F3E000AAEA4EF27F0A6EF27F099EF27F0D8904E
:104F4E000D360E360F3610360750035C08500458D7
:104F5E00095005580A500658D8A0B8EF27F0BAEFF6
:104F6E0027F0C3EF27F00750035E0850045A09508C
:104F7E00055A0A50065A0D80D8900A320932083264
:104F8E0007320B2EA6EF27F00C50D8B4D1EF27F036
:104F9E00D3EF27F0DBEF27F0101E0F1E0E1E0D6C49
:104FAE00000E0E220F2210220DC503F50EC504F5BC
:104FBE000FC505F510C506F51200096E000E0A6E36
:104FCE0020EE04F00450D9260550DA22DF500B6E85
:104FDE000BAEF4EF27F0F6EF27F001EF28F063ECBD
:104FEE002BF0060AD8A4FEEF27F000EF28F001EF11
:104FFE0028F00A820B30E8320F0B066E080E06649C
:10500E000BEF28F00DEF28F01FEF28F00BAC12EF8E
:10501E0028F014EF28F01EEF28F063EC2BF0060AB0
:10502E00D8A41CEF28F01EEF28F01FEF28F00A80FE
:10503E00090EF66E370EF76E000EF86E0800F5C408
:10504E0006F50B30E8320F0B076E0750010F086E96
:10505E0008C5F6F4370EF76E000EF86E0800F55020
:10506E00065CD8B03DEF28F03FEF28F040EF28F077
:10507E000A800950E9EC2AF00009D8A449EF28F07B
:10508E004BEF28F04DEF28F0030E0A120A501200D3
:10509E00000E0301F96F000EFA6F000ED86F000EAE
:1050AE00FB6F000ED96F000EDA6F000EDB6F000E75
:1050BE00DC6F000EDF6F000EE06F000EE36F000E70
:1050CE00E46F000EE56F000EE66F000EE76F000E48
:1050DE00EA6F000EEB6F000EEC6F000EEE6F000E1F
:1050EE00EF6F000EF06F000EF16F000EF26F000EFC
:1050FE00F36F000EF46F100EF56F000EF66F000ECC
:10510E00F76F000EF86F000EFC6FAF94AF96B09075
:10511E00000E036E000E046E000E056E55EC2BF0A5
:10512E00000E036E000E046E000E056E47EC2BF0A3
:10513E00000E036E000E046E000E056E4EEC2BF08C
:10514E00840E0301F36F12001E6E1E5038EC2AF00F
:10515E000009D8B4B5EF28F0B7EF28F0F2EF28F039
:10516E0019C504F51AC505F51E50E4EC27F01B6EA3
:10517E001B50D8A4C5EF28F0C7EF28F0F2EF28F0A7
:10518E001E500C0D580EF324D96E010EF420DA6E5B
:10519E00DEC41CF5DDC41DF51C501D10D8B4DAEFAD
:1051AE0028F0DCEF28F0F2EF28F01CC50EF51DC537
:1051BE000FF519C510F51AC511F587EC23F01E5021
:1051CE000C0D510EF324D96E010EF420DA6E030E7F
:1051DE00DF12F2EF28F01200056E000E046E63EC83
:1051EE002BF0036E040E0318D8B400EF29F002EF73
:1051FE0029F013EF29F00504D8B408EF29F00AEFCF
:10520E0029F013EF29F0040E0518D8A411EF29F098
:10521E0013EF29F033EF29F0010103510518F80BB4
:10522E000518036F26EF29F01DA920EF29F022EFB4
:10523E0029F026EF29F0020E046E35EF29F002391F
:10524E00E832070B0518D8A42FEF29F031EF29F01B
:10525E001BEF29F035EF29F0010E046E04501200F9
:10526E00000EC26E000EC16E000EBE6E000EBF6E40
:10527E00000EC06E070ECA6EC668C768C868FD0EFF
:10528E00C96EC00E0401186F10690869070E206FF1
:10529E0000693C0E196F000E216F000E096F000E93
:1052AE00016F000E116F000E226F000E026F000EC6
:1052BE000A6F000E126F000E1A6F03690B691369E5
:1052CE001B69070E236F04690C6914691C690F0EA4
:1052DE00246F180E02013D6F460E1A6F1200E20E79
:1052EE00036E560E046E000E056E32EC2BF0E40EBD
:1052FE00036E560E046E000E056E39EC2BF0E60EA4
:10530E00036E560E046E000E056E40EC2BF0E00E92
:10531E00036E560E046E000E056E2BEC2BF0DE0E99
:10532E00036E560E046E000E056E24EC2BF0DC0E92
:10533E00036E560E046E000E056E1DEC2BF0AE9C29
:10534E00000E01011C6F000E1D6F080E1E6FFC0E6D
:10535E001F6F9E8C12000E0EF66E370EF76E000E3D
:10536E00F86E01EE9DF114EE00F00900F5C4EEF4B6
:10537E00E550E150FAE1E250F8E1A20EF66E550E5C
:10538E00F76E000EF86E01EE78F110EE18F00900CF
:10539E00F5C4EEF4E550E150FAE101EE60F1180EBD
:1053AE00EE6AE806FDE101EE32F11D0EEE6AE80648
:1053BE00FDE10401080E5D6F000E5E6F000E5F6F63
:1053CE0000019BEF24F005C50CF506C50DF503C5D0
:1053DE000AF504C50BF504EF2AF00CC5D9F40DC57A
:1053EE00DAF4DF50096E0C4A0D2A0AC5D9F40BC542
:1053FE00DAF409C5DFF40A4A0B2A0706D8A0080614
:10540E00072806E10828D8A40FEF2AF011EF2AF09A
:10541E00F4EF29F012000101018F040EF3EC28F0D5
:10542E000009D8A41DEF2AF01FEF2AF037EF2AF05B
:10543E00000E01014C6F380E4D6F000E4E6F000EB8
:10544E004F6F600E006F970E016F100E026F0BEC18
:10545E002BF0B2EC2AF076EC29F0060EF3EC28F0E5
:10546E001200046E000E036E040E046041EF2AF06B
:10547E0043EF2AF055EF2AF004500C0D500EF32492
:10548E00D96E010EF420DA6E0101DFAE51EF2AF073
:10549E0053EF2AF055EF2AF0010E036E035012005F
:1054AE00000E066E000E076E66EF2AF007500324FC
:1054BE00D96E000E0420DA6EDF500626072A05503C
:1054CE00075CD8A06DEF2AF06FEF2AF05DEF2AF09F
:1054DE0006501200FAC401F5FBC402F59EAC7AEF39
:1054EE002AF07CEF2AF085EF2AF0AEAC81EF2AF09D
:1054FE0083EF2AF085EF2AF036EC26F002C5FBF496
:10550E0001C5FAF41100000E0001606F000E616F0C
:10551E00000E626F000E636F000E646F000E656FFB
:10552E00000E666F000E676F000E686F1200066E3B
:10553E00000E056E065038EC2AF00009D8B4AAEF1A
:10554E002AF0ACEF2AF0B0EF2AF00650E9EC2AF080
:10555E00056E05501200100E0101506F040E516FB2
:10556E00600E526F010E536F900E5C6F040E5D6FE6
:10557E00600E5E6F050E5F6F12006CEC2BF08AEC06
:10558E002AF037EC29F04FEC28F0DDEC2AF012EC83
:10559E002AF0120016170001141502031213040547
:1055AE00101120211E1F08090C0D0A0B600E0001A0
:1055BE00AD6F000EAF6F000EB36F020EB16F000E27
:1055CE00B06F1200036E03500C0D540EF324D96EFF
:1055DE00010EF420DA6EDF50010B12000301F3A16D
:1055EE00FBEF2AF0FEEF2AF0010EFFEF2AF0000E7D
:1055FE0012000301EB51066E056AEA510524036E93
:10560E00000E0620046E1200010E0101046F010E41
:10561E00056F040E066F000E076F12009D0E032419
:10562E00D96E050E0420DA6EDF50120003C532F576
:10563E0004C533F505C534F5120003C535F504C5AB
:10564E0036F505C537F5120003C538F504C539F52D
:10565E0005C53AF5120003C541F504C542F505C569
:10566E0043F5120003C53EF504C53FF505C540F5EB
:10567E00120003C53BF504C53CF505C53DF512000A
:10568E0003C54FF504C550F505C551F5120003C508
:10569E009AF504C59BF505C59CF5120003C552F598
:1056AE0004C553F505C554F51200036E03C5ECF39E
:1056BE000301F38FF381120001010239E832070B67
:1056CE001200036E03C5FBF31200D69A12001200ED
:0A56DE001200120012001200120068
:020000040030CA
:10000000ECEEF7FF9FFFFFFFFFFFFFFFFFFFFFFF8C
:03001000FFFFFFF0
:08001700FFFFFFFFFFFFFFFFE9
:00000001FF
